{
	"SimplePools.sol": {
		"SimplePools": {
			"abi": [
				{
					"inputs": [],
					"stateMutability": "nonpayable",
					"type": "constructor"
				},
				{
					"stateMutability": "payable",
					"type": "fallback"
				},
				{
					"inputs": [
						{
							"internalType": "uint256",
							"name": "",
							"type": "uint256"
						}
					],
					"name": "_pools",
					"outputs": [
						{
							"internalType": "uint64",
							"name": "poolId",
							"type": "uint64"
						},
						{
							"internalType": "bool",
							"name": "isAsset1NativeBlockchainCurrency",
							"type": "bool"
						},
						{
							"internalType": "address",
							"name": "asset1",
							"type": "address"
						},
						{
							"internalType": "bool",
							"name": "isAsset2NativeBlockchainCurrency",
							"type": "bool"
						},
						{
							"internalType": "address",
							"name": "asset2",
							"type": "address"
						},
						{
							"internalType": "uint256",
							"name": "asset1Amount",
							"type": "uint256"
						},
						{
							"internalType": "uint256",
							"name": "asset2Amount",
							"type": "uint256"
						},
						{
							"internalType": "uint256",
							"name": "asset2InitiallyAskedAmount",
							"type": "uint256"
						},
						{
							"internalType": "uint8",
							"name": "maxBuyAsset1PercentPerTransaction",
							"type": "uint8"
						},
						{
							"internalType": "uint256",
							"name": "constantProduct",
							"type": "uint256"
						},
						{
							"internalType": "bool",
							"name": "isConstantPrice",
							"type": "bool"
						},
						{
							"internalType": "uint256",
							"name": "initialAsset1Amount",
							"type": "uint256"
						},
						{
							"internalType": "address payable",
							"name": "poolOwner",
							"type": "address"
						},
						{
							"internalType": "bool",
							"name": "isLocked",
							"type": "bool"
						},
						{
							"internalType": "bool",
							"name": "isEmpty",
							"type": "bool"
						}
					],
					"stateMutability": "view",
					"type": "function"
				},
				{
					"inputs": [
						{
							"internalType": "uint64",
							"name": "poolId",
							"type": "uint64"
						},
						{
							"internalType": "uint256",
							"name": "newConstantProduct",
							"type": "uint256"
						}
					],
					"name": "changeContantProduct",
					"outputs": [],
					"stateMutability": "payable",
					"type": "function"
				},
				{
					"inputs": [
						{
							"internalType": "uint64",
							"name": "poolId",
							"type": "uint64"
						},
						{
							"internalType": "address",
							"name": "newPoolOwner",
							"type": "address"
						}
					],
					"name": "changeOwner",
					"outputs": [],
					"stateMutability": "payable",
					"type": "function"
				},
				{
					"inputs": [
						{
							"internalType": "uint64",
							"name": "poolId",
							"type": "uint64"
						},
						{
							"internalType": "uint8",
							"name": "newMaxBuyAsset1PercentPerTransaction",
							"type": "uint8"
						}
					],
					"name": "changePoolMaxBuyAsset1PercentPerTransaction",
					"outputs": [],
					"stateMutability": "payable",
					"type": "function"
				},
				{
					"inputs": [],
					"name": "contractOwner",
					"outputs": [
						{
							"internalType": "address payable",
							"name": "",
							"type": "address"
						}
					],
					"stateMutability": "view",
					"type": "function"
				},
				{
					"inputs": [
						{
							"internalType": "address",
							"name": "poolCreatorAddress",
							"type": "address"
						},
						{
							"internalType": "bool",
							"name": "isAsset1Native",
							"type": "bool"
						},
						{
							"internalType": "contract IERC20",
							"name": "asset1",
							"type": "address"
						},
						{
							"internalType": "bool",
							"name": "isAsset2Native",
							"type": "bool"
						},
						{
							"internalType": "contract IERC20",
							"name": "asset2",
							"type": "address"
						},
						{
							"internalType": "uint256",
							"name": "asset1Amount",
							"type": "uint256"
						},
						{
							"internalType": "uint256",
							"name": "asset2InitiallyAskedAmount",
							"type": "uint256"
						},
						{
							"internalType": "uint8",
							"name": "maxBuyAsset1PercentPerTransaction",
							"type": "uint8"
						},
						{
							"internalType": "bool",
							"name": "isConstantPrice",
							"type": "bool"
						}
					],
					"name": "createPool",
					"outputs": [],
					"stateMutability": "payable",
					"type": "function"
				},
				{
					"inputs": [
						{
							"internalType": "address",
							"name": "personExecutingTheExchange",
							"type": "address"
						},
						{
							"internalType": "uint64",
							"name": "poolId",
							"type": "uint64"
						},
						{
							"internalType": "bool",
							"name": "isBuyingAsset1",
							"type": "bool"
						},
						{
							"internalType": "uint256",
							"name": "sellAmount",
							"type": "uint256"
						},
						{
							"internalType": "uint256",
							"name": "minReceiveAssetToBuyAmount",
							"type": "uint256"
						}
					],
					"name": "exchangeAsset",
					"outputs": [
						{
							"internalType": "uint256",
							"name": "",
							"type": "uint256"
						}
					],
					"stateMutability": "payable",
					"type": "function"
				},
				{
					"inputs": [
						{
							"internalType": "uint64",
							"name": "poolId",
							"type": "uint64"
						}
					],
					"name": "getAllAssetsFromPool",
					"outputs": [],
					"stateMutability": "payable",
					"type": "function"
				},
				{
					"inputs": [],
					"name": "getBalance",
					"outputs": [
						{
							"internalType": "uint256",
							"name": "",
							"type": "uint256"
						}
					],
					"stateMutability": "view",
					"type": "function"
				},
				{
					"inputs": [
						{
							"internalType": "uint64",
							"name": "poolId",
							"type": "uint64"
						}
					],
					"name": "getPool",
					"outputs": [
						{
							"components": [
								{
									"internalType": "uint64",
									"name": "poolId",
									"type": "uint64"
								},
								{
									"internalType": "bool",
									"name": "isAsset1NativeBlockchainCurrency",
									"type": "bool"
								},
								{
									"internalType": "address",
									"name": "asset1",
									"type": "address"
								},
								{
									"internalType": "bool",
									"name": "isAsset2NativeBlockchainCurrency",
									"type": "bool"
								},
								{
									"internalType": "address",
									"name": "asset2",
									"type": "address"
								},
								{
									"internalType": "uint256",
									"name": "asset1Amount",
									"type": "uint256"
								},
								{
									"internalType": "uint256",
									"name": "asset2Amount",
									"type": "uint256"
								},
								{
									"internalType": "uint256",
									"name": "asset2InitiallyAskedAmount",
									"type": "uint256"
								},
								{
									"internalType": "uint8",
									"name": "maxBuyAsset1PercentPerTransaction",
									"type": "uint8"
								},
								{
									"internalType": "uint256",
									"name": "constantProduct",
									"type": "uint256"
								},
								{
									"internalType": "bool",
									"name": "isConstantPrice",
									"type": "bool"
								},
								{
									"internalType": "uint256",
									"name": "initialAsset1Amount",
									"type": "uint256"
								},
								{
									"internalType": "address payable",
									"name": "poolOwner",
									"type": "address"
								},
								{
									"internalType": "bool",
									"name": "isLocked",
									"type": "bool"
								},
								{
									"internalType": "bool",
									"name": "isEmpty",
									"type": "bool"
								}
							],
							"internalType": "struct SimplePools.Pool",
							"name": "",
							"type": "tuple"
						}
					],
					"stateMutability": "view",
					"type": "function"
				},
				{
					"inputs": [
						{
							"internalType": "uint64[]",
							"name": "indexes",
							"type": "uint64[]"
						}
					],
					"name": "getPools",
					"outputs": [
						{
							"components": [
								{
									"internalType": "uint64",
									"name": "poolId",
									"type": "uint64"
								},
								{
									"internalType": "bool",
									"name": "isAsset1NativeBlockchainCurrency",
									"type": "bool"
								},
								{
									"internalType": "address",
									"name": "asset1",
									"type": "address"
								},
								{
									"internalType": "bool",
									"name": "isAsset2NativeBlockchainCurrency",
									"type": "bool"
								},
								{
									"internalType": "address",
									"name": "asset2",
									"type": "address"
								},
								{
									"internalType": "uint256",
									"name": "asset1Amount",
									"type": "uint256"
								},
								{
									"internalType": "uint256",
									"name": "asset2Amount",
									"type": "uint256"
								},
								{
									"internalType": "uint256",
									"name": "asset2InitiallyAskedAmount",
									"type": "uint256"
								},
								{
									"internalType": "uint8",
									"name": "maxBuyAsset1PercentPerTransaction",
									"type": "uint8"
								},
								{
									"internalType": "uint256",
									"name": "constantProduct",
									"type": "uint256"
								},
								{
									"internalType": "bool",
									"name": "isConstantPrice",
									"type": "bool"
								},
								{
									"internalType": "uint256",
									"name": "initialAsset1Amount",
									"type": "uint256"
								},
								{
									"internalType": "address payable",
									"name": "poolOwner",
									"type": "address"
								},
								{
									"internalType": "bool",
									"name": "isLocked",
									"type": "bool"
								},
								{
									"internalType": "bool",
									"name": "isEmpty",
									"type": "bool"
								}
							],
							"internalType": "struct SimplePools.Pool[]",
							"name": "",
							"type": "tuple[]"
						}
					],
					"stateMutability": "view",
					"type": "function"
				},
				{
					"inputs": [
						{
							"internalType": "uint64",
							"name": "startPoolIndex",
							"type": "uint64"
						},
						{
							"internalType": "uint64",
							"name": "endPoolIndex",
							"type": "uint64"
						}
					],
					"name": "getPools",
					"outputs": [
						{
							"components": [
								{
									"internalType": "uint64",
									"name": "poolId",
									"type": "uint64"
								},
								{
									"internalType": "bool",
									"name": "isAsset1NativeBlockchainCurrency",
									"type": "bool"
								},
								{
									"internalType": "address",
									"name": "asset1",
									"type": "address"
								},
								{
									"internalType": "bool",
									"name": "isAsset2NativeBlockchainCurrency",
									"type": "bool"
								},
								{
									"internalType": "address",
									"name": "asset2",
									"type": "address"
								},
								{
									"internalType": "uint256",
									"name": "asset1Amount",
									"type": "uint256"
								},
								{
									"internalType": "uint256",
									"name": "asset2Amount",
									"type": "uint256"
								},
								{
									"internalType": "uint256",
									"name": "asset2InitiallyAskedAmount",
									"type": "uint256"
								},
								{
									"internalType": "uint8",
									"name": "maxBuyAsset1PercentPerTransaction",
									"type": "uint8"
								},
								{
									"internalType": "uint256",
									"name": "constantProduct",
									"type": "uint256"
								},
								{
									"internalType": "bool",
									"name": "isConstantPrice",
									"type": "bool"
								},
								{
									"internalType": "uint256",
									"name": "initialAsset1Amount",
									"type": "uint256"
								},
								{
									"internalType": "address payable",
									"name": "poolOwner",
									"type": "address"
								},
								{
									"internalType": "bool",
									"name": "isLocked",
									"type": "bool"
								},
								{
									"internalType": "bool",
									"name": "isEmpty",
									"type": "bool"
								}
							],
							"internalType": "struct SimplePools.Pool[]",
							"name": "",
							"type": "tuple[]"
						}
					],
					"stateMutability": "view",
					"type": "function"
				},
				{
					"inputs": [],
					"name": "getPoolsCount",
					"outputs": [
						{
							"internalType": "uint256",
							"name": "",
							"type": "uint256"
						}
					],
					"stateMutability": "view",
					"type": "function"
				},
				{
					"inputs": [
						{
							"internalType": "uint64",
							"name": "startTransactionIndex",
							"type": "uint64"
						},
						{
							"internalType": "uint64",
							"name": "endTransactionIndex",
							"type": "uint64"
						}
					],
					"name": "getPoolsForTransactionsWithIndexesBetween",
					"outputs": [
						{
							"internalType": "uint64[]",
							"name": "",
							"type": "uint64[]"
						}
					],
					"stateMutability": "view",
					"type": "function"
				},
				{
					"inputs": [
						{
							"internalType": "uint64",
							"name": "startTransactionIndex",
							"type": "uint64"
						}
					],
					"name": "getPoolsForTransactionsWithIndexesFrom",
					"outputs": [
						{
							"internalType": "uint64[]",
							"name": "",
							"type": "uint64[]"
						}
					],
					"stateMutability": "view",
					"type": "function"
				},
				{
					"inputs": [
						{
							"internalType": "uint64",
							"name": "startPoolIndex",
							"type": "uint64"
						}
					],
					"name": "getPoolsFrom",
					"outputs": [
						{
							"components": [
								{
									"internalType": "uint64",
									"name": "poolId",
									"type": "uint64"
								},
								{
									"internalType": "bool",
									"name": "isAsset1NativeBlockchainCurrency",
									"type": "bool"
								},
								{
									"internalType": "address",
									"name": "asset1",
									"type": "address"
								},
								{
									"internalType": "bool",
									"name": "isAsset2NativeBlockchainCurrency",
									"type": "bool"
								},
								{
									"internalType": "address",
									"name": "asset2",
									"type": "address"
								},
								{
									"internalType": "uint256",
									"name": "asset1Amount",
									"type": "uint256"
								},
								{
									"internalType": "uint256",
									"name": "asset2Amount",
									"type": "uint256"
								},
								{
									"internalType": "uint256",
									"name": "asset2InitiallyAskedAmount",
									"type": "uint256"
								},
								{
									"internalType": "uint8",
									"name": "maxBuyAsset1PercentPerTransaction",
									"type": "uint8"
								},
								{
									"internalType": "uint256",
									"name": "constantProduct",
									"type": "uint256"
								},
								{
									"internalType": "bool",
									"name": "isConstantPrice",
									"type": "bool"
								},
								{
									"internalType": "uint256",
									"name": "initialAsset1Amount",
									"type": "uint256"
								},
								{
									"internalType": "address payable",
									"name": "poolOwner",
									"type": "address"
								},
								{
									"internalType": "bool",
									"name": "isLocked",
									"type": "bool"
								},
								{
									"internalType": "bool",
									"name": "isEmpty",
									"type": "bool"
								}
							],
							"internalType": "struct SimplePools.Pool[]",
							"name": "",
							"type": "tuple[]"
						}
					],
					"stateMutability": "view",
					"type": "function"
				},
				{
					"inputs": [],
					"name": "getTransactionsCount",
					"outputs": [
						{
							"internalType": "uint256",
							"name": "",
							"type": "uint256"
						}
					],
					"stateMutability": "view",
					"type": "function"
				},
				{
					"inputs": [
						{
							"internalType": "uint64",
							"name": "poolId",
							"type": "uint64"
						}
					],
					"name": "isPoolLocked",
					"outputs": [
						{
							"internalType": "bool",
							"name": "",
							"type": "bool"
						}
					],
					"stateMutability": "view",
					"type": "function"
				},
				{
					"inputs": [
						{
							"internalType": "uint64",
							"name": "poolId",
							"type": "uint64"
						}
					],
					"name": "lockPool",
					"outputs": [],
					"stateMutability": "payable",
					"type": "function"
				},
				{
					"inputs": [
						{
							"internalType": "uint8",
							"name": "newTaxIndexFromValidContractTransactionTaxes",
							"type": "uint8"
						}
					],
					"name": "setNewGlobalTax",
					"outputs": [],
					"stateMutability": "nonpayable",
					"type": "function"
				},
				{
					"inputs": [
						{
							"internalType": "address",
							"name": "newOwner",
							"type": "address"
						}
					],
					"name": "setNewOwner",
					"outputs": [],
					"stateMutability": "nonpayable",
					"type": "function"
				},
				{
					"stateMutability": "payable",
					"type": "receive"
				}
			],
			"devdoc": {
				"kind": "dev",
				"methods": {
					"changeContantProduct(uint64,uint256)": {
						"params": {
							"newConstantProduct": "the new constant product",
							"poolId": "the poolId"
						}
					},
					"changeOwner(uint64,address)": {
						"params": {
							"newPoolOwner": "the address of the new pool owner",
							"poolId": "the id of the pool"
						}
					},
					"changePoolMaxBuyAsset1PercentPerTransaction(uint64,uint8)": {
						"params": {
							"newMaxBuyAsset1PercentPerTransaction": "the new maxBuyAsset1PercentPerTransaction",
							"poolId": "the id of the pool"
						}
					},
					"createPool(address,bool,address,bool,address,uint256,uint256,uint8,bool)": {
						"params": {
							"asset1": "*",
							"asset1Amount": "*",
							"asset2": "*",
							"asset2InitiallyAskedAmount": "*",
							"isAsset1Native": "*",
							"isAsset2Native": "*",
							"isConstantPrice": "*",
							"maxBuyAsset1PercentPerTransaction": "*",
							"poolCreatorAddress": "the address of the pool creator"
						}
					},
					"exchangeAsset(address,uint64,bool,uint256,uint256)": {
						"params": {
							"isBuyingAsset1": "boolean flag indicating whether asset1 is requested            for buying in the transaction. If the value of the flag is true            then asset2 from the pool is sold for asset1. Otherwise if the            value of the flag is false then asset1 from the pool is sold for asset2.",
							"minReceiveAssetToBuyAmount": "the minimum amount received from assetToBuy.        This param ensures that front-runner bots cannot take advantage of the        transaction. This should be set automatically by simplepools.org or        calculated manually",
							"personExecutingTheExchange": "address of the person executing the exchange",
							"poolId": "the poolId for the pool where the exchange happens",
							"sellAmount": "the amount of asset to sell for the exchange"
						},
						"returns": {
							"_0": "the actual amount bought from the transaction"
						}
					},
					"getAllAssetsFromPool(uint64)": {
						"params": {
							"poolId": "the poolId of the pool"
						}
					},
					"getPool(uint64)": {
						"params": {
							"poolId": "the id of the requested pool "
						},
						"returns": {
							"_0": "the requested pool "
						}
					},
					"getPools(uint64,uint64)": {
						"params": {
							"endPoolIndex": "the end index",
							"startPoolIndex": "the start index"
						},
						"returns": {
							"_0": "list of requested pools"
						}
					},
					"getPools(uint64[])": {
						"params": {
							"indexes": "the list of requested pool indexes "
						},
						"returns": {
							"_0": "list of requested pools"
						}
					},
					"getPoolsCount()": {
						"returns": {
							"_0": "number of pools in the smart contract."
						}
					},
					"getPoolsForTransactionsWithIndexesBetween(uint64,uint64)": {
						"params": {
							"endTransactionIndex": "the index of the last transaction",
							"startTransactionIndex": "the index of the starting transaction"
						},
						"returns": {
							"_0": "the requested list of pool indexes"
						}
					},
					"getPoolsForTransactionsWithIndexesFrom(uint64)": {
						"params": {
							"startTransactionIndex": "the index of the starting transaction"
						},
						"returns": {
							"_0": "the requested list of pool indexes"
						}
					},
					"getPoolsFrom(uint64)": {
						"params": {
							"startPoolIndex": "the start index"
						},
						"returns": {
							"_0": "list of requested pools"
						}
					},
					"isPoolLocked(uint64)": {
						"params": {
							"poolId": "the id of the pool"
						},
						"returns": {
							"_0": "true if the pool is locked"
						}
					},
					"lockPool(uint64)": {
						"params": {
							"poolId": "the id of the pool"
						}
					}
				},
				"version": 1
			},
			"evm": {
				"assembly": "    /* \"SimplePools.sol\":886:26651  contract SimplePools {... */\n  0x80\n  jumpi(tag_1, callvalue)\n    /* \"SimplePools.sol\":25686:25694  10 ** 15 */\n  0x038d7ea4c68000\n  0x03\n    /* \"SimplePools.sol\":886:26651  contract SimplePools {... */\n  dup2\n  swap1\n  sstore\n    /* \"SimplePools.sol\":25686:25694  10 ** 15 */\n  swap1\n  sub(shl(0x40, 0x01), 0x01)\n    /* \"SimplePools.sol\":886:26651  contract SimplePools {... */\n  0xa0\n  dup3\n  add\n  dup2\n  dup2\n  gt\n  dup4\n  dup3\n  lt\n  or\n  tag_3\n  jumpi\n  0x40\n  mstore\n    /* \"SimplePools.sol\":25855:25861  10**13 */\n  0x09184e72a000\n    /* \"SimplePools.sol\":886:26651  contract SimplePools {... */\n  dup3\n  mstore\n    /* \"SimplePools.sol\":25854:25894  [10**13, 10**14, 10**15, 10**16, 10**17] */\n  0x20\n  swap3\n    /* \"SimplePools.sol\":25863:25869  10**14 */\n  0x5af3107a4000\n    /* \"SimplePools.sol\":25854:25894  [10**13, 10**14, 10**15, 10**16, 10**17] */\n  dup5\n  dup5\n  add\n    /* \"SimplePools.sol\":886:26651  contract SimplePools {... */\n  mstore\n  0x40\n    /* \"SimplePools.sol\":25854:25894  [10**13, 10**14, 10**15, 10**16, 10**17] */\n  dup4\n  add\n    /* \"SimplePools.sol\":886:26651  contract SimplePools {... */\n  mstore\n    /* \"SimplePools.sol\":25879:25885  10**16 */\n  0x2386f26fc10000\n    /* \"SimplePools.sol\":25854:25894  [10**13, 10**14, 10**15, 10**16, 10**17] */\n  0x60\n  dup4\n  add\n    /* \"SimplePools.sol\":886:26651  contract SimplePools {... */\n  mstore\n    /* \"SimplePools.sol\":25887:25893  10**17 */\n  0x016345785d8a0000\n    /* \"SimplePools.sol\":25854:25894  [10**13, 10**14, 10**15, 10**16, 10**17] */\n  0x80\n  dup4\n  add\n    /* \"SimplePools.sol\":886:26651  contract SimplePools {... */\n  mstore\n    /* \"SimplePools.sol\":25854:25894  [10**13, 10**14, 10**15, 10**16, 10**17] */\n  0x04\n    /* \"SimplePools.sol\":886:26651  contract SimplePools {... */\n  sload\n    /* \"SimplePools.sol\":25854:25894  [10**13, 10**14, 10**15, 10**16, 10**17] */\n  swap2\n  0x05\n    /* \"SimplePools.sol\":886:26651  contract SimplePools {... */\n  swap3\n  dup4\n    /* \"SimplePools.sol\":25854:25894  [10**13, 10**14, 10**15, 10**16, 10**17] */\n  0x04\n    /* \"SimplePools.sol\":886:26651  contract SimplePools {... */\n  sstore\n  dup1\n  dup5\n  lt\n  tag_5\n  jumpi\ntag_6:\n  pop\n  swap1\n    /* \"SimplePools.sol\":25854:25894  [10**13, 10**14, 10**15, 10**16, 10**17] */\n  0x04\n  0x00\n    /* \"SimplePools.sol\":886:26651  contract SimplePools {... */\n  mstore\n  dup4\n  0x00\n  keccak256\n  0x00\ntag_7:\n  dup5\n  dup2\n  lt\n  tag_8\n  jumpi\n    /* \"SimplePools.sol\":24771:24806  contractOwner = payable(msg.sender) */\n  0x02\n    /* \"SimplePools.sol\":886:26651  contract SimplePools {... */\n  dup1\n  sload\n  not(sub(shl(0xa0, 0x01), 0x01))\n  and\n    /* \"SimplePools.sol\":24795:24805  msg.sender */\n  caller\n    /* \"SimplePools.sol\":886:26651  contract SimplePools {... */\n  or\n  swap1\n  sstore\n  mload(0x40)\n  dataSize(sub_0)\n  swap1\n  dup2\n  dataOffset(sub_0)\n  dup3\n  codecopy\n  return\ntag_8:\n  dup4\n  mload\n  dup4\n  and\n  dup3\n  dup3\n  add\n  sstore\n  swap3\n  dup6\n  add\n  swap3\n  0x01\n  add\n  jump(tag_7)\ntag_5:\n  0x00\n    /* \"SimplePools.sol\":25854:25894  [10**13, 10**14, 10**15, 10**16, 10**17] */\n  0x04\n    /* \"SimplePools.sol\":886:26651  contract SimplePools {... */\n  dup2\n  mstore\n  dup5\n  dup7\n  dup3\n  keccak256\n  swap3\n  dup4\n  add\n  swap3\n  add\ntag_10:\n  dup3\n  dup2\n  lt\n  tag_11\n  jumpi\n  pop\n  pop\n  jump(tag_6)\ntag_11:\n  dup2\n  dup2\n  sstore\n  0x01\n  add\n  jump(tag_10)\ntag_3:\n  mstore(0x00, shl(0xe0, 0x4e487b71))\n  mstore(0x04, 0x41)\n  revert(0x00, 0x24)\ntag_1:\n  0x00\n  dup1\n  revert\nstop\n\nsub_0: assembly {\n        /* \"SimplePools.sol\":886:26651  contract SimplePools {... */\n      0x40\n      0x80\n      dup2\n      mstore\n      0x04\n      swap1\n      dup2\n      calldatasize\n      lt\n      iszero\n      tag_37\n      jumpi\n    tag_38:\n      pop\n      pop\n      jumpi(tag_39, iszero(calldatasize))\n      stop\n    tag_39:\n      stop\n    tag_37:\n      0x00\n      swap2\n      dup3\n      calldataload\n      0xe0\n      shr\n      dup1\n      0x0376e49c\n      eq\n      tag_41\n      jumpi\n      dup1\n      0x0c95be25\n      eq\n      tag_43\n      jumpi\n      dup1\n      0x12065fe0\n      eq\n      tag_45\n      jumpi\n      dup1\n      0x1e67d542\n      eq\n      tag_47\n      jumpi\n      dup1\n      0x22668de1\n      eq\n      tag_49\n      jumpi\n      dup1\n      0x3997663c\n      eq\n      tag_51\n      jumpi\n      dup1\n      0x455b5adc\n      eq\n      tag_53\n      jumpi\n      dup1\n      0x578cb8f9\n      eq\n      tag_55\n      jumpi\n      dup1\n      0x57b0b64d\n      eq\n      tag_57\n      jumpi\n      dup1\n      0x74d13a23\n      eq\n      tag_59\n      jumpi\n      dup1\n      0x81d802ba\n      eq\n      tag_61\n      jumpi\n      dup1\n      0x919adab8\n      eq\n      tag_63\n      jumpi\n      dup1\n      0xacb8001f\n      eq\n      tag_65\n      jumpi\n      dup1\n      0xb0b15560\n      eq\n      tag_67\n      jumpi\n      dup1\n      0xb4ac6860\n      eq\n      tag_69\n      jumpi\n      dup1\n      0xce606ee0\n      eq\n      tag_71\n      jumpi\n      dup1\n      0xd5700cbb\n      eq\n      tag_73\n      jumpi\n      dup1\n      0xf5a1f5b4\n      eq\n      tag_75\n      jumpi\n      dup1\n      0xf6fce7a9\n      eq\n      tag_77\n      jumpi\n      dup1\n      0xf8c81b90\n      eq\n      tag_79\n      jumpi\n      0xfa5a67ed\n      eq\n      tag_81\n      jumpi\n      pop\n      jump(tag_38)\n    tag_81:\n      dup2\n      add(calldatasize, not(0x03))\n      slt\n      tag_83\n      jumpi\n      tag_85\n      tag_1\n      jump\t// in\n    tag_85:\n      calldataload(0x24)\n        /* \"SimplePools.sol\":19056:19105  require(poolId < _pools.length, \"invalid poolId\") */\n      tag_86\n        /* \"SimplePools.sol\":886:26651  contract SimplePools {... */\n      dup6\n      sload\n      sub(shl(0x40, 0x01), 0x01)\n      dup5\n      and\n        /* \"SimplePools.sol\":19064:19086  poolId < _pools.length */\n      lt\n        /* \"SimplePools.sol\":19056:19105  require(poolId < _pools.length, \"invalid poolId\") */\n      tag_25\n      jump\t// in\n    tag_86:\n        /* \"SimplePools.sol\":19136:19150  _pools[poolId] */\n      tag_87\n      dup3\n      tag_8\n      jump\t// in\n    tag_87:\n        /* \"SimplePools.sol\":19170:19183  pool.isLocked */\n      pop\n      0x09\n      dup2\n      add\n        /* \"SimplePools.sol\":886:26651  contract SimplePools {... */\n      sload\n      swap4\n        /* \"SimplePools.sol\":19161:19202  require(!pool.isLocked, \"pool is locked\") */\n      tag_88\n        /* \"SimplePools.sol\":886:26651  contract SimplePools {... */\n      0xff\n      dup7\n      0xa0\n      shr\n      and\n        /* \"SimplePools.sol\":19169:19183  !pool.isLocked */\n      iszero\n        /* \"SimplePools.sol\":19161:19202  require(!pool.isLocked, \"pool is locked\") */\n      tag_23\n      jump\t// in\n    tag_88:\n      sub(shl(0xa0, 0x01), 0x01)\n        /* \"SimplePools.sol\":886:26651  contract SimplePools {... */\n      swap5\n        /* \"SimplePools.sol\":19239:19249  msg.sender */\n      caller\n        /* \"SimplePools.sol\":886:26651  contract SimplePools {... */\n      swap1\n      dup7\n      and\n        /* \"SimplePools.sol\":19221:19249  pool.poolOwner == msg.sender */\n      sub\n        /* \"SimplePools.sol\":886:26651  contract SimplePools {... */\n      tag_89\n      jumpi\n        /* \"SimplePools.sol\":19324:19346  newConstantProduct > 0 */\n      dup3\n      iszero\n        /* \"SimplePools.sol\":886:26651  contract SimplePools {... */\n      tag_91\n      jumpi\n        /* \"SimplePools.sol\":19410:19430  pool.constantProduct */\n      pop\n      dup6\n      swap4\n        /* \"SimplePools.sol\":19462:19498  _allTransactionsPoolIds.push(poolId) */\n      tag_93\n        /* \"SimplePools.sol\":19410:19430  pool.constantProduct */\n      dup6\n      swap5\n      dup6\n      swap5\n      0x06\n      dup7\n      swap6\n      add\n        /* \"SimplePools.sol\":886:26651  contract SimplePools {... */\n      sstore\n        /* \"SimplePools.sol\":19462:19498  _allTransactionsPoolIds.push(poolId) */\n      tag_13\n      jump\t// in\n    tag_93:\n        /* \"SimplePools.sol\":19509:19576  require(msg.value >= contractTransactionTax, \"lower tax specified\") */\n      tag_94\n        /* \"SimplePools.sol\":886:26651  contract SimplePools {... */\n      sload(0x03)\n        /* \"SimplePools.sol\":19517:19526  msg.value */\n      callvalue\n        /* \"SimplePools.sol\":19517:19552  msg.value >= contractTransactionTax */\n      lt\n      iszero\n        /* \"SimplePools.sol\":19509:19576  require(msg.value >= contractTransactionTax, \"lower tax specified\") */\n      tag_24\n      jump\t// in\n    tag_94:\n        /* \"SimplePools.sol\":19587:19600  contractOwner */\n      0x02\n        /* \"SimplePools.sol\":886:26651  contract SimplePools {... */\n      sload\n      and\n        /* \"SimplePools.sol\":19587:19620  contractOwner.transfer(msg.value) */\n      dup2\n        /* \"SimplePools.sol\":19517:19526  msg.value */\n      swap1\n      callvalue\n        /* \"SimplePools.sol\":19587:19620  contractOwner.transfer(msg.value) */\n      iszero\n      tag_95\n      jumpi\n        /* \"SimplePools.sol\":886:26651  contract SimplePools {... */\n    tag_96:\n        /* \"SimplePools.sol\":19517:19526  msg.value */\n      callvalue\n        /* \"SimplePools.sol\":19587:19620  contractOwner.transfer(msg.value) */\n      swap2\n      call\n      iszero\n      tag_97\n      jumpi\n        /* \"SimplePools.sol\":886:26651  contract SimplePools {... */\n      pop\n      dup1\n      return\n        /* \"SimplePools.sol\":19587:19620  contractOwner.transfer(msg.value) */\n    tag_97:\n        /* \"SimplePools.sol\":886:26651  contract SimplePools {... */\n      mload\n      swap1\n      returndatasize\n      swap1\n      dup3\n      returndatacopy\n      returndatasize\n      swap1\n      revert\n        /* \"SimplePools.sol\":19587:19620  contractOwner.transfer(msg.value) */\n    tag_95:\n      0x08fc\n      swap2\n      pop\n      jump(tag_96)\n        /* \"SimplePools.sol\":886:26651  contract SimplePools {... */\n    tag_91:\n      0x84\n      swap1\n      0x20\n      dup8\n      mload\n      swap2\n      shl(0xe5, 0x461bcd)\n      dup4\n      mstore\n      dup3\n      add\n      mstore\n      0x30\n      0x24\n      dup3\n      add\n      mstore\n      0x696e76616c696420636f6e7374616e742070726f6475637420286f6e6c792070\n      0x44\n      dup3\n      add\n      mstore\n      shl(0x80, 0x6f736974697665206e756d6265727329)\n      0x64\n      dup3\n      add\n      mstore\n      revert\n    tag_89:\n      0x84\n      swap1\n      0x20\n      dup8\n      mload\n      swap2\n      shl(0xe5, 0x461bcd)\n      dup4\n      mstore\n      dup3\n      add\n      mstore\n      0x33\n      0x24\n      dup3\n      add\n      mstore\n      0x6f6e6c792074686520706f6f6c206f776e65722063616e206368616e67652074\n      0x44\n      dup3\n      add\n      mstore\n      shl(0x6a, 0x1a194818dbdb9cdd185b9d081c1c9bd91d58dd)\n      0x64\n      dup3\n      add\n      mstore\n      revert\n    tag_83:\n      dup3\n      dup1\n      revert\n    tag_79:\n      dup3\n      dup5\n      jumpi(tag_101, callvalue)\n      dup2\n      add(calldatasize, not(0x03))\n      slt\n      tag_101\n      jumpi\n      tag_103\n      tag_1\n      jump\t// in\n    tag_103:\n      swap1\n      dup2\n        /* \"SimplePools.sol\":20710:20751  new Pool[](endPoolIndex - startPoolIndex) */\n      tag_104\n        /* \"SimplePools.sol\":886:26651  contract SimplePools {... */\n      tag_105\n      tag_2\n      jump\t// in\n    tag_105:\n        /* \"SimplePools.sol\":20721:20750  endPoolIndex - startPoolIndex */\n      tag_106\n      sub(shl(0x40, 0x01), 0x01)\n        /* \"SimplePools.sol\":886:26651  contract SimplePools {... */\n      swap6\n      dup3\n        /* \"SimplePools.sol\":20588:20678  require(endPoolIndex > startPoolIndex && endPoolIndex <= _pools.length, \"invalid indexes\") */\n      tag_107\n        /* \"SimplePools.sol\":886:26651  contract SimplePools {... */\n      dup9\n      dup1\n      swap6\n      and\n      swap8\n      dup6\n      dup5\n      and\n        /* \"SimplePools.sol\":20596:20625  endPoolIndex > startPoolIndex */\n      dup10\n      gt\n        /* \"SimplePools.sol\":20596:20658  endPoolIndex > startPoolIndex && endPoolIndex <= _pools.length */\n      swap1\n      dup2\n      tag_108\n      jumpi\n        /* \"SimplePools.sol\":886:26651  contract SimplePools {... */\n    tag_109:\n        /* \"SimplePools.sol\":20588:20678  require(endPoolIndex > startPoolIndex && endPoolIndex <= _pools.length, \"invalid indexes\") */\n      pop\n      tag_26\n      jump\t// in\n    tag_107:\n        /* \"SimplePools.sol\":20721:20750  endPoolIndex - startPoolIndex */\n      tag_27\n      jump\t// in\n    tag_106:\n        /* \"SimplePools.sol\":886:26651  contract SimplePools {... */\n      and\n        /* \"SimplePools.sol\":20710:20751  new Pool[](endPoolIndex - startPoolIndex) */\n      tag_29\n      jump\t// in\n    tag_104:\n        /* \"SimplePools.sol\":20766:20791  uint64 i = startPoolIndex */\n      swap3\n      dup2\n        /* \"SimplePools.sol\":20793:20809  i < endPoolIndex */\n    tag_110:\n        /* \"SimplePools.sol\":886:26651  contract SimplePools {... */\n      dup4\n      dup3\n      dup3\n      and\n        /* \"SimplePools.sol\":20793:20809  i < endPoolIndex */\n      lt\n      tag_111\n      jumpi\n        /* \"SimplePools.sol\":886:26651  contract SimplePools {... */\n      dup6\n      mload\n      dup1\n      tag_113\n      dup8\n      dup3\n      tag_4\n      jump\t// in\n    tag_113:\n      sub\n      swap1\n      return\n        /* \"SimplePools.sol\":20811:20814  ++i */\n    tag_111:\n        /* \"SimplePools.sol\":20859:20868  _pools[i] */\n      dup1\n        /* \"SimplePools.sol\":20831:20868  pools[i - startPoolIndex] = _pools[i] */\n      tag_114\n        /* \"SimplePools.sol\":20859:20868  _pools[i] */\n      tag_115\n        /* \"SimplePools.sol\":20811:20814  ++i */\n      tag_116\n        /* \"SimplePools.sol\":20859:20868  _pools[i] */\n      swap4\n      tag_8\n      jump\t// in\n    tag_115:\n        /* \"SimplePools.sol\":20837:20855  i - startPoolIndex */\n      pop\n      dup5\n        /* \"SimplePools.sol\":886:26651  contract SimplePools {... */\n      tag_117\n        /* \"SimplePools.sol\":20837:20855  i - startPoolIndex */\n      tag_118\n      dup9\n      dup7\n      tag_27\n      jump\t// in\n    tag_118:\n        /* \"SimplePools.sol\":886:26651  contract SimplePools {... */\n      swap3\n      tag_32\n      jump\t// in\n    tag_117:\n      swap2\n      and\n        /* \"SimplePools.sol\":20831:20868  pools[i - startPoolIndex] = _pools[i] */\n      swap1\n      tag_119\n      dup3\n      dup11\n      tag_31\n      jump\t// in\n    tag_119:\n      mstore\n      dup8\n      tag_31\n      jump\t// in\n    tag_114:\n      pop\n        /* \"SimplePools.sol\":20811:20814  ++i */\n      tag_30\n      jump\t// in\n    tag_116:\n        /* \"SimplePools.sol\":20766:20791  uint64 i = startPoolIndex */\n      jump(tag_110)\n        /* \"SimplePools.sol\":20596:20658  endPoolIndex > startPoolIndex && endPoolIndex <= _pools.length */\n    tag_108:\n        /* \"SimplePools.sol\":886:26651  contract SimplePools {... */\n      swap1\n      pop\n      sload\n        /* \"SimplePools.sol\":20629:20658  endPoolIndex <= _pools.length */\n      dup9\n      gt\n      iszero\n        /* \"SimplePools.sol\":20596:20658  endPoolIndex > startPoolIndex && endPoolIndex <= _pools.length */\n      dup12\n      jump(tag_109)\n        /* \"SimplePools.sol\":886:26651  contract SimplePools {... */\n    tag_101:\n      dup1\n      revert\n    tag_77:\n      pop\n      dup2\n      add(calldatasize, not(0x03))\n      slt\n      tag_83\n      jumpi\n      tag_122\n      tag_1\n      jump\t// in\n    tag_122:\n      calldataload(0x24)\n      0xff\n      dup2\n      and\n      dup1\n      swap2\n      sub\n      tag_123\n      jumpi\n        /* \"SimplePools.sol\":17946:17995  require(poolId < _pools.length, \"invalid poolId\") */\n      tag_125\n        /* \"SimplePools.sol\":886:26651  contract SimplePools {... */\n      dup6\n      sload\n      sub(shl(0x40, 0x01), 0x01)\n      dup5\n      and\n        /* \"SimplePools.sol\":17954:17976  poolId < _pools.length */\n      lt\n        /* \"SimplePools.sol\":17946:17995  require(poolId < _pools.length, \"invalid poolId\") */\n      tag_25\n      jump\t// in\n    tag_125:\n        /* \"SimplePools.sol\":18060:18073  pool.isLocked */\n      0x09\n        /* \"SimplePools.sol\":18026:18040  _pools[poolId] */\n      tag_126\n      dup4\n      tag_8\n      jump\t// in\n    tag_126:\n        /* \"SimplePools.sol\":18060:18073  pool.isLocked */\n      pop\n      add\n        /* \"SimplePools.sol\":886:26651  contract SimplePools {... */\n      sload\n      swap3\n        /* \"SimplePools.sol\":18051:18092  require(!pool.isLocked, \"pool is locked\") */\n      tag_127\n        /* \"SimplePools.sol\":886:26651  contract SimplePools {... */\n      0xff\n      dup6\n      0xa0\n      shr\n      and\n        /* \"SimplePools.sol\":18059:18073  !pool.isLocked */\n      iszero\n        /* \"SimplePools.sol\":18051:18092  require(!pool.isLocked, \"pool is locked\") */\n      tag_23\n      jump\t// in\n    tag_127:\n      sub(shl(0xa0, 0x01), 0x01)\n        /* \"SimplePools.sol\":886:26651  contract SimplePools {... */\n      swap4\n        /* \"SimplePools.sol\":18129:18139  msg.sender */\n      caller\n        /* \"SimplePools.sol\":886:26651  contract SimplePools {... */\n      swap1\n      dup6\n      and\n        /* \"SimplePools.sol\":18111:18139  pool.poolOwner == msg.sender */\n      sub\n        /* \"SimplePools.sol\":886:26651  contract SimplePools {... */\n      tag_128\n      jumpi\n        /* \"SimplePools.sol\":18288:18291  100 */\n      0x64\n        /* \"SimplePools.sol\":18248:18291  newMaxBuyAsset1PercentPerTransaction <= 100 */\n      dup3\n      gt\n      iszero\n        /* \"SimplePools.sol\":18248:18356  newMaxBuyAsset1PercentPerTransaction <= 100 &&... */\n      dup1\n      tag_130\n      jumpi\n        /* \"SimplePools.sol\":886:26651  contract SimplePools {... */\n    tag_131:\n      iszero\n      tag_132\n      jumpi\n        /* \"SimplePools.sol\":18429:18443  _pools[poolId] */\n      pop\n      dup5\n      dup1\n      swap4\n        /* \"SimplePools.sol\":18527:18563  _allTransactionsPoolIds.push(poolId) */\n      tag_93\n        /* \"SimplePools.sol\":18429:18443  _pools[poolId] */\n      dup5\n      dup4\n      swap6\n      swap5\n        /* \"SimplePools.sol\":18429:18477  _pools[poolId].maxBuyAsset1PercentPerTransaction */\n      0x05\n        /* \"SimplePools.sol\":18429:18443  _pools[poolId] */\n      tag_135\n      dup7\n      swap8\n      tag_8\n      jump\t// in\n    tag_135:\n        /* \"SimplePools.sol\":18429:18477  _pools[poolId].maxBuyAsset1PercentPerTransaction */\n      pop\n      add\n        /* \"SimplePools.sol\":886:26651  contract SimplePools {... */\n      swap1\n      not(0xff)\n      dup3\n      sload\n      and\n      or\n      swap1\n      sstore\n        /* \"SimplePools.sol\":18527:18563  _allTransactionsPoolIds.push(poolId) */\n      tag_13\n      jump\t// in\n        /* \"SimplePools.sol\":886:26651  contract SimplePools {... */\n    tag_132:\n      0x84\n      swap1\n      0x20\n      dup7\n      mload\n      swap2\n      shl(0xe5, 0x461bcd)\n      dup4\n      mstore\n      dup3\n      add\n      mstore\n      0x23\n      0x24\n      dup3\n      add\n      mstore\n      0x696e76616c6964206d61782070657263656e7420706572207472616e73616374\n      0x44\n      dup3\n      add\n      mstore\n      shl(0xe9, 0x34b7b7)\n        /* \"SimplePools.sol\":18288:18291  100 */\n      0x64\n        /* \"SimplePools.sol\":886:26651  contract SimplePools {... */\n      dup3\n      add\n      mstore\n      revert\n        /* \"SimplePools.sol\":18248:18356  newMaxBuyAsset1PercentPerTransaction <= 100 &&... */\n    tag_130:\n        /* \"SimplePools.sol\":18316:18356  newMaxBuyAsset1PercentPerTransaction > 0 */\n      pop\n      dup2\n      iszero\n      iszero\n        /* \"SimplePools.sol\":18248:18356  newMaxBuyAsset1PercentPerTransaction <= 100 &&... */\n      jump(tag_131)\n        /* \"SimplePools.sol\":886:26651  contract SimplePools {... */\n    tag_128:\n      0xa4\n      swap1\n      0x20\n      dup7\n      mload\n      swap2\n      shl(0xe5, 0x461bcd)\n      dup4\n      mstore\n      dup3\n      add\n      mstore\n      0x43\n      0x24\n      dup3\n      add\n      mstore\n      0x6f6e6c792074686520706f6f6c206f776e65722063616e206368616e6765206e\n      0x44\n      dup3\n      add\n      mstore\n      0x65774d617842757941737365743150657263656e745065725472616e73616374\n      0x64\n      dup3\n      add\n      mstore\n      shl(0xe9, 0x34b7b7)\n      0x84\n      dup3\n      add\n      mstore\n      revert\n    tag_123:\n      dup5\n      dup1\n      revert\n    tag_75:\n      pop\n      swap1\n      jumpi(tag_83, callvalue)\n      jumpi(tag_83, slt(add(not(0x03), calldatasize), 0x20))\n      tag_145\n      tag_10\n      jump\t// in\n    tag_145:\n        /* \"SimplePools.sol\":25423:25436  contractOwner */\n      0x02\n        /* \"SimplePools.sol\":886:26651  contract SimplePools {... */\n      sload\n      swap3\n      sub(shl(0xa0, 0x01), 0x01)\n      swap3\n      dup4\n      dup6\n      and\n        /* \"SimplePools.sol\":25409:25419  msg.sender */\n      caller\n        /* \"SimplePools.sol\":25409:25436  msg.sender == contractOwner */\n      sub\n        /* \"SimplePools.sol\":886:26651  contract SimplePools {... */\n      tag_146\n      jumpi\n      pop\n      pop\n      and\n      swap1\n      shl(0xa0, 0xffffffffffffffffffffffff)\n      and\n      or\n        /* \"SimplePools.sol\":25423:25436  contractOwner */\n      0x02\n        /* \"SimplePools.sol\":886:26651  contract SimplePools {... */\n      sstore\n      dup1\n      return\n    tag_146:\n      swap1\n      0x20\n      0x84\n      swap3\n      mload\n      swap2\n      shl(0xe5, 0x461bcd)\n      dup4\n      mstore\n      dup3\n      add\n      mstore\n      0x2b\n      0x24\n      dup3\n      add\n      mstore\n      0x6f6e6c79207468652063757272656e74206f776e65722063616e206368616e67\n      0x44\n      dup3\n      add\n      mstore\n      shl(0xa9, 0x32903a34329037bbb732b9)\n      0x64\n      dup3\n      add\n      mstore\n      revert\n    tag_73:\n      pop\n      pop\n      jumpi(tag_148, slt(add(not(0x03), calldatasize), 0xa0))\n      tag_150\n      tag_10\n      jump\t// in\n    tag_150:\n      tag_151\n      tag_2\n      jump\t// in\n    tag_151:\n      swap3\n      calldataload(0x44)\n      swap1\n      dup2\n      iszero\n      iszero\n      dup3\n      sub\n      tag_101\n      jumpi\n      pop\n      swap3\n      tag_154\n      swap2\n      0x20\n      swap5\n      calldataload(0x84)\n      swap3\n      calldataload(0x64)\n      swap3\n      tag_21\n      jump\t// in\n    tag_154:\n      swap1\n      mload\n      swap1\n      dup2\n      mstore\n      return\n    tag_148:\n      pop\n      dup1\n      revert\n    tag_71:\n      pop\n      pop\n      jumpi(tag_148, callvalue)\n      dup2\n      add(calldatasize, not(0x03))\n      slt\n      tag_148\n      jumpi\n        /* \"SimplePools.sol\":24625:24661  address payable public contractOwner */\n      0x02\n        /* \"SimplePools.sol\":886:26651  contract SimplePools {... */\n      sload\n      swap1\n      mload\n      sub(shl(0xa0, 0x01), 0x01)\n      swap1\n      swap2\n      and\n      dup2\n      mstore\n      0x20\n      swap1\n      return\n    tag_69:\n      pop\n      pop\n      jumpi(tag_148, callvalue)\n      dup2\n      add(calldatasize, not(0x03))\n      slt\n      tag_148\n      jumpi\n      0x20\n      swap2\n      sload\n      swap1\n      mload\n      swap1\n      dup2\n      mstore\n      return\n    tag_67:\n      pop\n      swap1\n      jumpi(tag_83, slt(add(not(0x03), calldatasize), 0x20))\n      tag_165\n      tag_1\n      jump\t// in\n    tag_165:\n      swap2\n        /* \"SimplePools.sol\":16115:16165  require(_pools.length > poolId, \"invalid pool id\") */\n      tag_166\n        /* \"SimplePools.sol\":886:26651  contract SimplePools {... */\n      dup5\n      sload\n      sub(shl(0x40, 0x01), 0x01)\n      dup6\n      and\n      lt\n        /* \"SimplePools.sol\":16115:16165  require(_pools.length > poolId, \"invalid pool id\") */\n      tag_22\n      jump\t// in\n    tag_166:\n        /* \"SimplePools.sol\":16230:16243  pool.isLocked */\n      0x09\n        /* \"SimplePools.sol\":16196:16210  _pools[poolId] */\n      tag_167\n      dup5\n      tag_8\n      jump\t// in\n    tag_167:\n        /* \"SimplePools.sol\":16230:16243  pool.isLocked */\n      pop\n      add\n        /* \"SimplePools.sol\":886:26651  contract SimplePools {... */\n      swap3\n      dup4\n      sload\n      swap2\n      0xff\n      dup4\n      0xa0\n      shr\n      and\n      tag_168\n      jumpi\n      sub(shl(0xa0, 0x01), 0x01)\n      swap3\n        /* \"SimplePools.sol\":16307:16317  msg.sender */\n      caller\n        /* \"SimplePools.sol\":886:26651  contract SimplePools {... */\n      swap1\n      dup5\n      and\n        /* \"SimplePools.sol\":16289:16317  pool.poolOwner == msg.sender */\n      sub\n        /* \"SimplePools.sol\":886:26651  contract SimplePools {... */\n      tag_170\n      jumpi\n        /* \"SimplePools.sol\":16368:16404  _allTransactionsPoolIds.push(poolId) */\n      pop\n      dup5\n      dup1\n      dup1\n      swap4\n      tag_172\n      dup3\n      swap5\n      tag_13\n      jump\t// in\n    tag_172:\n        /* \"SimplePools.sol\":16415:16482  require(msg.value >= contractTransactionTax, \"lower tax specified\") */\n      tag_173\n        /* \"SimplePools.sol\":886:26651  contract SimplePools {... */\n      sload(0x03)\n        /* \"SimplePools.sol\":16423:16432  msg.value */\n      callvalue\n        /* \"SimplePools.sol\":16423:16458  msg.value >= contractTransactionTax */\n      lt\n      iszero\n        /* \"SimplePools.sol\":16415:16482  require(msg.value >= contractTransactionTax, \"lower tax specified\") */\n      tag_24\n      jump\t// in\n    tag_173:\n        /* \"SimplePools.sol\":16493:16506  contractOwner */\n      0x02\n        /* \"SimplePools.sol\":886:26651  contract SimplePools {... */\n      sload\n      and\n        /* \"SimplePools.sol\":16493:16526  contractOwner.transfer(msg.value) */\n      dup2\n        /* \"SimplePools.sol\":16423:16432  msg.value */\n      swap1\n      callvalue\n        /* \"SimplePools.sol\":16493:16526  contractOwner.transfer(msg.value) */\n      iszero\n      tag_174\n      jumpi\n        /* \"SimplePools.sol\":886:26651  contract SimplePools {... */\n    tag_175:\n        /* \"SimplePools.sol\":16423:16432  msg.value */\n      callvalue\n        /* \"SimplePools.sol\":16493:16526  contractOwner.transfer(msg.value) */\n      swap2\n      call\n      iszero\n      tag_176\n      jumpi\n      pop\n        /* \"SimplePools.sol\":886:26651  contract SimplePools {... */\n      dup1\n      sload\n      not(shl(0xa0, 0xff))\n      and\n      shl(0xa0, 0x01)\n      or\n      swap1\n      sstore\n      dup1\n      return\n        /* \"SimplePools.sol\":16493:16526  contractOwner.transfer(msg.value) */\n    tag_176:\n        /* \"SimplePools.sol\":886:26651  contract SimplePools {... */\n      mload\n      swap2\n      returndatasize\n      swap2\n      pop\n      dup3\n      returndatacopy\n      returndatasize\n      swap1\n      revert\n        /* \"SimplePools.sol\":16493:16526  contractOwner.transfer(msg.value) */\n    tag_174:\n      0x08fc\n      swap2\n      pop\n      jump(tag_175)\n        /* \"SimplePools.sol\":886:26651  contract SimplePools {... */\n    tag_170:\n      0x84\n      swap1\n      0x20\n      dup6\n      mload\n      swap2\n      shl(0xe5, 0x461bcd)\n      dup4\n      mstore\n      dup3\n      add\n      mstore\n      0x23\n      0x24\n      dup3\n      add\n      mstore\n      0x6f6e6c792074686520706f6f6c206f776e65722063616e206c6f636b20612070\n      0x44\n      dup3\n      add\n      mstore\n      shl(0xea, 0x1bdbdb)\n      0x64\n      dup3\n      add\n      mstore\n      revert\n    tag_168:\n      0x64\n      swap1\n      0x20\n      dup6\n      mload\n      swap2\n      shl(0xe5, 0x461bcd)\n      dup4\n      mstore\n      dup3\n      add\n      mstore\n      0x16\n      0x24\n      dup3\n      add\n      mstore\n      shl(0x52, 0x1c1bdbdb081a5cc8185b1c9958591e481b1bd8dad959)\n      0x44\n      dup3\n      add\n      mstore\n      revert\n    tag_65:\n      dup3\n      dup5\n      jumpi(tag_101, callvalue)\n      dup2\n      add(calldatasize, not(0x03))\n      slt\n      tag_101\n      jumpi\n      pop\n      tag_182\n      tag_1\n      jump\t// in\n    tag_182:\n      tag_183\n      tag_2\n      jump\t// in\n    tag_183:\n      swap2\n      sub(shl(0x40, 0x01), 0x01)\n      swap3\n        /* \"SimplePools.sol\":23362:23419  new uint64[](endTransactionIndex - startTransactionIndex) */\n      tag_184\n        /* \"SimplePools.sol\":886:26651  contract SimplePools {... */\n      dup5\n        /* \"SimplePools.sol\":23375:23418  endTransactionIndex - startTransactionIndex */\n      tag_185\n        /* \"SimplePools.sol\":886:26651  contract SimplePools {... */\n      dup6\n      dup3\n      dup6\n      and\n      swap5\n      dup4\n      dup3\n      and\n        /* \"SimplePools.sol\":23183:23226  endTransactionIndex > startTransactionIndex */\n      dup7\n      gt\n        /* \"SimplePools.sol\":23183:23301  endTransactionIndex > startTransactionIndex && ... */\n      dup1\n      tag_186\n      jumpi\n        /* \"SimplePools.sol\":886:26651  contract SimplePools {... */\n    tag_187:\n        /* \"SimplePools.sol\":23175:23321  require(endTransactionIndex > startTransactionIndex && ... */\n      tag_107\n      swap1\n      tag_26\n      jump\t// in\n        /* \"SimplePools.sol\":23375:23418  endTransactionIndex - startTransactionIndex */\n    tag_185:\n        /* \"SimplePools.sol\":886:26651  contract SimplePools {... */\n      and\n        /* \"SimplePools.sol\":23362:23419  new uint64[](endTransactionIndex - startTransactionIndex) */\n      tag_34\n      jump\t// in\n    tag_184:\n        /* \"SimplePools.sol\":23435:23467  uint64 i = startTransactionIndex */\n      swap3\n      dup1\n        /* \"SimplePools.sol\":23469:23492  i < endTransactionIndex */\n    tag_189:\n        /* \"SimplePools.sol\":886:26651  contract SimplePools {... */\n      dup3\n      dup7\n      dup3\n      and\n        /* \"SimplePools.sol\":23469:23492  i < endTransactionIndex */\n      lt\n      tag_190\n      jumpi\n        /* \"SimplePools.sol\":886:26651  contract SimplePools {... */\n      dup4\n      mload\n      dup1\n      tag_113\n      dup8\n      dup3\n      tag_9\n      jump\t// in\n        /* \"SimplePools.sol\":23494:23497  ++i */\n    tag_190:\n        /* \"SimplePools.sol\":23555:23581  _allTransactionsPoolIds[i] */\n      dup1\n      dup7\n      tag_193\n        /* \"SimplePools.sol\":23494:23497  ++i */\n      tag_194\n        /* \"SimplePools.sol\":23555:23581  _allTransactionsPoolIds[i] */\n      swap4\n      tag_12\n      jump\t// in\n    tag_193:\n        /* \"SimplePools.sol\":886:26651  contract SimplePools {... */\n      swap1\n      sload\n      swap1\n      0x03\n      shl\n      shr\n      and\n        /* \"SimplePools.sol\":23514:23581  poolIndexes[i - startTransactionIndex] = _allTransactionsPoolIds[i] */\n      tag_195\n        /* \"SimplePools.sol\":23526:23551  i - startTransactionIndex */\n      dup9\n      tag_196\n      dup7\n      dup6\n      tag_27\n      jump\t// in\n    tag_196:\n        /* \"SimplePools.sol\":886:26651  contract SimplePools {... */\n      and\n        /* \"SimplePools.sol\":23514:23581  poolIndexes[i - startTransactionIndex] = _allTransactionsPoolIds[i] */\n      dup9\n      tag_31\n      jump\t// in\n    tag_195:\n        /* \"SimplePools.sol\":886:26651  contract SimplePools {... */\n      mstore\n        /* \"SimplePools.sol\":23494:23497  ++i */\n      tag_30\n      jump\t// in\n    tag_194:\n        /* \"SimplePools.sol\":23435:23467  uint64 i = startTransactionIndex */\n      jump(tag_189)\n        /* \"SimplePools.sol\":23183:23301  endTransactionIndex > startTransactionIndex && ... */\n    tag_186:\n      pop\n        /* \"SimplePools.sol\":23271:23294  _allTransactionsPoolIds */\n      0x01\n        /* \"SimplePools.sol\":886:26651  contract SimplePools {... */\n      sload\n        /* \"SimplePools.sol\":23248:23301  endTransactionIndex <= _allTransactionsPoolIds.length */\n      dup7\n      gt\n      iszero\n        /* \"SimplePools.sol\":23183:23301  endTransactionIndex > startTransactionIndex && ... */\n      jump(tag_187)\n        /* \"SimplePools.sol\":886:26651  contract SimplePools {... */\n    tag_63:\n      pop\n      pop\n      jumpi(tag_148, callvalue)\n      jumpi(tag_148, slt(add(not(0x03), calldatasize), 0x20))\n      0x01e0\n      swap1\n      tag_201\n      tag_202\n        /* \"SimplePools.sol\":22322:22336  _pools[poolId] */\n      tag_203\n        /* \"SimplePools.sol\":886:26651  contract SimplePools {... */\n      tag_204\n      tag_1\n      jump\t// in\n    tag_204:\n      tag_205\n      tag_28\n      jump\t// in\n    tag_205:\n      pop\n        /* \"SimplePools.sol\":22322:22336  _pools[poolId] */\n      tag_8\n      jump\t// in\n    tag_203:\n        /* \"SimplePools.sol\":886:26651  contract SimplePools {... */\n      pop\n      tag_32\n      jump\t// in\n    tag_202:\n      swap2\n      mload\n      dup1\n      swap3\n      tag_3\n      jump\t// in\n    tag_201:\n      return\n    tag_61:\n      pop\n      dup2\n      add(calldatasize, not(0x03))\n      slt\n      tag_83\n      jumpi\n      tag_208\n      tag_1\n      jump\t// in\n    tag_208:\n      sub(shl(0xa0, 0x01), 0x01)\n      swap2\n      calldataload(0x24)\n      dup4\n      dup2\n      and\n      swap1\n      dup2\n      swap1\n      sub\n      tag_209\n      jumpi\n        /* \"SimplePools.sol\":17027:17076  require(poolId < _pools.length, \"invalid poolId\") */\n      tag_211\n        /* \"SimplePools.sol\":886:26651  contract SimplePools {... */\n      dup7\n      sload\n      sub(shl(0x40, 0x01), 0x01)\n      dup6\n      and\n        /* \"SimplePools.sol\":17035:17057  poolId < _pools.length */\n      lt\n        /* \"SimplePools.sol\":17027:17076  require(poolId < _pools.length, \"invalid poolId\") */\n      tag_25\n      jump\t// in\n    tag_211:\n        /* \"SimplePools.sol\":17141:17154  pool.isLocked */\n      0x09\n        /* \"SimplePools.sol\":17107:17121  _pools[poolId] */\n      tag_212\n      dup5\n      tag_8\n      jump\t// in\n    tag_212:\n        /* \"SimplePools.sol\":17141:17154  pool.isLocked */\n      pop\n      add\n        /* \"SimplePools.sol\":886:26651  contract SimplePools {... */\n      swap2\n      dup3\n      sload\n      swap1\n        /* \"SimplePools.sol\":17132:17173  require(!pool.isLocked, \"pool is locked\") */\n      tag_213\n        /* \"SimplePools.sol\":886:26651  contract SimplePools {... */\n      0xff\n      dup4\n      0xa0\n      shr\n      and\n        /* \"SimplePools.sol\":17140:17154  !pool.isLocked */\n      iszero\n        /* \"SimplePools.sol\":17132:17173  require(!pool.isLocked, \"pool is locked\") */\n      tag_23\n      jump\t// in\n    tag_213:\n        /* \"SimplePools.sol\":17210:17220  msg.sender */\n      caller\n        /* \"SimplePools.sol\":886:26651  contract SimplePools {... */\n      dup7\n      dup4\n      and\n        /* \"SimplePools.sol\":17192:17220  pool.poolOwner == msg.sender */\n      sub\n        /* \"SimplePools.sol\":886:26651  contract SimplePools {... */\n      tag_214\n      jumpi\n      not(sub(shl(0xa0, 0x01), 0x01))\n      dup3\n      and\n      dup4\n      or\n      dup5\n      sstore\n      dup8\n      dup8\n      dup2\n      dup1\n      dup1\n      dup1\n      dup12\n        /* \"SimplePools.sol\":17325:17361  _allTransactionsPoolIds.push(poolId) */\n      tag_93\n        /* \"SimplePools.sol\":886:26651  contract SimplePools {... */\n      dup13\n        /* \"SimplePools.sol\":17325:17361  _allTransactionsPoolIds.push(poolId) */\n      tag_13\n      jump\t// in\n        /* \"SimplePools.sol\":886:26651  contract SimplePools {... */\n    tag_214:\n      0x84\n      swap1\n      0x20\n      dup9\n      mload\n      swap2\n      shl(0xe5, 0x461bcd)\n      dup4\n      mstore\n      dup3\n      add\n      mstore\n      0x28\n      0x24\n      dup3\n      add\n      mstore\n      0x6f6e6c792074686520706f6f6c206f776e65722063616e206368616e6765206f\n      0x44\n      dup3\n      add\n      mstore\n      shl(0xc4, 0x0776e65727368697)\n      0x64\n      dup3\n      add\n      mstore\n      revert\n    tag_209:\n      dup6\n      dup1\n      revert\n    tag_59:\n      pop\n      jumpi(tag_83, callvalue)\n      jumpi(tag_83, slt(add(not(0x03), calldatasize), 0x20))\n      dup1\n      calldataload\n      swap2\n      0xff\n      dup4\n      and\n      swap1\n      dup2\n      dup5\n      sub\n      tag_123\n      jumpi\n        /* \"SimplePools.sol\":26223:26236  contractOwner */\n      0x02\n        /* \"SimplePools.sol\":886:26651  contract SimplePools {... */\n      sload\n      sub(shl(0xa0, 0x01), 0x01)\n      and\n        /* \"SimplePools.sol\":26209:26219  msg.sender */\n      caller\n        /* \"SimplePools.sol\":26209:26236  msg.sender == contractOwner */\n      sub\n        /* \"SimplePools.sol\":886:26651  contract SimplePools {... */\n      tag_228\n      jumpi\n      dup3\n      sload\n        /* \"SimplePools.sol\":26301:26384  newTaxIndexFromValidContractTransactionTaxes < validContractTransactionTaxes.length */\n      dup1\n      swap3\n      lt\n        /* \"SimplePools.sol\":26301:26454  newTaxIndexFromValidContractTransactionTaxes < validContractTransactionTaxes.length &&... */\n      dup1\n      tag_230\n      jumpi\n        /* \"SimplePools.sol\":886:26651  contract SimplePools {... */\n    tag_231:\n      iszero\n      tag_232\n      jumpi\n      pop\n      dup3\n      lt\n      iszero\n      tag_234\n      jumpi\n      pop\n      0x8a35acfbc15ff81a39ae7d344fd709f28e8600b4aa8c65c6b64bfe7fe36bd19b\n      add\n      sload\n      0x03\n      sstore\n      dup1\n      return\n    tag_234:\n      shl(0xe0, 0x4e487b71)\n      dup4\n      mstore\n      0x32\n      swap1\n      mstore\n      0x24\n      dup3\n      revert\n    tag_232:\n      mload\n      shl(0xe5, 0x461bcd)\n      dup2\n      mstore\n      0x20\n      dup2\n      dup5\n      add\n      mstore\n      0x34\n      0x24\n      dup3\n      add\n      mstore\n      0x696e76616c6964206e6577546178496e64657846726f6d56616c6964436f6e74\n      0x44\n      dup3\n      add\n      mstore\n      shl(0x60, 0x726163745472616e73616374696f6e5461786573)\n      0x64\n      dup3\n      add\n      mstore\n      0x84\n      swap1\n      revert\n        /* \"SimplePools.sol\":26301:26454  newTaxIndexFromValidContractTransactionTaxes < validContractTransactionTaxes.length &&... */\n    tag_230:\n      pop\n        /* \"SimplePools.sol\":886:26651  contract SimplePools {... */\n      0x01\n        /* \"SimplePools.sol\":26301:26454  newTaxIndexFromValidContractTransactionTaxes < validContractTransactionTaxes.length &&... */\n      jump(tag_231)\n        /* \"SimplePools.sol\":886:26651  contract SimplePools {... */\n    tag_228:\n      mload\n      shl(0xe5, 0x461bcd)\n      dup2\n      mstore\n      0x20\n      dup2\n      dup5\n      add\n      mstore\n      0x29\n      0x24\n      dup3\n      add\n      mstore\n      0x6f6e6c79207468652063757272656e74206f776e65722063616e206368616e67\n      0x44\n      dup3\n      add\n      mstore\n      shl(0xbb, 0x0ca40e8d0ca40e8c2f)\n      0x64\n      dup3\n      add\n      mstore\n      0x84\n      swap1\n      revert\n    tag_57:\n      pop\n      swap2\n      swap1\n      jumpi(tag_148, slt(add(not(0x03), calldatasize), 0x0120))\n      tag_238\n      tag_10\n      jump\t// in\n    tag_238:\n      swap1\n      calldataload(0x24)\n      swap1\n      dup2\n      iszero\n      iszero\n      swap1\n      dup2\n      dup4\n      sub\n      tag_123\n      jumpi\n      sub(shl(0xa0, 0x01), 0x01)\n      swap3\n      calldataload(0x44)\n      dup5\n      dup2\n      and\n      swap1\n      dup2\n      dup2\n      sub\n      tag_241\n      jumpi\n      calldataload(0x64)\n      dup1\n      iszero\n      iszero\n      dup1\n      swap2\n      sub\n      tag_243\n      jumpi\n      calldataload(0x84)\n      dup8\n      dup2\n      and\n      dup1\n      swap2\n      sub\n      tag_245\n      jumpi\n      calldataload(0xa4)\n      swap7\n      calldataload(0xc4)\n      swap7\n      calldataload(0xe4)\n      swap7\n      0xff\n      dup9\n      and\n      dup1\n      swap9\n      sub\n      tag_247\n      jumpi\n      calldataload(0x0104)\n      swap7\n      dup8\n      iszero\n      iszero\n      dup1\n      swap9\n      sub\n      tag_249\n      jumpi\n      sload(0x03)\n        /* \"SimplePools.sol\":6989:7049  contractTransactionTax + (isAsset1Native ? asset1Amount : 0) */\n      tag_251\n      swap1\n        /* \"SimplePools.sol\":886:26651  contract SimplePools {... */\n      dup16\n        /* \"SimplePools.sol\":7015:7048  isAsset1Native ? asset1Amount : 0 */\n      dup5\n      iszero\n      tag_252\n      jumpi\n      pop\n      dup13\n      swap1\n        /* \"SimplePools.sol\":6989:7049  contractTransactionTax + (isAsset1Native ? asset1Amount : 0) */\n      tag_11\n      jump\t// in\n    tag_251:\n        /* \"SimplePools.sol\":7068:7077  msg.value */\n      callvalue\n        /* \"SimplePools.sol\":7068:7101  msg.value >= nativeAmountRequired */\n      lt\n        /* \"SimplePools.sol\":886:26651  contract SimplePools {... */\n      tag_255\n      jumpi\n      dup13\n      dup16\n      dup16\n      swap3\n      dup14\n      swap2\n      sub(shl(0x40, 0x01), 0x01)\n      dup6\n      sload\n      and\n        /* \"SimplePools.sol\":7208:7244  _allTransactionsPoolIds.push(poolId) */\n      swap6\n      tag_257\n      dup8\n      tag_13\n      jump\t// in\n    tag_257:\n        /* \"SimplePools.sol\":7255:7550  if (isAsset1Native) {... */\n      iszero\n      tag_258\n      jumpi\n        /* \"SimplePools.sol\":7290:7326  payable(this).transfer(asset1Amount) */\n      pop\n      pop\n      pop\n      pop\n      dup1\n      dup12\n      dup1\n      iszero\n      tag_260\n      jumpi\n        /* \"SimplePools.sol\":7255:7550  if (isAsset1Native) {... */\n    tag_261:\n        /* \"SimplePools.sol\":7298:7302  this */\n      dup3\n      dup1\n      swap3\n      swap2\n      dup2\n      swap3\n      address\n        /* \"SimplePools.sol\":7290:7326  payable(this).transfer(asset1Amount) */\n      swap1\n      call\n      iszero\n      tag_267\n      jumpi\n        /* \"SimplePools.sol\":886:26651  contract SimplePools {... */\n      dup13\n      dup1\n      dup1\n      dup1\n      dup14\n      dup16\n        /* \"SimplePools.sol\":7364:7388  msg.value - asset1Amount */\n      tag_264\n        /* \"SimplePools.sol\":886:26651  contract SimplePools {... */\n      swap1\n        /* \"SimplePools.sol\":7341:7354  contractOwner */\n      0x02\n        /* \"SimplePools.sol\":886:26651  contract SimplePools {... */\n      sload\n      and\n        /* \"SimplePools.sol\":7068:7077  msg.value */\n      swap2\n      callvalue\n        /* \"SimplePools.sol\":7364:7388  msg.value - asset1Amount */\n      tag_16\n      jump\t// in\n    tag_264:\n        /* \"SimplePools.sol\":7341:7389  contractOwner.transfer(msg.value - asset1Amount) */\n      swap1\n      dup3\n      dup3\n      iszero\n      tag_265\n      jumpi\n        /* \"SimplePools.sol\":7255:7550  if (isAsset1Native) {... */\n    tag_266:\n        /* \"SimplePools.sol\":7341:7389  contractOwner.transfer(msg.value - asset1Amount) */\n      call\n      iszero\n      tag_267\n      jumpi\n        /* \"SimplePools.sol\":7255:7550  if (isAsset1Native) {... */\n    tag_269:\n        /* \"SimplePools.sol\":886:26651  contract SimplePools {... */\n      dup13\n      sload\n      shl(0x40, 0x01)\n      dup2\n      lt\n      iszero\n      tag_270\n      jumpi\n      swap2\n      dup14\n      swap15\n      swap6\n      swap4\n      swap2\n      dup4\n      dup16\n      swap15\n      swap16\n      swap14\n      swap15\n      0x01\n      dup14\n      swap11\n      swap9\n      swap7\n      add\n      swap1\n      sstore\n      tag_272\n      swap1\n      tag_8\n      jump\t// in\n    tag_272:\n      pop\n      dup1\n      sload\n      not(0xffffffffffffffff)\n      and\n      dup3\n      or\n      swap1\n      sstore\n        /* \"SimplePools.sol\":7620:7634  _pools[poolId] */\n      tag_273\n      swap1\n      tag_8\n      jump\t// in\n    tag_273:\n      pop\n        /* \"SimplePools.sol\":886:26651  contract SimplePools {... */\n      dup1\n      sload\n        /* \"SimplePools.sol\":7685:7702  pool.asset1Amount */\n      0x02\n      dup3\n      add\n        /* \"SimplePools.sol\":886:26651  contract SimplePools {... */\n      dup14\n      swap1\n      sstore\n      0x01\n        /* \"SimplePools.sol\":7728:7739  pool.asset2 */\n      dup3\n      add\n        /* \"SimplePools.sol\":886:26651  contract SimplePools {... */\n      dup1\n      sload\n      not(sub(shl(0xa0, 0x01), 0x01))\n      and\n      swap6\n      swap1\n      swap6\n      or\n      swap1\n      swap5\n      sstore\n      0x03\n        /* \"SimplePools.sol\":7768:7785  pool.asset2Amount */\n      dup2\n      add\n        /* \"SimplePools.sol\":886:26651  contract SimplePools {... */\n      swap13\n      swap1\n      swap13\n      sstore\n      shl(0xe8, 0xff)\n      0xe8\n      swap5\n      swap1\n      swap5\n      shl\n      swap4\n      swap1\n      swap4\n      and\n      swap3\n      shl\n      0xff0000000000000000\n      and\n      sub(shl(0xe8, 0x01), 0x01000000000000000000)\n      0x48\n      swap5\n      swap1\n      swap5\n      shl\n      swap4\n      swap1\n      swap4\n      and\n      not(sub(shl(0xf0, 0x01), 0x010000000000000000))\n      swap1\n      swap2\n      and\n      or\n      swap2\n      swap1\n      swap2\n      or\n      or\n      dup8\n      sstore\n        /* \"SimplePools.sol\":7930:7961  pool.asset2InitiallyAskedAmount */\n      dup7\n      add\n        /* \"SimplePools.sol\":886:26651  contract SimplePools {... */\n      sstore\n        /* \"SimplePools.sol\":8001:8039  pool.maxBuyAsset1PercentPerTransaction */\n      0x05\n      dup6\n      add\n        /* \"SimplePools.sol\":886:26651  contract SimplePools {... */\n      dup1\n      sload\n      not(0xff)\n      swap1\n      dup2\n      and\n      swap4\n      swap1\n      swap4\n      or\n      swap1\n      sstore\n        /* \"SimplePools.sol\":8086:8106  pool.isConstantPrice */\n      0x07\n      dup6\n      add\n        /* \"SimplePools.sol\":886:26651  contract SimplePools {... */\n      dup1\n      sload\n      swap1\n      swap3\n      and\n      0xff\n      swap2\n      swap1\n      swap2\n      and\n      or\n      swap1\n      sstore\n        /* \"SimplePools.sol\":8158:8199  asset1Amount * asset2InitiallyAskedAmount */\n      tag_274\n      swap1\n        /* \"SimplePools.sol\":886:26651  contract SimplePools {... */\n      dup3\n        /* \"SimplePools.sol\":8158:8199  asset1Amount * asset2InitiallyAskedAmount */\n      tag_17\n      jump\t// in\n    tag_274:\n        /* \"SimplePools.sol\":8135:8155  pool.constantProduct */\n      0x06\n      dup4\n      add\n        /* \"SimplePools.sol\":886:26651  contract SimplePools {... */\n      sstore\n        /* \"SimplePools.sol\":8210:8234  pool.initialAsset1Amount */\n      0x08\n      dup3\n      add\n        /* \"SimplePools.sol\":886:26651  contract SimplePools {... */\n      sstore\n        /* \"SimplePools.sol\":8260:8274  pool.poolOwner */\n      0x09\n      add\n        /* \"SimplePools.sol\":886:26651  contract SimplePools {... */\n      swap2\n      and\n      shl(0xb0, 0xffffffffffffffffffff)\n      dup3\n      sload\n      and\n      or\n      swap1\n      sstore\n      dup1\n      return\n    tag_270:\n      pop\n      pop\n      shl(0xe0, 0x4e487b71)\n      dup13\n      mstore\n      0x41\n      dup14\n      mstore\n      0x24\n      dup13\n      revert\n        /* \"SimplePools.sol\":7341:7389  contractOwner.transfer(msg.value - asset1Amount) */\n    tag_267:\n        /* \"SimplePools.sol\":886:26651  contract SimplePools {... */\n      dup2\n      mload\n      returndatasize\n      dup15\n      dup3\n      returndatacopy\n      returndatasize\n      swap1\n      revert\n        /* \"SimplePools.sol\":7341:7389  contractOwner.transfer(msg.value - asset1Amount) */\n    tag_265:\n      pop\n      0x08fc\n      jump(tag_266)\n        /* \"SimplePools.sol\":7290:7326  payable(this).transfer(asset1Amount) */\n    tag_260:\n      0x08fc\n      swap2\n      pop\n      jump(tag_261)\n        /* \"SimplePools.sol\":7255:7550  if (isAsset1Native) {... */\n    tag_258:\n        /* \"SimplePools.sol\":886:26651  contract SimplePools {... */\n      dup7\n      mload\n      shl(0xe0, 0x23b872dd)\n        /* \"SimplePools.sol\":7422:7490  asset1.transferFrom(poolCreatorAddress, address(this), asset1Amount) */\n      dup2\n      mstore\n      sub(shl(0xa0, 0x01), 0x01)\n        /* \"SimplePools.sol\":886:26651  contract SimplePools {... */\n      swap1\n      swap5\n      and\n        /* \"SimplePools.sol\":7422:7490  asset1.transferFrom(poolCreatorAddress, address(this), asset1Amount) */\n      swap1\n      dup5\n      add\n        /* \"SimplePools.sol\":886:26651  contract SimplePools {... */\n      swap1\n      dup2\n      mstore\n        /* \"SimplePools.sol\":7470:7474  this */\n      address\n        /* \"SimplePools.sol\":886:26651  contract SimplePools {... */\n      0x20\n      dup3\n      dup2\n      add\n      swap2\n      swap1\n      swap2\n      mstore\n      0x40\n      dup3\n      add\n      swap4\n      swap1\n      swap4\n      mstore\n      swap3\n      swap4\n      swap2\n      swap3\n      dup5\n      swap3\n      dup4\n      swap2\n      dup3\n      swap1\n      0x60\n      add\n        /* \"SimplePools.sol\":7422:7490  asset1.transferFrom(poolCreatorAddress, address(this), asset1Amount) */\n      sub\n      swap3\n      gas\n      call\n      dup1\n      iszero\n      tag_276\n      jumpi\n      dup15\n      dup1\n      dup15\n      dup2\n      swap5\n      dup3\n      swap5\n      tag_278\n      jumpi\n        /* \"SimplePools.sol\":7255:7550  if (isAsset1Native) {... */\n    tag_279:\n        /* \"SimplePools.sol\":886:26651  contract SimplePools {... */\n      pop\n        /* \"SimplePools.sol\":7505:7518  contractOwner */\n      0x02\n        /* \"SimplePools.sol\":886:26651  contract SimplePools {... */\n      sload\n      and\n        /* \"SimplePools.sol\":7505:7538  contractOwner.transfer(msg.value) */\n      dup2\n        /* \"SimplePools.sol\":7068:7077  msg.value */\n      swap1\n      callvalue\n        /* \"SimplePools.sol\":7505:7538  contractOwner.transfer(msg.value) */\n      iszero\n      tag_280\n      jumpi\n        /* \"SimplePools.sol\":7255:7550  if (isAsset1Native) {... */\n    tag_281:\n        /* \"SimplePools.sol\":7068:7077  msg.value */\n      callvalue\n        /* \"SimplePools.sol\":7505:7538  contractOwner.transfer(msg.value) */\n      swap2\n      call\n        /* \"SimplePools.sol\":7255:7550  if (isAsset1Native) {... */\n      tag_269\n        /* \"SimplePools.sol\":7505:7538  contractOwner.transfer(msg.value) */\n      jumpi\n        /* \"SimplePools.sol\":886:26651  contract SimplePools {... */\n      dup2\n      mload\n      returndatasize\n      dup15\n      dup3\n      returndatacopy\n      returndatasize\n      swap1\n      revert\n        /* \"SimplePools.sol\":7505:7538  contractOwner.transfer(msg.value) */\n    tag_280:\n      0x08fc\n      swap2\n      pop\n      jump(tag_281)\n        /* \"SimplePools.sol\":7422:7490  asset1.transferFrom(poolCreatorAddress, address(this), asset1Amount) */\n    tag_278:\n      tag_284\n      swap1\n        /* \"SimplePools.sol\":886:26651  contract SimplePools {... */\n      0x20\n        /* \"SimplePools.sol\":7422:7490  asset1.transferFrom(poolCreatorAddress, address(this), asset1Amount) */\n      returndatasize\n      dup2\n      gt\n      tag_285\n      jumpi\n    tag_286:\n      tag_287\n      dup2\n      dup4\n      tag_6\n      jump\t// in\n    tag_287:\n      dup2\n      add\n      swap1\n      tag_14\n      jump\t// in\n    tag_284:\n      pop\n      codesize\n      jump(tag_279)\n    tag_285:\n      pop\n      returndatasize\n      jump(tag_286)\n    tag_276:\n        /* \"SimplePools.sol\":886:26651  contract SimplePools {... */\n      dup15\n      dup5\n      mload\n      swap1\n      returndatasize\n      swap1\n      dup3\n      returndatacopy\n      returndatasize\n      swap1\n      revert\n    tag_255:\n      0x84\n      dup16\n      0x20\n      dup6\n      mload\n      swap2\n      shl(0xe5, 0x461bcd)\n      dup4\n      mstore\n      dup3\n      add\n      mstore\n      0x29\n      0x24\n      dup3\n      add\n      mstore\n      0x4c6f776572207468616e20746865207265717569726564207472616e73616374\n      0x44\n      dup3\n      add\n      mstore\n      shl(0xb8, 0x696f6e2076616c7565)\n      0x64\n      dup3\n      add\n      mstore\n      revert\n        /* \"SimplePools.sol\":7015:7048  isAsset1Native ? asset1Amount : 0 */\n    tag_252:\n      swap1\n        /* \"SimplePools.sol\":6989:7049  contractTransactionTax + (isAsset1Native ? asset1Amount : 0) */\n      tag_11\n      jump\t// in\n        /* \"SimplePools.sol\":886:26651  contract SimplePools {... */\n    tag_249:\n      dup14\n      dup1\n      revert\n    tag_247:\n      dup13\n      dup1\n      revert\n    tag_245:\n      dup10\n      dup1\n      revert\n    tag_243:\n      dup9\n      dup1\n      revert\n    tag_241:\n      dup8\n      dup1\n      revert\n    tag_55:\n      pop\n      pop\n      jumpi(tag_148, callvalue)\n      dup2\n      add(calldatasize, not(0x03))\n      slt\n      tag_148\n      jumpi\n      0x20\n      swap1\n        /* \"SimplePools.sol\":22532:22555  _allTransactionsPoolIds */\n      0x01\n        /* \"SimplePools.sol\":886:26651  contract SimplePools {... */\n      sload\n      swap1\n      mload\n      swap1\n      dup2\n      mstore\n      return\n    tag_53:\n      dup3\n      dup5\n      jumpi(tag_101, callvalue)\n      jumpi(tag_101, slt(add(not(0x03), calldatasize), 0x20))\n      pop\n      tag_296\n      tag_1\n      jump\t// in\n    tag_296:\n        /* \"SimplePools.sol\":24158:24181  _allTransactionsPoolIds */\n      0x01\n        /* \"SimplePools.sol\":886:26651  contract SimplePools {... */\n      sload\n      swap2\n      sub(shl(0x40, 0x01), 0x01)\n      swap3\n        /* \"SimplePools.sol\":24247:24315  new uint64[](_allTransactionsPoolIds.length - startTransactionIndex) */\n      tag_297\n        /* \"SimplePools.sol\":24260:24314  _allTransactionsPoolIds.length - startTransactionIndex */\n      tag_298\n        /* \"SimplePools.sol\":886:26651  contract SimplePools {... */\n      dup6\n      dup6\n      and\n        /* \"SimplePools.sol\":24126:24206  require(startTransactionIndex < _allTransactionsPoolIds.length, \"invalid index\") */\n      tag_299\n        /* \"SimplePools.sol\":24134:24188  startTransactionIndex < _allTransactionsPoolIds.length */\n      dup5\n      dup3\n      lt\n        /* \"SimplePools.sol\":24126:24206  require(startTransactionIndex < _allTransactionsPoolIds.length, \"invalid index\") */\n      tag_33\n      jump\t// in\n    tag_299:\n        /* \"SimplePools.sol\":24260:24314  _allTransactionsPoolIds.length - startTransactionIndex */\n      dup4\n      tag_16\n      jump\t// in\n    tag_298:\n        /* \"SimplePools.sol\":24247:24315  new uint64[](_allTransactionsPoolIds.length - startTransactionIndex) */\n      tag_34\n      jump\t// in\n    tag_297:\n        /* \"SimplePools.sol\":24331:24363  uint64 i = startTransactionIndex */\n      swap3\n      dup1\n        /* \"SimplePools.sol\":24365:24399  i < _allTransactionsPoolIds.length */\n    tag_300:\n        /* \"SimplePools.sol\":886:26651  contract SimplePools {... */\n      dup3\n      dup7\n      dup3\n      and\n        /* \"SimplePools.sol\":24365:24399  i < _allTransactionsPoolIds.length */\n      lt\n      tag_301\n      jumpi\n        /* \"SimplePools.sol\":886:26651  contract SimplePools {... */\n      dup4\n      mload\n      dup1\n      tag_113\n      dup8\n      dup3\n      tag_9\n      jump\t// in\n        /* \"SimplePools.sol\":24401:24404  ++i */\n    tag_301:\n        /* \"SimplePools.sol\":24462:24488  _allTransactionsPoolIds[i] */\n      dup1\n      dup7\n      tag_193\n        /* \"SimplePools.sol\":24401:24404  ++i */\n      tag_305\n        /* \"SimplePools.sol\":24462:24488  _allTransactionsPoolIds[i] */\n      swap4\n      tag_12\n      jump\t// in\n        /* \"SimplePools.sol\":24401:24404  ++i */\n    tag_305:\n        /* \"SimplePools.sol\":24331:24363  uint64 i = startTransactionIndex */\n      jump(tag_300)\n        /* \"SimplePools.sol\":886:26651  contract SimplePools {... */\n    tag_51:\n      pop\n      jumpi(tag_83, callvalue)\n      jumpi(tag_83, slt(add(not(0x03), calldatasize), 0x20))\n      dup1\n      calldataload\n      swap3\n      dup1\n      sload\n        /* \"SimplePools.sol\":4948:4968  Pool[] public _pools */\n      dup5\n      lt\n      iszero\n      tag_101\n      jumpi\n      pop\n      tag_314\n        /* \"SimplePools.sol\":886:26651  contract SimplePools {... */\n      0x01e0\n        /* \"SimplePools.sol\":4948:4968  Pool[] public _pools */\n      swap4\n      tag_8\n      jump\t// in\n    tag_314:\n        /* \"SimplePools.sol\":886:26651  contract SimplePools {... */\n      pop\n      dup1\n      sload\n      swap1\n      0x01\n      dup1\n      0xa0\n      shl\n      sub\n        /* \"SimplePools.sol\":4948:4968  Pool[] public _pools */\n      swap1\n      dup2\n        /* \"SimplePools.sol\":886:26651  contract SimplePools {... */\n      0x01\n        /* \"SimplePools.sol\":4948:4968  Pool[] public _pools */\n      dup3\n      add\n        /* \"SimplePools.sol\":886:26651  contract SimplePools {... */\n      sload\n      and\n        /* \"SimplePools.sol\":4948:4968  Pool[] public _pools */\n      0x02\n      dup3\n      add\n        /* \"SimplePools.sol\":886:26651  contract SimplePools {... */\n      sload\n      0x03\n        /* \"SimplePools.sol\":4948:4968  Pool[] public _pools */\n      dup4\n      add\n        /* \"SimplePools.sol\":886:26651  contract SimplePools {... */\n      sload\n        /* \"SimplePools.sol\":4948:4968  Pool[] public _pools */\n      swap6\n      dup4\n      add\n        /* \"SimplePools.sol\":886:26651  contract SimplePools {... */\n      sload\n      swap6\n      0xff\n        /* \"SimplePools.sol\":4948:4968  Pool[] public _pools */\n      swap7\n      dup8\n      0x05\n      dup7\n      add\n        /* \"SimplePools.sol\":886:26651  contract SimplePools {... */\n      sload\n      and\n        /* \"SimplePools.sol\":4948:4968  Pool[] public _pools */\n      swap2\n      0x06\n      dup7\n      add\n        /* \"SimplePools.sol\":886:26651  contract SimplePools {... */\n      sload\n        /* \"SimplePools.sol\":4948:4968  Pool[] public _pools */\n      swap4\n      dup10\n      0x07\n      dup9\n      add\n        /* \"SimplePools.sol\":886:26651  contract SimplePools {... */\n      sload\n      and\n        /* \"SimplePools.sol\":4948:4968  Pool[] public _pools */\n      swap6\n      dup11\n      0x09\n      0x08\n      dup11\n      add\n        /* \"SimplePools.sol\":886:26651  contract SimplePools {... */\n      sload\n        /* \"SimplePools.sol\":4948:4968  Pool[] public _pools */\n      swap10\n      add\n        /* \"SimplePools.sol\":886:26651  contract SimplePools {... */\n      sload\n      swap11\n      dup14\n      mload\n      dup1\n      swap15\n      sub(shl(0x40, 0x01), 0x01)\n      dup4\n      and\n      dup3\n      mstore\n      dup4\n      dup4\n      dup3\n      shr\n      and\n      iszero\n      iszero\n      0x20\n      dup4\n      add\n      mstore\n      dup13\n      dup4\n      0x48\n      shr\n      and\n      swap2\n      add\n      mstore\n      0xe8\n      shr\n      and\n      iszero\n      iszero\n      0x60\n      dup14\n      add\n      mstore\n      0x80\n      dup13\n      add\n      mstore\n      0xa0\n      dup12\n      add\n      mstore\n      0xc0\n      dup11\n      add\n      mstore\n      0xe0\n      dup10\n      add\n      mstore\n      0x0100\n      dup9\n      add\n      mstore\n      0x0120\n      dup8\n      add\n      mstore\n      iszero\n      iszero\n      0x0140\n      dup7\n      add\n      mstore\n      0x0160\n      dup6\n      add\n      mstore\n      dup2\n      and\n      0x0180\n      dup5\n      add\n      mstore\n      dup2\n      dup2\n      0xa0\n      shr\n      and\n      iszero\n      iszero\n      0x01a0\n      dup5\n      add\n      mstore\n      0xa8\n      shr\n      and\n      iszero\n      iszero\n      0x01c0\n      dup3\n      add\n      mstore\n      return\n    tag_49:\n      pop\n      dup3\n      jumpi(tag_101, callvalue)\n      0x20\n      swap2\n      dup3\n      add(calldatasize, not(0x03))\n      slt\n      tag_148\n      jumpi\n      dup1\n      calldataload\n      swap3\n      sub(shl(0x40, 0x01), 0x01)\n      swap2\n      dup3\n      dup6\n      gt\n      tag_321\n      jumpi\n      calldatasize\n      0x23\n      dup7\n      add\n      slt\n      iszero\n      tag_321\n      jumpi\n      dup5\n      add\n      calldataload\n      swap4\n      tag_323\n      dup6\n      tag_7\n      jump\t// in\n    tag_323:\n      swap5\n      tag_324\n      dup8\n      mload\n      swap7\n      dup8\n      tag_6\n      jump\t// in\n    tag_324:\n      dup1\n      dup7\n      mstore\n      0x24\n      dup4\n      dup8\n      add\n      swap2\n      0x05\n      shl\n      dup4\n      add\n      add\n      swap2\n      calldatasize\n      dup4\n      gt\n      tag_209\n      jumpi\n      0x24\n      add\n      swap1\n    tag_327:\n      dup3\n      dup3\n      lt\n      tag_328\n      jumpi\n      pop\n      pop\n      pop\n      pop\n        /* \"SimplePools.sol\":21855:21881  new Pool[](indexes.length) */\n      tag_330\n        /* \"SimplePools.sol\":886:26651  contract SimplePools {... */\n      dup4\n      mload\n        /* \"SimplePools.sol\":21855:21881  new Pool[](indexes.length) */\n      tag_29\n      jump\t// in\n    tag_330:\n        /* \"SimplePools.sol\":21897:21909  uint64 i = 0 */\n      swap2\n        /* \"SimplePools.sol\":21931:21934  ++i */\n    tag_331:\n        /* \"SimplePools.sol\":886:26651  contract SimplePools {... */\n      dup4\n      mload\n      dup3\n      dup3\n      and\n        /* \"SimplePools.sol\":21911:21929  i < indexes.length */\n      swap1\n      dup2\n      lt\n      iszero\n      tag_332\n      jumpi\n        /* \"SimplePools.sol\":21978:21988  indexes[i] */\n      swap1\n        /* \"SimplePools.sol\":22004:22019  pools[i] = pool */\n      tag_114\n        /* \"SimplePools.sol\":21978:21988  indexes[i] */\n      dup3\n        /* \"SimplePools.sol\":886:26651  contract SimplePools {... */\n      tag_335\n        /* \"SimplePools.sol\":21971:21989  _pools[indexes[i]] */\n      tag_203\n        /* \"SimplePools.sol\":21978:21988  indexes[i] */\n      dup7\n      tag_337\n        /* \"SimplePools.sol\":21931:21934  ++i */\n      tag_338\n        /* \"SimplePools.sol\":21978:21988  indexes[i] */\n      swap8\n      dup12\n      tag_31\n      jump\t// in\n    tag_337:\n        /* \"SimplePools.sol\":886:26651  contract SimplePools {... */\n      mload\n      and\n        /* \"SimplePools.sol\":21971:21989  _pools[indexes[i]] */\n      tag_8\n      jump\t// in\n        /* \"SimplePools.sol\":886:26651  contract SimplePools {... */\n    tag_335:\n        /* \"SimplePools.sol\":22004:22019  pools[i] = pool */\n      tag_339\n      dup3\n      dup9\n      tag_31\n      jump\t// in\n    tag_339:\n      mstore\n      dup6\n      tag_31\n      jump\t// in\n        /* \"SimplePools.sol\":21931:21934  ++i */\n    tag_338:\n        /* \"SimplePools.sol\":21897:21909  uint64 i = 0 */\n      jump(tag_331)\n        /* \"SimplePools.sol\":21911:21929  i < indexes.length */\n    tag_332:\n        /* \"SimplePools.sol\":886:26651  contract SimplePools {... */\n      dup6\n      mload\n      dup1\n      tag_113\n        /* \"SimplePools.sol\":21911:21929  i < indexes.length */\n      dup7\n        /* \"SimplePools.sol\":886:26651  contract SimplePools {... */\n      dup3\n      tag_4\n      jump\t// in\n    tag_328:\n      dup2\n      calldataload\n      dup6\n      dup2\n      and\n      dup2\n      sub\n      tag_341\n      jumpi\n      dup2\n      mstore\n      swap1\n      dup4\n      add\n      swap1\n      dup4\n      add\n      jump(tag_327)\n    tag_341:\n      dup7\n      dup1\n      revert\n    tag_321:\n      dup4\n      dup1\n      revert\n    tag_47:\n      pop\n      pop\n      jumpi(tag_148, callvalue)\n      jumpi(tag_148, slt(add(not(0x03), calldatasize), 0x20))\n      0x20\n      swap1\n      0xff\n        /* \"SimplePools.sol\":19914:19937  _pools[poolId].isLocked */\n      0x09\n        /* \"SimplePools.sol\":19914:19928  _pools[poolId] */\n      tag_347\n        /* \"SimplePools.sol\":886:26651  contract SimplePools {... */\n      tag_348\n      tag_1\n      jump\t// in\n    tag_348:\n        /* \"SimplePools.sol\":19914:19928  _pools[poolId] */\n      tag_8\n      jump\t// in\n    tag_347:\n        /* \"SimplePools.sol\":19914:19937  _pools[poolId].isLocked */\n      pop\n      add\n        /* \"SimplePools.sol\":886:26651  contract SimplePools {... */\n      sload\n      0xa0\n      shr\n      and\n      swap1\n      mload\n      swap1\n      iszero\n      iszero\n      dup2\n      mstore\n      return\n    tag_45:\n      pop\n      pop\n      jumpi(tag_148, callvalue)\n      dup2\n      add(calldatasize, not(0x03))\n      slt\n      tag_148\n      jumpi\n      mload\n        /* \"SimplePools.sol\":25207:25228  address(this).balance */\n      selfbalance\n        /* \"SimplePools.sol\":886:26651  contract SimplePools {... */\n      dup2\n      mstore\n      0x20\n      swap1\n      return\n    tag_43:\n      pop\n      dup3\n      swap1\n      0x20\n      swap1\n      dup2\n      add(calldatasize, not(0x03))\n      slt\n      tag_83\n      jumpi\n      tag_355\n      tag_1\n      jump\t// in\n    tag_355:\n      swap4\n        /* \"SimplePools.sol\":14745:14795  require(_pools.length > poolId, \"invalid pool id\") */\n      tag_356\n        /* \"SimplePools.sol\":886:26651  contract SimplePools {... */\n      dup5\n      sload\n      sub(shl(0x40, 0x01), 0x01)\n      dup8\n      and\n      lt\n        /* \"SimplePools.sol\":14745:14795  require(_pools.length > poolId, \"invalid pool id\") */\n      tag_22\n      jump\t// in\n    tag_356:\n        /* \"SimplePools.sol\":14826:14840  _pools[poolId] */\n      tag_357\n      dup6\n      tag_8\n      jump\t// in\n    tag_357:\n        /* \"SimplePools.sol\":14860:14873  pool.isLocked */\n      pop\n      swap1\n      0x09\n      dup3\n      add\n        /* \"SimplePools.sol\":886:26651  contract SimplePools {... */\n      swap4\n      dup5\n      sload\n        /* \"SimplePools.sol\":14851:14892  require(!pool.isLocked, \"pool is locked\") */\n      tag_358\n        /* \"SimplePools.sol\":886:26651  contract SimplePools {... */\n      0xff\n      dup3\n      0xa0\n      shr\n      and\n        /* \"SimplePools.sol\":14859:14873  !pool.isLocked */\n      iszero\n        /* \"SimplePools.sol\":14851:14892  require(!pool.isLocked, \"pool is locked\") */\n      tag_23\n      jump\t// in\n    tag_358:\n        /* \"SimplePools.sol\":886:26651  contract SimplePools {... */\n      0xff\n      dup2\n      0xa8\n      shr\n      and\n      tag_359\n      jumpi\n      sub(shl(0xa0, 0x01), 0x01)\n      swap1\n        /* \"SimplePools.sol\":14979:14989  msg.sender */\n      caller\n        /* \"SimplePools.sol\":886:26651  contract SimplePools {... */\n      swap1\n      dup3\n      and\n        /* \"SimplePools.sol\":14961:14989  pool.poolOwner == msg.sender */\n      sub\n        /* \"SimplePools.sol\":886:26651  contract SimplePools {... */\n      tag_361\n      jumpi\n        /* \"SimplePools.sol\":15039:15075  _allTransactionsPoolIds.push(poolId) */\n      tag_363\n      dup8\n      swap9\n      swap8\n      swap7\n      swap8\n      tag_13\n      jump\t// in\n    tag_363:\n        /* \"SimplePools.sol\":15086:15153  require(msg.value >= contractTransactionTax, \"lower tax specified\") */\n      tag_364\n        /* \"SimplePools.sol\":886:26651  contract SimplePools {... */\n      sload(0x03)\n        /* \"SimplePools.sol\":15094:15103  msg.value */\n      callvalue\n        /* \"SimplePools.sol\":15094:15129  msg.value >= contractTransactionTax */\n      lt\n      iszero\n        /* \"SimplePools.sol\":15086:15153  require(msg.value >= contractTransactionTax, \"lower tax specified\") */\n      tag_24\n      jump\t// in\n    tag_364:\n        /* \"SimplePools.sol\":886:26651  contract SimplePools {... */\n      dup6\n      dup1\n      dup1\n      dup1\n      dup5\n        /* \"SimplePools.sol\":15164:15177  contractOwner */\n      0x02\n        /* \"SimplePools.sol\":886:26651  contract SimplePools {... */\n      sload\n      and\n        /* \"SimplePools.sol\":15164:15197  contractOwner.transfer(msg.value) */\n      dup2\n        /* \"SimplePools.sol\":15094:15103  msg.value */\n      swap1\n      callvalue\n        /* \"SimplePools.sol\":15164:15197  contractOwner.transfer(msg.value) */\n      iszero\n      tag_365\n      jumpi\n        /* \"SimplePools.sol\":886:26651  contract SimplePools {... */\n    tag_366:\n        /* \"SimplePools.sol\":15094:15103  msg.value */\n      callvalue\n        /* \"SimplePools.sol\":15164:15197  contractOwner.transfer(msg.value) */\n      swap2\n      call\n      iszero\n      tag_373\n      jumpi\n        /* \"SimplePools.sol\":886:26651  contract SimplePools {... */\n      dup4\n      sload\n      dup3\n      dup2\n      dup6\n      shr\n      0xff\n      and\n      iszero\n      tag_369\n      jumpi\n        /* \"SimplePools.sol\":15328:15345  pool.asset1Amount */\n      pop\n      pop\n      dup6\n      dup1\n      dup1\n      dup1\n        /* \"SimplePools.sol\":15164:15177  contractOwner */\n      0x02\n        /* \"SimplePools.sol\":15328:15345  pool.asset1Amount */\n      dup9\n      add\n        /* \"SimplePools.sol\":886:26651  contract SimplePools {... */\n      sload\n        /* \"SimplePools.sol\":15299:15346  payable(msg.sender).transfer(pool.asset1Amount) */\n      dup2\n      dup2\n      iszero\n      tag_371\n      jumpi\n        /* \"SimplePools.sol\":15241:15450  if (pool.isAsset1NativeBlockchainCurrency) {... */\n    tag_372:\n        /* \"SimplePools.sol\":14979:14989  msg.sender */\n      caller\n        /* \"SimplePools.sol\":15299:15346  payable(msg.sender).transfer(pool.asset1Amount) */\n      swap1\n      call\n      iszero\n      tag_373\n      jumpi\n        /* \"SimplePools.sol\":15241:15450  if (pool.isAsset1NativeBlockchainCurrency) {... */\n      dup6\n      swap1\n    tag_375:\n        /* \"SimplePools.sol\":15460:15477  pool.asset1Amount */\n      dup2\n        /* \"SimplePools.sol\":15164:15177  contractOwner */\n      0x02\n        /* \"SimplePools.sol\":15460:15477  pool.asset1Amount */\n      dup7\n      add\n        /* \"SimplePools.sol\":886:26651  contract SimplePools {... */\n      sstore\n      0xff\n      dup6\n      sload\n      0xe8\n      shr\n      and\n        /* \"SimplePools.sol\":15494:15703  if (pool.isAsset2NativeBlockchainCurrency) {... */\n      0x00\n        /* \"SimplePools.sol\":886:26651  contract SimplePools {... */\n      eq\n      tag_376\n      jumpi\n        /* \"SimplePools.sol\":15581:15598  pool.asset2Amount */\n      pop\n      dup1\n      dup1\n      dup1\n      swap4\n      pop\n        /* \"SimplePools.sol\":886:26651  contract SimplePools {... */\n      0x03\n        /* \"SimplePools.sol\":15581:15598  pool.asset2Amount */\n      dup7\n      add\n        /* \"SimplePools.sol\":886:26651  contract SimplePools {... */\n      sload\n        /* \"SimplePools.sol\":15552:15599  payable(msg.sender).transfer(pool.asset2Amount) */\n      dup2\n      dup2\n      iszero\n      tag_378\n      jumpi\n        /* \"SimplePools.sol\":15494:15703  if (pool.isAsset2NativeBlockchainCurrency) {... */\n    tag_379:\n        /* \"SimplePools.sol\":14979:14989  msg.sender */\n      caller\n        /* \"SimplePools.sol\":15552:15599  payable(msg.sender).transfer(pool.asset2Amount) */\n      swap1\n      call\n      iszero\n      tag_380\n      jumpi\n        /* \"SimplePools.sol\":15494:15703  if (pool.isAsset2NativeBlockchainCurrency) {... */\n      pop\n    tag_382:\n        /* \"SimplePools.sol\":886:26651  contract SimplePools {... */\n      0x03\n        /* \"SimplePools.sol\":15713:15730  pool.asset2Amount */\n      dup2\n      add\n        /* \"SimplePools.sol\":886:26651  contract SimplePools {... */\n      dup4\n      swap1\n      sstore\n        /* \"SimplePools.sol\":15745:15776  pool.asset2InitiallyAskedAmount */\n      add\n        /* \"SimplePools.sol\":886:26651  contract SimplePools {... */\n      sstore\n      dup1\n      sload\n      not(shl(0xa8, 0xff))\n      and\n      shl(0xa8, 0x01)\n      or\n      swap1\n      sstore\n      dup1\n      return\n        /* \"SimplePools.sol\":15552:15599  payable(msg.sender).transfer(pool.asset2Amount) */\n    tag_380:\n        /* \"SimplePools.sol\":886:26651  contract SimplePools {... */\n      mload\n      returndatasize\n      dup5\n      dup3\n      returndatacopy\n      returndatasize\n      swap1\n      revert\n        /* \"SimplePools.sol\":15552:15599  payable(msg.sender).transfer(pool.asset2Amount) */\n    tag_378:\n      pop\n      0x08fc\n      jump(tag_379)\n        /* \"SimplePools.sol\":15494:15703  if (pool.isAsset2NativeBlockchainCurrency) {... */\n    tag_376:\n        /* \"SimplePools.sol\":886:26651  contract SimplePools {... */\n      0x01\n        /* \"SimplePools.sol\":15639:15650  pool.asset2 */\n      dup6\n      add\n        /* \"SimplePools.sol\":886:26651  contract SimplePools {... */\n      sload\n      0x03\n        /* \"SimplePools.sol\":15673:15690  pool.asset2Amount */\n      dup7\n      add\n        /* \"SimplePools.sol\":886:26651  contract SimplePools {... */\n      sload\n      dup6\n      mload\n      shl(0xe0, 0xa9059cbb)\n        /* \"SimplePools.sol\":15632:15691  IERC20(pool.asset2).transfer(msg.sender, pool.asset2Amount) */\n      dup2\n      mstore\n        /* \"SimplePools.sol\":14979:14989  msg.sender */\n      caller\n        /* \"SimplePools.sol\":15632:15691  IERC20(pool.asset2).transfer(msg.sender, pool.asset2Amount) */\n      dup10\n      dup3\n      add\n        /* \"SimplePools.sol\":886:26651  contract SimplePools {... */\n      swap1\n      dup2\n      mstore\n      0x20\n      dup2\n      add\n      swap3\n      swap1\n      swap3\n      mstore\n        /* \"SimplePools.sol\":15639:15650  pool.asset2 */\n      swap5\n      swap6\n      swap4\n      dup7\n      swap4\n        /* \"SimplePools.sol\":886:26651  contract SimplePools {... */\n      dup7\n      swap4\n      and\n      swap2\n      dup4\n      swap2\n        /* \"SimplePools.sol\":15639:15650  pool.asset2 */\n      swap1\n        /* \"SimplePools.sol\":886:26651  contract SimplePools {... */\n      dup3\n      swap1\n      0x40\n      add\n        /* \"SimplePools.sol\":15632:15691  IERC20(pool.asset2).transfer(msg.sender, pool.asset2Amount) */\n      sub\n      swap3\n      gas\n      call\n      swap1\n      dup2\n      iszero\n      tag_384\n      jumpi\n      pop\n      tag_386\n      jumpi\n        /* \"SimplePools.sol\":15494:15703  if (pool.isAsset2NativeBlockchainCurrency) {... */\n    tag_387:\n      pop\n      pop\n      jump(tag_382)\n        /* \"SimplePools.sol\":15632:15691  IERC20(pool.asset2).transfer(msg.sender, pool.asset2Amount) */\n    tag_386:\n      dup2\n      tag_388\n      swap3\n      swap1\n      returndatasize\n      lt\n      tag_285\n      jumpi\n      tag_287\n      dup2\n      dup4\n      tag_6\n      jump\t// in\n    tag_388:\n      pop\n      dup6\n      dup1\n      jump(tag_387)\n    tag_384:\n        /* \"SimplePools.sol\":886:26651  contract SimplePools {... */\n      mload\n      returndatasize\n      dup8\n      dup3\n      returndatacopy\n      returndatasize\n      swap1\n      revert\n        /* \"SimplePools.sol\":15299:15346  payable(msg.sender).transfer(pool.asset1Amount) */\n    tag_373:\n        /* \"SimplePools.sol\":886:26651  contract SimplePools {... */\n      dup3\n      mload\n      returndatasize\n      dup8\n      dup3\n      returndatacopy\n      returndatasize\n      swap1\n      revert\n        /* \"SimplePools.sol\":15299:15346  payable(msg.sender).transfer(pool.asset1Amount) */\n    tag_371:\n      pop\n      0x08fc\n      jump(tag_372)\n        /* \"SimplePools.sol\":15241:15450  if (pool.isAsset1NativeBlockchainCurrency) {... */\n    tag_369:\n        /* \"SimplePools.sol\":15164:15177  contractOwner */\n      0x02\n        /* \"SimplePools.sol\":15420:15437  pool.asset1Amount */\n      dup7\n      add\n        /* \"SimplePools.sol\":886:26651  contract SimplePools {... */\n      sload\n      dup6\n      mload\n      shl(0xe0, 0xa9059cbb)\n        /* \"SimplePools.sol\":15379:15438  IERC20(pool.asset1).transfer(msg.sender, pool.asset1Amount) */\n      dup2\n      mstore\n        /* \"SimplePools.sol\":14979:14989  msg.sender */\n      caller\n        /* \"SimplePools.sol\":15379:15438  IERC20(pool.asset1).transfer(msg.sender, pool.asset1Amount) */\n      dup10\n      dup3\n      add\n        /* \"SimplePools.sol\":886:26651  contract SimplePools {... */\n      swap1\n      dup2\n      mstore\n      0x20\n      dup2\n      add\n      swap3\n      swap1\n      swap3\n      mstore\n      swap3\n      dup4\n      swap2\n        /* \"SimplePools.sol\":15379:15438  IERC20(pool.asset1).transfer(msg.sender, pool.asset1Amount) */\n      dup3\n      swap1\n      sub\n        /* \"SimplePools.sol\":886:26651  contract SimplePools {... */\n      0x40\n        /* \"SimplePools.sol\":15379:15438  IERC20(pool.asset1).transfer(msg.sender, pool.asset1Amount) */\n      add\n      swap1\n        /* \"SimplePools.sol\":886:26651  contract SimplePools {... */\n      dup3\n      swap1\n      dup12\n      swap1\n      0x48\n      shr\n      dup8\n      and\n        /* \"SimplePools.sol\":15379:15438  IERC20(pool.asset1).transfer(msg.sender, pool.asset1Amount) */\n      gas\n      call\n      dup1\n      iszero\n      tag_393\n      jumpi\n      swap1\n      dup8\n      swap3\n      swap2\n      tag_395\n      jumpi\n        /* \"SimplePools.sol\":15241:15450  if (pool.isAsset1NativeBlockchainCurrency) {... */\n    tag_396:\n      pop\n      jump(tag_375)\n        /* \"SimplePools.sol\":15379:15438  IERC20(pool.asset1).transfer(msg.sender, pool.asset1Amount) */\n    tag_395:\n      tag_397\n      swap1\n      dup5\n      returndatasize\n      dup7\n      gt\n      tag_285\n      jumpi\n      tag_287\n      dup2\n      dup4\n      tag_6\n      jump\t// in\n    tag_397:\n      pop\n      dup10\n      jump(tag_396)\n    tag_393:\n        /* \"SimplePools.sol\":886:26651  contract SimplePools {... */\n      dup5\n      mload\n      returndatasize\n      dup10\n      dup3\n      returndatacopy\n      returndatasize\n      swap1\n      revert\n        /* \"SimplePools.sol\":15164:15197  contractOwner.transfer(msg.value) */\n    tag_365:\n      0x08fc\n      swap2\n      pop\n      jump(tag_366)\n        /* \"SimplePools.sol\":886:26651  contract SimplePools {... */\n    tag_361:\n      dup3\n      mload\n      shl(0xe5, 0x461bcd)\n      dup2\n      mstore\n      dup1\n      dup7\n      add\n      dup4\n      swap1\n      mstore\n      0x22\n      0x24\n      dup3\n      add\n      mstore\n      0x6f6e6c792074686520706f6f6c206f776e65722063616e20656d70747920706f\n      0x44\n      dup3\n      add\n      mstore\n      shl(0xf2, 0x1bdb)\n      0x64\n      dup3\n      add\n      mstore\n      0x84\n      swap1\n      revert\n    tag_359:\n      dup3\n      mload\n      shl(0xe5, 0x461bcd)\n      dup2\n      mstore\n      dup1\n      dup7\n      add\n      dup4\n      swap1\n      mstore\n      0x0d\n      0x24\n      dup3\n      add\n      mstore\n      shl(0x98, 0x706f6f6c20697320656d707479)\n      0x44\n      dup3\n      add\n      mstore\n      0x64\n      swap1\n      revert\n    tag_41:\n      dup3\n      dup5\n      jumpi(tag_101, callvalue)\n      jumpi(tag_101, slt(add(not(0x03), calldatasize), 0x20))\n      tag_405\n      tag_1\n      jump\t// in\n    tag_405:\n      swap1\n      sload\n      sub(shl(0x40, 0x01), 0x01)\n      swap2\n        /* \"SimplePools.sol\":21315:21357  new Pool[](_pools.length - startPoolIndex) */\n      tag_406\n        /* \"SimplePools.sol\":21326:21356  _pools.length - startPoolIndex */\n      tag_407\n        /* \"SimplePools.sol\":886:26651  contract SimplePools {... */\n      dup5\n      dup4\n      and\n        /* \"SimplePools.sol\":21227:21283  require(startPoolIndex < _pools.length, \"invalid index\") */\n      tag_408\n        /* \"SimplePools.sol\":21235:21265  startPoolIndex < _pools.length */\n      dup6\n      dup3\n      lt\n        /* \"SimplePools.sol\":21227:21283  require(startPoolIndex < _pools.length, \"invalid index\") */\n      tag_33\n      jump\t// in\n    tag_408:\n        /* \"SimplePools.sol\":21326:21356  _pools.length - startPoolIndex */\n      dup5\n      tag_16\n      jump\t// in\n    tag_407:\n        /* \"SimplePools.sol\":21315:21357  new Pool[](_pools.length - startPoolIndex) */\n      tag_29\n      jump\t// in\n    tag_406:\n        /* \"SimplePools.sol\":21372:21397  uint64 i = startPoolIndex */\n      swap3\n      dup2\n        /* \"SimplePools.sol\":21399:21416  i < _pools.length */\n    tag_409:\n        /* \"SimplePools.sol\":886:26651  contract SimplePools {... */\n      dup4\n      dup3\n      dup3\n      and\n        /* \"SimplePools.sol\":21399:21416  i < _pools.length */\n      lt\n      tag_410\n      jumpi\n        /* \"SimplePools.sol\":886:26651  contract SimplePools {... */\n      dup6\n      mload\n      dup1\n      tag_113\n      dup8\n      dup3\n      tag_4\n      jump\t// in\n        /* \"SimplePools.sol\":21418:21421  ++i */\n    tag_410:\n        /* \"SimplePools.sol\":21466:21475  _pools[i] */\n      dup1\n        /* \"SimplePools.sol\":21438:21475  pools[i - startPoolIndex] = _pools[i] */\n      tag_114\n        /* \"SimplePools.sol\":21466:21475  _pools[i] */\n      tag_115\n        /* \"SimplePools.sol\":21418:21421  ++i */\n      tag_415\n        /* \"SimplePools.sol\":21466:21475  _pools[i] */\n      swap4\n      tag_8\n      jump\t// in\n        /* \"SimplePools.sol\":21418:21421  ++i */\n    tag_415:\n        /* \"SimplePools.sol\":21372:21397  uint64 i = startPoolIndex */\n      jump(tag_409)\n        /* \"SimplePools.sol\":886:26651  contract SimplePools {... */\n    tag_1:\n      calldataload(0x04)\n      swap1\n      sub(shl(0x40, 0x01), 0x01)\n      dup3\n      and\n      dup3\n      sub\n      tag_419\n      jumpi\n      jump\t// out\n    tag_419:\n      0x00\n      dup1\n      revert\n    tag_2:\n      calldataload(0x24)\n      swap1\n      sub(shl(0x40, 0x01), 0x01)\n      dup3\n      and\n      dup3\n      sub\n      tag_419\n      jumpi\n      jump\t// out\n    tag_3:\n      sub(shl(0x40, 0x01), 0x01)\n      dup2\n      mload\n      and\n      dup3\n      mstore\n      0x20\n      dup2\n      add\n      mload\n      iszero\n      iszero\n      0x20\n      dup4\n      add\n      mstore\n      0x01\n      dup1\n      0xa0\n      shl\n      sub\n      dup1\n      0x40\n      dup4\n      add\n      mload\n      and\n      0x40\n      dup5\n      add\n      mstore\n      0x60\n      dup3\n      add\n      mload\n      iszero\n      iszero\n      0x60\n      dup5\n      add\n      mstore\n      dup1\n      0x80\n      dup4\n      add\n      mload\n      and\n      0x80\n      dup5\n      add\n      mstore\n      0xa0\n      dup3\n      add\n      mload\n      0xa0\n      dup5\n      add\n      mstore\n      0xc0\n      dup3\n      add\n      mload\n      0xc0\n      dup5\n      add\n      mstore\n      0xe0\n      dup3\n      add\n      mload\n      0xe0\n      dup5\n      add\n      mstore\n      0x0100\n      0xff\n      dup2\n      dup5\n      add\n      mload\n      and\n      swap1\n      dup5\n      add\n      mstore\n      0x0120\n      dup1\n      dup4\n      add\n      mload\n      swap1\n      dup5\n      add\n      mstore\n      0x0140\n      dup1\n      dup4\n      add\n      mload\n      iszero\n      iszero\n      swap1\n      dup5\n      add\n      mstore\n      0x0160\n      dup1\n      dup4\n      add\n      mload\n      swap1\n      dup5\n      add\n      mstore\n      0x0180\n      swap1\n      dup2\n      dup4\n      add\n      mload\n      and\n      swap1\n      dup4\n      add\n      mstore\n      0x01a0\n      dup1\n      dup3\n      add\n      mload\n      iszero\n      iszero\n      swap1\n      dup4\n      add\n      mstore\n      0x01c0\n      dup1\n      swap2\n      add\n      mload\n      iszero\n      iszero\n      swap2\n      add\n      mstore\n      jump\t// out\n    tag_4:\n      0x20\n      swap1\n      dup2\n      0x40\n      dup2\n      dup4\n      add\n      swap3\n      dup3\n      dup2\n      mstore\n      dup6\n      mload\n      dup1\n      swap5\n      mstore\n      add\n      swap4\n      add\n      swap2\n      0x00\n    tag_423:\n      dup3\n      dup2\n      lt\n      tag_424\n      jumpi\n      pop\n      pop\n      pop\n      pop\n      swap1\n      jump\t// out\n    tag_424:\n      swap1\n      swap2\n      swap3\n      swap4\n      dup3\n      0x01e0\n      dup3\n      tag_426\n      0x01\n      swap5\n      dup10\n      mload\n      tag_3\n      jump\t// in\n    tag_426:\n      add\n      swap6\n      add\n      swap4\n      swap3\n      swap2\n      add\n      jump(tag_423)\n    tag_5:\n      0x01e0\n      dup2\n      add\n      swap1\n      dup2\n      lt\n      sub(shl(0x40, 0x01), 0x01)\n      dup3\n      gt\n      or\n      tag_427\n      jumpi\n      0x40\n      mstore\n      jump\t// out\n    tag_427:\n      mstore(0x00, shl(0xe0, 0x4e487b71))\n      mstore(0x04, 0x41)\n      revert(0x00, 0x24)\n    tag_6:\n      swap1\n      0x1f\n      dup1\n      not\n      swap2\n      add\n      and\n      dup2\n      add\n      swap1\n      dup2\n      lt\n      sub(shl(0x40, 0x01), 0x01)\n      dup3\n      gt\n      or\n      tag_427\n      jumpi\n      0x40\n      mstore\n      jump\t// out\n    tag_7:\n      sub(shl(0x40, 0x01), 0x01)\n      dup2\n      gt\n      tag_427\n      jumpi\n      0x05\n      shl\n      0x20\n      add\n      swap1\n      jump\t// out\n    tag_8:\n      swap1\n      0x00\n      swap2\n      dup3\n      sload\n      dup2\n      lt\n      iszero\n      tag_433\n      jumpi\n      0x0a\n      swap1\n      dup4\n      dup1\n      mstore\n      mul\n      0x290decd9548b62a8d60345a988386fc84ba6bc95484008f6362f93160ef3e563\n      add\n      swap2\n      swap1\n      jump\t// out\n    tag_433:\n      shl(0xe0, 0x4e487b71)\n      dup4\n      mstore\n      mstore(0x04, 0x32)\n      0x24\n      dup4\n      revert\n    tag_9:\n      0x20\n      swap1\n      dup2\n      0x40\n      dup2\n      dup4\n      add\n      swap3\n      dup3\n      dup2\n      mstore\n      dup6\n      mload\n      dup1\n      swap5\n      mstore\n      add\n      swap4\n      add\n      swap2\n      0x00\n    tag_435:\n      dup3\n      dup2\n      lt\n      tag_436\n      jumpi\n      pop\n      pop\n      pop\n      pop\n      swap1\n      jump\t// out\n    tag_436:\n      dup4\n      mload\n      sub(shl(0x40, 0x01), 0x01)\n      and\n      dup6\n      mstore\n      swap4\n      dup2\n      add\n      swap4\n      swap3\n      dup2\n      add\n      swap3\n      0x01\n      add\n      jump(tag_435)\n    tag_10:\n      calldataload(0x04)\n      swap1\n      sub(shl(0xa0, 0x01), 0x01)\n      dup3\n      and\n      dup3\n      sub\n      tag_419\n      jumpi\n      jump\t// out\n    tag_11:\n      swap2\n      swap1\n      dup3\n      add\n      dup1\n      swap3\n      gt\n      tag_440\n      jumpi\n      jump\t// out\n    tag_440:\n      mstore(0x00, shl(0xe0, 0x4e487b71))\n      mstore(0x04, 0x11)\n      revert(0x00, 0x24)\n    tag_12:\n      swap1\n        /* \"SimplePools.sol\":24158:24181  _allTransactionsPoolIds */\n      0x01\n        /* \"SimplePools.sol\":886:26651  contract SimplePools {... */\n      sload\n      dup3\n      lt\n      iszero\n      tag_442\n      jumpi\n        /* \"SimplePools.sol\":24158:24181  _allTransactionsPoolIds */\n      0x01\n      0x00\n        /* \"SimplePools.sol\":886:26651  contract SimplePools {... */\n      mstore\n      0x18\n      dup3\n      0x02\n      shr\n      0xb10e2d527612073b26eecdfd717e6a320cf44b4afac2b0732d9fcbe2b7fa0cf6\n      add\n      swap3\n      0x03\n      shl\n      and\n      swap1\n      jump\t// out\n    tag_442:\n      mstore(0x00, shl(0xe0, 0x4e487b71))\n      mstore(0x04, 0x32)\n      revert(0x00, 0x24)\n    tag_13:\n        /* \"SimplePools.sol\":15039:15062  _allTransactionsPoolIds */\n      0x01\n        /* \"SimplePools.sol\":886:26651  contract SimplePools {... */\n      sload\n      shl(0x40, 0x01)\n      dup2\n      lt\n      iszero\n      tag_427\n      jumpi\n      dup1\n        /* \"SimplePools.sol\":15039:15062  _allTransactionsPoolIds */\n      0x01\n        /* \"SimplePools.sol\":886:26651  contract SimplePools {... */\n      tag_446\n      swap3\n      add\n        /* \"SimplePools.sol\":15039:15062  _allTransactionsPoolIds */\n      0x01\n        /* \"SimplePools.sol\":886:26651  contract SimplePools {... */\n      sstore\n      tag_12\n      jump\t// in\n    tag_446:\n      dup2\n      swap3\n      swap2\n      sload\n      swap1\n      0x03\n      shl\n      swap2\n      sub(shl(0x40, 0x01), 0x01)\n      swap3\n      dup4\n      dup2\n      shl\n      swap4\n      dup5\n      swap3\n      and\n      swap1\n      shl\n      and\n      swap2\n      not\n      and\n      or\n      swap1\n      sstore\n      jump\t// out\n    tag_14:\n      swap1\n      dup2\n      0x20\n      swap2\n      sub\n      slt\n      tag_419\n      jumpi\n      mload\n      dup1\n      iszero\n      iszero\n      dup2\n      sub\n      tag_419\n      jumpi\n      swap1\n      jump\t// out\n    tag_16:\n      swap2\n      swap1\n      dup3\n      sub\n      swap2\n      dup3\n      gt\n      tag_440\n      jumpi\n      jump\t// out\n    tag_17:\n      dup2\n      dup2\n      mul\n      swap3\n      swap2\n      dup2\n      iszero\n      swap2\n      dup5\n      div\n      eq\n      or\n      iszero\n      tag_440\n      jumpi\n      jump\t// out\n    tag_18:\n      dup2\n      iszero\n      tag_455\n      jumpi\n      div\n      swap1\n      jump\t// out\n    tag_455:\n      mstore(0x00, shl(0xe0, 0x4e487b71))\n      mstore(0x04, 0x12)\n      revert(0x00, 0x24)\n    tag_19:\n      iszero\n      tag_457\n      jumpi\n      jump\t// out\n    tag_457:\n      mload(0x40)\n      shl(0xe5, 0x461bcd)\n      dup2\n      mstore\n      0x20\n      0x04\n      dup3\n      add\n      mstore\n      0x17\n      0x24\n      dup3\n      add\n      mstore\n      0x6c6f776572207472616e73616374696f6e2076616c7565000000000000000000\n      0x44\n      dup3\n      add\n      mstore\n      0x64\n      swap1\n      revert\n        /* \"SimplePools.sol\":9387:14458  function exchangeAsset(... */\n    tag_21:\n      swap3\n      swap1\n      swap3\n        /* \"SimplePools.sol\":9654:9660  _pools */\n      0x00\n        /* \"SimplePools.sol\":886:26651  contract SimplePools {... */\n      swap1\n      dup2\n      sload\n      dup1\n      sub(shl(0x40, 0x01), 0x01)\n      dup8\n      and\n        /* \"SimplePools.sol\":9645:9667  poolId < _pools.length */\n      lt\n        /* \"SimplePools.sol\":886:26651  contract SimplePools {... */\n      iszero\n      tag_459\n      jumpi\n      dup6\n      lt\n      iszero\n      tag_461\n      jumpi\n      dup2\n      dup1\n      mstore\n      0x0a\n      dup6\n      mul\n      swap5\n      dup6\n      0x290decd9548b62a8d60345a988386fc84ba6bc95484008f6362f93160ef3e563\n      add\n        /* \"SimplePools.sol\":9751:9763  pool.isEmpty */\n      0x290decd9548b62a8d60345a988386fc84ba6bc95484008f6362f93160ef3e56c\n      dup8\n      add\n        /* \"SimplePools.sol\":886:26651  contract SimplePools {... */\n      swap6\n      0xff\n      swap3\n      dup4\n      dup9\n      sload\n      0xa8\n      shr\n      and\n      tag_463\n      jumpi\n        /* \"SimplePools.sol\":9792:9828  _allTransactionsPoolIds.push(poolId) */\n      tag_465\n      swap1\n      tag_13\n      jump\t// in\n    tag_465:\n        /* \"SimplePools.sol\":9841:14451  if (isBuyingAsset1) {... */\n      iszero\n      tag_466\n      jumpi\n        /* \"SimplePools.sol\":9912:9932  pool.isConstantPrice */\n      0x290decd9548b62a8d60345a988386fc84ba6bc95484008f6362f93160ef3e56a\n      dup8\n      add\n        /* \"SimplePools.sol\":886:26651  contract SimplePools {... */\n      sload\n      dup3\n      and\n      iszero\n      tag_468\n      jumpi\n        /* \"SimplePools.sol\":10057:10139  Math.mulDiv(sellAmount, pool.initialAsset1Amount, pool.asset2InitiallyAskedAmount) */\n      tag_470\n        /* \"SimplePools.sol\":10081:10105  pool.initialAsset1Amount */\n      0x290decd9548b62a8d60345a988386fc84ba6bc95484008f6362f93160ef3e56b\n      dup9\n      add\n        /* \"SimplePools.sol\":886:26651  contract SimplePools {... */\n      sload\n      0x00\n      dup1\n      mload\n      0x20\n      data_9c418048a637d1641c6d732dd38174732bbf7b47a1cf6d5f65895384518b07d9\n      dup4\n      codecopy\n      dup2\n      mload\n      swap2\n      mstore\n        /* \"SimplePools.sol\":10107:10138  pool.asset2InitiallyAskedAmount */\n      dup10\n      add\n        /* \"SimplePools.sol\":886:26651  contract SimplePools {... */\n      sload\n        /* \"SimplePools.sol\":10057:10139  Math.mulDiv(sellAmount, pool.initialAsset1Amount, pool.asset2InitiallyAskedAmount) */\n      swap1\n      dup8\n      tag_36\n      jump\t// in\n    tag_470:\n        /* \"SimplePools.sol\":9908:10448  if (pool.isConstantPrice) {... */\n      swap6\n    tag_471:\n      0x00\n      dup1\n      mload\n      0x20\n      data_63d75db57ae45c3799740c3cd8dcee96a498324843d79ae390adc81d74b52f13\n      dup4\n      codecopy\n      dup2\n      mload\n      swap2\n      mstore\n        /* \"SimplePools.sol\":10602:10619  pool.asset1Amount */\n      dup9\n      add\n        /* \"SimplePools.sol\":886:26651  contract SimplePools {... */\n      swap7\n        /* \"SimplePools.sol\":10590:10665  Math.mulDiv(pool.asset1Amount, pool.maxBuyAsset1PercentPerTransaction, 100) */\n      tag_472\n        /* \"SimplePools.sol\":886:26651  contract SimplePools {... */\n      dup9\n      sload\n        /* \"SimplePools.sol\":10621:10659  pool.maxBuyAsset1PercentPerTransaction */\n      dup6\n      0x290decd9548b62a8d60345a988386fc84ba6bc95484008f6362f93160ef3e568\n      dup13\n      add\n        /* \"SimplePools.sol\":886:26651  contract SimplePools {... */\n      sload\n      and\n        /* \"SimplePools.sol\":10590:10665  Math.mulDiv(pool.asset1Amount, pool.maxBuyAsset1PercentPerTransaction, 100) */\n      swap1\n      tag_35\n      jump\t// in\n    tag_472:\n        /* \"SimplePools.sol\":27039:27044  a < b */\n      dup1\n      dup3\n      lt\n      iszero\n      tag_473\n      jumpi\n        /* \"SimplePools.sol\":27039:27052  a < b ? a : b */\n      pop\n      dup1\n      swap10\n    tag_475:\n        /* \"SimplePools.sol\":10689:10728  minReceiveAssetToBuyAmount <= amountOut */\n      gt\n        /* \"SimplePools.sol\":886:26651  contract SimplePools {... */\n      tag_476\n      jumpi\n        /* \"SimplePools.sol\":10900:10922  contractTransactionTax */\n      0x03\n        /* \"SimplePools.sol\":886:26651  contract SimplePools {... */\n      sload\n      swap1\n      dup2\n        /* \"SimplePools.sol\":9792:9815  _allTransactionsPoolIds */\n      0x01\n        /* \"SimplePools.sol\":886:26651  contract SimplePools {... */\n      shr\n      swap2\n      dup5\n      dup5\n      sload\n      0xe8\n      shr\n      and\n        /* \"SimplePools.sol\":10941:11651  if (pool.isAsset2NativeBlockchainCurrency) {... */\n      0x00\n        /* \"SimplePools.sol\":886:26651  contract SimplePools {... */\n      eq\n      tag_478\n      jumpi\n      pop\n        /* \"SimplePools.sol\":11003:11087  require(msg.value >= sellAmount + contractTransactionTax, \"lower transaction value\") */\n      tag_480\n        /* \"SimplePools.sol\":11024:11059  sellAmount + contractTransactionTax */\n      tag_481\n        /* \"SimplePools.sol\":10900:10922  contractTransactionTax */\n      0x03\n        /* \"SimplePools.sol\":886:26651  contract SimplePools {... */\n      sload\n        /* \"SimplePools.sol\":11024:11059  sellAmount + contractTransactionTax */\n      dup10\n      tag_11\n      jump\t// in\n    tag_481:\n        /* \"SimplePools.sol\":11011:11020  msg.value */\n      callvalue\n        /* \"SimplePools.sol\":11011:11059  msg.value >= sellAmount + contractTransactionTax */\n      lt\n      iszero\n        /* \"SimplePools.sol\":11003:11087  require(msg.value >= sellAmount + contractTransactionTax, \"lower transaction value\") */\n      tag_19\n      jump\t// in\n    tag_480:\n        /* \"SimplePools.sol\":11106:11140  payable(this).transfer(sellAmount) */\n      dup6\n      dup1\n      dup9\n      dup1\n      iszero\n      tag_482\n      jumpi\n        /* \"SimplePools.sol\":10941:11651  if (pool.isAsset2NativeBlockchainCurrency) {... */\n    tag_483:\n        /* \"SimplePools.sol\":11114:11118  this */\n      dup3\n      dup1\n      swap3\n      swap2\n      dup2\n      swap3\n      address\n        /* \"SimplePools.sol\":11106:11140  payable(this).transfer(sellAmount) */\n      swap1\n      call\n      iszero\n      tag_488\n      jumpi\n        /* \"SimplePools.sol\":886:26651  contract SimplePools {... */\n      dup6\n      dup1\n      dup1\n      dup1\n      dup6\n      0x01\n      dup1\n      0xa0\n      shl\n      sub\n      dup1\n      swap7\n      sload\n      and\n        /* \"SimplePools.sol\":11185:11220  pool.poolOwner.transfer(taxDivided) */\n      dup3\n      dup3\n      iszero\n      tag_486\n      jumpi\n        /* \"SimplePools.sol\":10941:11651  if (pool.isAsset2NativeBlockchainCurrency) {... */\n    tag_487:\n        /* \"SimplePools.sol\":11185:11220  pool.poolOwner.transfer(taxDivided) */\n      call\n      iszero\n      tag_488\n      jumpi\n        /* \"SimplePools.sol\":886:26651  contract SimplePools {... */\n      dup6\n      dup1\n      dup1\n      swap4\n        /* \"SimplePools.sol\":11262:11297  msg.value - sellAmount - taxDivided */\n      tag_490\n        /* \"SimplePools.sol\":886:26651  contract SimplePools {... */\n      dup3\n      swap5\n        /* \"SimplePools.sol\":10602:10619  pool.asset1Amount */\n      0x02\n        /* \"SimplePools.sol\":886:26651  contract SimplePools {... */\n      sload\n      and\n        /* \"SimplePools.sol\":11011:11020  msg.value */\n      swap2\n        /* \"SimplePools.sol\":11262:11284  msg.value - sellAmount */\n      tag_491\n        /* \"SimplePools.sol\":11011:11020  msg.value */\n      dup13\n      callvalue\n        /* \"SimplePools.sol\":11262:11284  msg.value - sellAmount */\n      tag_16\n      jump\t// in\n    tag_491:\n        /* \"SimplePools.sol\":11262:11297  msg.value - sellAmount - taxDivided */\n      tag_16\n      jump\t// in\n    tag_490:\n        /* \"SimplePools.sol\":11239:11298  contractOwner.transfer(msg.value - sellAmount - taxDivided) */\n      swap1\n      dup3\n      dup3\n      iszero\n      tag_492\n      jumpi\n        /* \"SimplePools.sol\":10941:11651  if (pool.isAsset2NativeBlockchainCurrency) {... */\n    tag_493:\n        /* \"SimplePools.sol\":11239:11298  contractOwner.transfer(msg.value - sellAmount - taxDivided) */\n      call\n      iszero\n      tag_494\n      jumpi\n        /* \"SimplePools.sol\":10941:11651  if (pool.isAsset2NativeBlockchainCurrency) {... */\n      swap1\n      dup8\n      swap4\n      swap3\n      swap2\n    tag_496:\n        /* \"SimplePools.sol\":11665:11696  pool.asset2Amount += sellAmount */\n      tag_497\n        /* \"SimplePools.sol\":11665:11682  pool.asset2Amount */\n      0x290decd9548b62a8d60345a988386fc84ba6bc95484008f6362f93160ef3e566\n      dup10\n      add\n        /* \"SimplePools.sol\":886:26651  contract SimplePools {... */\n      swap7\n      dup8\n      sload\n        /* \"SimplePools.sol\":11665:11696  pool.asset2Amount += sellAmount */\n      tag_11\n      jump\t// in\n    tag_497:\n        /* \"SimplePools.sol\":886:26651  contract SimplePools {... */\n      dup7\n      sstore\n      sload\n      swap1\n      dup2\n      0x40\n      shr\n      and\n        /* \"SimplePools.sol\":11757:11998  if (pool.isAsset1NativeBlockchainCurrency) {... */\n      0x00\n        /* \"SimplePools.sol\":886:26651  contract SimplePools {... */\n      eq\n      tag_498\n      jumpi\n        /* \"SimplePools.sol\":11819:11874  payable(personExecutingTheExchange).transfer(amountOut) */\n      pop\n      dup2\n      dup1\n      dup1\n      swap5\n      dup2\n      swap4\n      dup3\n      swap1\n      dup3\n      iszero\n      tag_500\n      jumpi\n        /* \"SimplePools.sol\":11757:11998  if (pool.isAsset1NativeBlockchainCurrency) {... */\n    tag_501:\n      sub(shl(0xa0, 0x01), 0x01)\n        /* \"SimplePools.sol\":886:26651  contract SimplePools {... */\n      and\n      swap1\n        /* \"SimplePools.sol\":11819:11874  payable(personExecutingTheExchange).transfer(amountOut) */\n      call\n      iszero\n      tag_502\n      jumpi\n        /* \"SimplePools.sol\":11757:11998  if (pool.isAsset1NativeBlockchainCurrency) {... */\n      pop\n      0x00\n      dup1\n      mload\n      0x20\n      data_aaab8540682e3a537d17674663ea013e92c83fdd69958f314b4521edb3b76f1a\n      dup4\n      codecopy\n      dup2\n      mload\n      swap2\n      mstore\n      swap2\n        /* \"SimplePools.sol\":12105:12156  pool.asset2Amount + pool.asset2InitiallyAskedAmount */\n      tag_504\n        /* \"SimplePools.sol\":12082:12157  (pool.asset1Amount) * (pool.asset2Amount + pool.asset2InitiallyAskedAmount) */\n      tag_505\n        /* \"SimplePools.sol\":11757:11998  if (pool.isAsset1NativeBlockchainCurrency) {... */\n      swap3\n    tag_506:\n        /* \"SimplePools.sol\":12012:12042  pool.asset1Amount -= amountOut */\n      tag_507\n        /* \"SimplePools.sol\":886:26651  contract SimplePools {... */\n      dup8\n      dup5\n      sload\n        /* \"SimplePools.sol\":12012:12042  pool.asset1Amount -= amountOut */\n      tag_16\n      jump\t// in\n    tag_507:\n        /* \"SimplePools.sol\":886:26651  contract SimplePools {... */\n      dup1\n      swap4\n      sstore\n      sload\n      0x00\n      dup1\n      mload\n      0x20\n      data_9c418048a637d1641c6d732dd38174732bbf7b47a1cf6d5f65895384518b07d9\n      dup4\n      codecopy\n      dup2\n      mload\n      swap2\n      mstore\n        /* \"SimplePools.sol\":12125:12156  pool.asset2InitiallyAskedAmount */\n      dup7\n      add\n        /* \"SimplePools.sol\":886:26651  contract SimplePools {... */\n      sload\n        /* \"SimplePools.sol\":12105:12156  pool.asset2Amount + pool.asset2InitiallyAskedAmount */\n      swap1\n      tag_11\n      jump\t// in\n    tag_504:\n        /* \"SimplePools.sol\":12082:12157  (pool.asset1Amount) * (pool.asset2Amount + pool.asset2InitiallyAskedAmount) */\n      swap1\n      tag_17\n      jump\t// in\n    tag_505:\n        /* \"SimplePools.sol\":12059:12079  pool.constantProduct */\n      swap2\n      add\n        /* \"SimplePools.sol\":886:26651  contract SimplePools {... */\n      sstore\n        /* \"SimplePools.sol\":12172:12188  return amountOut */\n      swap1\n      jump\t// out\n        /* \"SimplePools.sol\":11819:11874  payable(personExecutingTheExchange).transfer(amountOut) */\n    tag_502:\n        /* \"SimplePools.sol\":886:26651  contract SimplePools {... */\n      mload(0x40)\n      swap1\n      returndatasize\n      swap1\n      dup3\n      returndatacopy\n      returndatasize\n      swap1\n      revert\n        /* \"SimplePools.sol\":11819:11874  payable(personExecutingTheExchange).transfer(amountOut) */\n    tag_500:\n      0x08fc\n      swap2\n      pop\n      jump(tag_501)\n        /* \"SimplePools.sol\":11757:11998  if (pool.isAsset1NativeBlockchainCurrency) {... */\n    tag_498:\n        /* \"SimplePools.sol\":886:26651  contract SimplePools {... */\n      mload(0x40)\n      shl(0xe0, 0xa9059cbb)\n        /* \"SimplePools.sol\":11915:11982  IERC20(pool.asset1).transfer(personExecutingTheExchange, amountOut) */\n      dup2\n      mstore\n      sub(shl(0xa0, 0x01), 0x01)\n        /* \"SimplePools.sol\":886:26651  contract SimplePools {... */\n      swap3\n      dup4\n      and\n        /* \"SimplePools.sol\":11915:11982  IERC20(pool.asset1).transfer(personExecutingTheExchange, amountOut) */\n      0x04\n      dup3\n      add\n        /* \"SimplePools.sol\":886:26651  contract SimplePools {... */\n      mstore\n      0x24\n      dup2\n      add\n      swap5\n      swap1\n      swap5\n      mstore\n        /* \"SimplePools.sol\":11915:11982  IERC20(pool.asset1).transfer(personExecutingTheExchange, amountOut) */\n      0x20\n      swap2\n        /* \"SimplePools.sol\":886:26651  contract SimplePools {... */\n      dup5\n      swap2\n      0x44\n      swap2\n      dup4\n      swap2\n      dup7\n      swap2\n      0x48\n      swap2\n      swap1\n      swap2\n      shr\n      and\n        /* \"SimplePools.sol\":11915:11982  IERC20(pool.asset1).transfer(personExecutingTheExchange, amountOut) */\n      gas\n      call\n      swap1\n      dup2\n      iszero\n      tag_502\n      jumpi\n      pop\n        /* \"SimplePools.sol\":12082:12157  (pool.asset1Amount) * (pool.asset2Amount + pool.asset2InitiallyAskedAmount) */\n      tag_505\n        /* \"SimplePools.sol\":11915:11982  IERC20(pool.asset1).transfer(personExecutingTheExchange, amountOut) */\n      swap3\n      0x00\n      dup1\n      mload\n      0x20\n      data_aaab8540682e3a537d17674663ea013e92c83fdd69958f314b4521edb3b76f1a\n      dup4\n      codecopy\n      dup2\n      mload\n      swap2\n      mstore\n      swap5\n      swap3\n        /* \"SimplePools.sol\":12105:12156  pool.asset2Amount + pool.asset2InitiallyAskedAmount */\n      tag_504\n        /* \"SimplePools.sol\":11915:11982  IERC20(pool.asset1).transfer(personExecutingTheExchange, amountOut) */\n      swap3\n      tag_511\n      jumpi\n        /* \"SimplePools.sol\":11757:11998  if (pool.isAsset1NativeBlockchainCurrency) {... */\n    tag_512:\n      pop\n      jump(tag_506)\n        /* \"SimplePools.sol\":11915:11982  IERC20(pool.asset1).transfer(personExecutingTheExchange, amountOut) */\n    tag_511:\n      tag_513\n      swap1\n      0x20\n      returndatasize\n      dup2\n      gt\n      tag_285\n      jumpi\n      tag_287\n      dup2\n      dup4\n      tag_6\n      jump\t// in\n    tag_513:\n      pop\n      codesize\n      jump(tag_512)\n        /* \"SimplePools.sol\":11239:11298  contractOwner.transfer(msg.value - sellAmount - taxDivided) */\n    tag_494:\n        /* \"SimplePools.sol\":886:26651  contract SimplePools {... */\n      mload(0x40)\n      returndatasize\n      dup6\n      dup3\n      returndatacopy\n      returndatasize\n      swap1\n      revert\n        /* \"SimplePools.sol\":11239:11298  contractOwner.transfer(msg.value - sellAmount - taxDivided) */\n    tag_492:\n      pop\n      0x08fc\n      jump(tag_493)\n        /* \"SimplePools.sol\":11185:11220  pool.poolOwner.transfer(taxDivided) */\n    tag_488:\n        /* \"SimplePools.sol\":886:26651  contract SimplePools {... */\n      mload(0x40)\n      returndatasize\n      dup8\n      dup3\n      returndatacopy\n      returndatasize\n      swap1\n      revert\n        /* \"SimplePools.sol\":11185:11220  pool.poolOwner.transfer(taxDivided) */\n    tag_486:\n      pop\n      0x08fc\n      jump(tag_487)\n        /* \"SimplePools.sol\":11106:11140  payable(this).transfer(sellAmount) */\n    tag_482:\n      0x08fc\n      swap2\n      pop\n      jump(tag_483)\n        /* \"SimplePools.sol\":10941:11651  if (pool.isAsset2NativeBlockchainCurrency) {... */\n    tag_478:\n        /* \"SimplePools.sol\":11347:11356  msg.value */\n      swap1\n        /* \"SimplePools.sol\":11339:11410  require(msg.value >= contractTransactionTax, \"lower transaction value\") */\n      tag_517\n        /* \"SimplePools.sol\":11436:11447  pool.asset2 */\n      0x290decd9548b62a8d60345a988386fc84ba6bc95484008f6362f93160ef3e564\n        /* \"SimplePools.sol\":11347:11356  msg.value */\n      swap3\n      callvalue\n        /* \"SimplePools.sol\":11347:11382  msg.value >= contractTransactionTax */\n      lt\n      iszero\n        /* \"SimplePools.sol\":11339:11410  require(msg.value >= contractTransactionTax, \"lower transaction value\") */\n      tag_19\n      jump\t// in\n    tag_517:\n        /* \"SimplePools.sol\":11436:11447  pool.asset2 */\n      swap1\n      dup10\n      add\n        /* \"SimplePools.sol\":886:26651  contract SimplePools {... */\n      sload\n      mload(0x40)\n      shl(0xe0, 0x23b872dd)\n        /* \"SimplePools.sol\":11429:11516  IERC20(pool.asset2).transferFrom(personExecutingTheExchange, address(this), sellAmount) */\n      dup2\n      mstore\n      sub(shl(0xa0, 0x01), 0x01)\n        /* \"SimplePools.sol\":886:26651  contract SimplePools {... */\n      dup8\n      dup2\n      and\n        /* \"SimplePools.sol\":11429:11516  IERC20(pool.asset2).transferFrom(personExecutingTheExchange, address(this), sellAmount) */\n      0x04\n      dup4\n      add\n        /* \"SimplePools.sol\":886:26651  contract SimplePools {... */\n      mstore\n        /* \"SimplePools.sol\":11498:11502  this */\n      address\n        /* \"SimplePools.sol\":886:26651  contract SimplePools {... */\n      0x24\n      dup4\n      add\n      mstore\n      0x44\n      dup3\n      add\n      dup11\n      swap1\n      mstore\n      swap3\n        /* \"SimplePools.sol\":11436:11447  pool.asset2 */\n      swap2\n        /* \"SimplePools.sol\":11429:11516  IERC20(pool.asset2).transferFrom(personExecutingTheExchange, address(this), sellAmount) */\n      0x20\n      swap1\n        /* \"SimplePools.sol\":886:26651  contract SimplePools {... */\n      dup3\n      swap1\n      0x64\n      swap1\n      dup3\n      swap1\n      dup13\n      swap1\n      dup9\n      and\n        /* \"SimplePools.sol\":11429:11516  IERC20(pool.asset2).transferFrom(personExecutingTheExchange, address(this), sellAmount) */\n      gas\n      call\n      dup1\n      iszero\n      tag_519\n      jumpi\n      dup9\n      dup6\n      dup6\n      dup3\n      swap6\n      dup4\n      swap6\n      dup5\n      swap6\n      tag_521\n      jumpi\n        /* \"SimplePools.sol\":10941:11651  if (pool.isAsset2NativeBlockchainCurrency) {... */\n    tag_522:\n        /* \"SimplePools.sol\":886:26651  contract SimplePools {... */\n      pop\n      sload\n      and\n        /* \"SimplePools.sol\":11535:11570  pool.poolOwner.transfer(taxDivided) */\n      dup3\n      dup3\n      iszero\n      tag_523\n      jumpi\n        /* \"SimplePools.sol\":10941:11651  if (pool.isAsset2NativeBlockchainCurrency) {... */\n    tag_524:\n        /* \"SimplePools.sol\":11535:11570  pool.poolOwner.transfer(taxDivided) */\n      call\n      iszero\n      tag_488\n      jumpi\n        /* \"SimplePools.sol\":886:26651  contract SimplePools {... */\n      dup6\n      dup1\n      dup1\n      swap4\n        /* \"SimplePools.sol\":11612:11634  msg.value - taxDivided */\n      tag_527\n        /* \"SimplePools.sol\":886:26651  contract SimplePools {... */\n      dup3\n      swap5\n        /* \"SimplePools.sol\":10602:10619  pool.asset1Amount */\n      0x02\n        /* \"SimplePools.sol\":886:26651  contract SimplePools {... */\n      sload\n      and\n        /* \"SimplePools.sol\":11347:11356  msg.value */\n      swap2\n      callvalue\n        /* \"SimplePools.sol\":11612:11634  msg.value - taxDivided */\n      tag_16\n      jump\t// in\n    tag_527:\n        /* \"SimplePools.sol\":11589:11635  contractOwner.transfer(msg.value - taxDivided) */\n      swap1\n      dup3\n      dup3\n      iszero\n      tag_528\n      jumpi\n        /* \"SimplePools.sol\":10941:11651  if (pool.isAsset2NativeBlockchainCurrency) {... */\n    tag_529:\n        /* \"SimplePools.sol\":11589:11635  contractOwner.transfer(msg.value - taxDivided) */\n      call\n      iszero\n      tag_494\n      jumpi\n        /* \"SimplePools.sol\":10941:11651  if (pool.isAsset2NativeBlockchainCurrency) {... */\n      swap1\n      dup8\n      swap4\n      swap3\n      swap2\n      jump(tag_496)\n        /* \"SimplePools.sol\":11589:11635  contractOwner.transfer(msg.value - taxDivided) */\n    tag_528:\n      pop\n      0x08fc\n      jump(tag_529)\n        /* \"SimplePools.sol\":11535:11570  pool.poolOwner.transfer(taxDivided) */\n    tag_523:\n      pop\n      0x08fc\n      jump(tag_524)\n        /* \"SimplePools.sol\":11429:11516  IERC20(pool.asset2).transferFrom(personExecutingTheExchange, address(this), sellAmount) */\n    tag_521:\n      tag_532\n      swap1\n      0x20\n      returndatasize\n      dup2\n      gt\n      tag_285\n      jumpi\n      tag_287\n      dup2\n      dup4\n      tag_6\n      jump\t// in\n    tag_532:\n      pop\n      codesize\n      jump(tag_522)\n    tag_519:\n        /* \"SimplePools.sol\":886:26651  contract SimplePools {... */\n      mload(0x40)\n      returndatasize\n      dup11\n      dup3\n      returndatacopy\n      returndatasize\n      swap1\n      revert\n    tag_476:\n      mload(0x40)\n      shl(0xe5, 0x461bcd)\n      dup2\n      mstore\n      0x20\n      0x04\n      dup3\n      add\n      mstore\n      0x29\n      0x24\n      dup3\n      add\n      mstore\n      0x6d696e52656365697665206973206c657373207468616e2063616c6375616c74\n      0x44\n      dup3\n      add\n      mstore\n      shl(0xba, 0x195908185b5bdd5b9d)\n        /* \"SimplePools.sol\":10661:10664  100 */\n      0x64\n        /* \"SimplePools.sol\":886:26651  contract SimplePools {... */\n      dup3\n      add\n      mstore\n      0x84\n      swap1\n      revert\n        /* \"SimplePools.sol\":27039:27052  a < b ? a : b */\n    tag_473:\n      swap1\n      pop\n      dup1\n      swap10\n      jump(tag_475)\n        /* \"SimplePools.sol\":9908:10448  if (pool.isConstantPrice) {... */\n    tag_468:\n        /* \"SimplePools.sol\":10302:10432  pool.asset1Amount -... */\n      tag_536\n      0x00\n      dup1\n      mload\n      0x20\n      data_63d75db57ae45c3799740c3cd8dcee96a498324843d79ae390adc81d74b52f13\n      dup4\n      codecopy\n      dup2\n      mload\n      swap2\n      mstore\n        /* \"SimplePools.sol\":10302:10319  pool.asset1Amount */\n      dup9\n      add\n        /* \"SimplePools.sol\":886:26651  contract SimplePools {... */\n      sload\n        /* \"SimplePools.sol\":10343:10432  pool.constantProduct / (pool.asset2InitiallyAskedAmount + pool.asset2Amount + sellAmount) */\n      tag_537\n      0x00\n      dup1\n      mload\n      0x20\n      data_aaab8540682e3a537d17674663ea013e92c83fdd69958f314b4521edb3b76f1a\n      dup4\n      codecopy\n      dup2\n      mload\n      swap2\n      mstore\n        /* \"SimplePools.sol\":10343:10363  pool.constantProduct */\n      dup11\n      add\n        /* \"SimplePools.sol\":886:26651  contract SimplePools {... */\n      sload\n        /* \"SimplePools.sol\":10367:10431  pool.asset2InitiallyAskedAmount + pool.asset2Amount + sellAmount */\n      tag_538\n        /* \"SimplePools.sol\":10367:10398  pool.asset2InitiallyAskedAmount */\n      dup10\n        /* \"SimplePools.sol\":10367:10418  pool.asset2InitiallyAskedAmount + pool.asset2Amount */\n      tag_539\n        /* \"SimplePools.sol\":10367:10398  pool.asset2InitiallyAskedAmount */\n      dup14\n        /* \"SimplePools.sol\":10401:10418  pool.asset2Amount */\n      0x290decd9548b62a8d60345a988386fc84ba6bc95484008f6362f93160ef3e566\n      0x00\n      dup1\n      mload\n      0x20\n      data_9c418048a637d1641c6d732dd38174732bbf7b47a1cf6d5f65895384518b07d9\n      dup4\n      codecopy\n      dup2\n      mload\n      swap2\n      mstore\n        /* \"SimplePools.sol\":10367:10398  pool.asset2InitiallyAskedAmount */\n      dup3\n      add\n        /* \"SimplePools.sol\":886:26651  contract SimplePools {... */\n      sload\n        /* \"SimplePools.sol\":10401:10418  pool.asset2Amount */\n      swap2\n      add\n        /* \"SimplePools.sol\":886:26651  contract SimplePools {... */\n      sload\n        /* \"SimplePools.sol\":10367:10418  pool.asset2InitiallyAskedAmount + pool.asset2Amount */\n      swap1\n      tag_11\n      jump\t// in\n    tag_539:\n        /* \"SimplePools.sol\":10367:10431  pool.asset2InitiallyAskedAmount + pool.asset2Amount + sellAmount */\n      tag_11\n      jump\t// in\n    tag_538:\n        /* \"SimplePools.sol\":10343:10432  pool.constantProduct / (pool.asset2InitiallyAskedAmount + pool.asset2Amount + sellAmount) */\n      swap1\n      tag_18\n      jump\t// in\n    tag_537:\n        /* \"SimplePools.sol\":10302:10432  pool.asset1Amount -... */\n      swap1\n      tag_16\n      jump\t// in\n    tag_536:\n        /* \"SimplePools.sol\":9908:10448  if (pool.isConstantPrice) {... */\n      swap6\n      jump(tag_471)\n        /* \"SimplePools.sol\":9841:14451  if (isBuyingAsset1) {... */\n    tag_466:\n        /* \"SimplePools.sol\":12267:12284  pool.asset2Amount */\n      swap5\n      swap2\n      swap1\n      0x290decd9548b62a8d60345a988386fc84ba6bc95484008f6362f93160ef3e566\n      dup8\n      add\n        /* \"SimplePools.sol\":886:26651  contract SimplePools {... */\n      swap6\n      dup7\n      sload\n        /* \"SimplePools.sol\":12267:12288  pool.asset2Amount > 0 */\n      dup1\n      iszero\n        /* \"SimplePools.sol\":886:26651  contract SimplePools {... */\n      tag_540\n      jumpi\n        /* \"SimplePools.sol\":12385:12405  pool.isConstantPrice */\n      0x290decd9548b62a8d60345a988386fc84ba6bc95484008f6362f93160ef3e56a\n      dup10\n      add\n        /* \"SimplePools.sol\":886:26651  contract SimplePools {... */\n      sload\n      dup4\n      and\n      iszero\n      tag_542\n      jumpi\n        /* \"SimplePools.sol\":12534:12616  Math.mulDiv(sellAmount, pool.asset2InitiallyAskedAmount, pool.initialAsset1Amount) */\n      tag_544\n      0x00\n      dup1\n      mload\n      0x20\n      data_9c418048a637d1641c6d732dd38174732bbf7b47a1cf6d5f65895384518b07d9\n      dup4\n      codecopy\n      dup2\n      mload\n      swap2\n      mstore\n        /* \"SimplePools.sol\":12558:12589  pool.asset2InitiallyAskedAmount */\n      dup11\n      add\n        /* \"SimplePools.sol\":886:26651  contract SimplePools {... */\n      sload\n        /* \"SimplePools.sol\":12591:12615  pool.initialAsset1Amount */\n      0x290decd9548b62a8d60345a988386fc84ba6bc95484008f6362f93160ef3e56b\n      dup12\n      add\n        /* \"SimplePools.sol\":886:26651  contract SimplePools {... */\n      sload\n        /* \"SimplePools.sol\":12534:12616  Math.mulDiv(sellAmount, pool.asset2InitiallyAskedAmount, pool.initialAsset1Amount) */\n      swap1\n      dup10\n      tag_36\n      jump\t// in\n    tag_544:\n        /* \"SimplePools.sol\":12381:12819  if (pool.isConstantPrice) {... */\n      swap1\n    tag_545:\n        /* \"SimplePools.sol\":27039:27044  a < b */\n      dup1\n      dup3\n      lt\n      iszero\n      tag_546\n      jumpi\n        /* \"SimplePools.sol\":27039:27052  a < b ? a : b */\n      pop\n      dup1\n      swap10\n    tag_548:\n        /* \"SimplePools.sol\":12970:13009  minReceiveAssetToBuyAmount <= amountOut */\n      gt\n        /* \"SimplePools.sol\":886:26651  contract SimplePools {... */\n      tag_549\n      jumpi\n        /* \"SimplePools.sol\":12267:12284  pool.asset2Amount */\n      0x03\n        /* \"SimplePools.sol\":886:26651  contract SimplePools {... */\n      sload\n      dup2\n      sload\n      0x40\n      swap6\n        /* \"SimplePools.sol\":9792:9815  _allTransactionsPoolIds */\n      0x01\n        /* \"SimplePools.sol\":886:26651  contract SimplePools {... */\n      dup4\n      swap1\n      shr\n      swap3\n      dup3\n      dup9\n      shr\n      dup7\n      and\n      iszero\n      tag_551\n      jumpi\n      pop\n      swap1\n      pop\n        /* \"SimplePools.sol\":13282:13366  require(msg.value >= sellAmount + contractTransactionTax, \"lower transaction value\") */\n      tag_553\n        /* \"SimplePools.sol\":13303:13338  sellAmount + contractTransactionTax */\n      tag_481\n        /* \"SimplePools.sol\":12267:12284  pool.asset2Amount */\n      0x03\n        /* \"SimplePools.sol\":886:26651  contract SimplePools {... */\n      sload\n        /* \"SimplePools.sol\":13303:13338  sellAmount + contractTransactionTax */\n      dup11\n      tag_11\n      jump\t// in\n        /* \"SimplePools.sol\":13282:13366  require(msg.value >= sellAmount + contractTransactionTax, \"lower transaction value\") */\n    tag_553:\n        /* \"SimplePools.sol\":13385:13419  payable(this).transfer(sellAmount) */\n      dup7\n      dup1\n      dup10\n      dup1\n      iszero\n      tag_555\n      jumpi\n        /* \"SimplePools.sol\":13220:13904  if (pool.isAsset1NativeBlockchainCurrency) {... */\n    tag_556:\n        /* \"SimplePools.sol\":13393:13397  this */\n      dup3\n      dup1\n      swap3\n      swap2\n      dup2\n      swap3\n      address\n        /* \"SimplePools.sol\":13385:13419  payable(this).transfer(sellAmount) */\n      swap1\n      call\n      iszero\n      tag_561\n      jumpi\n        /* \"SimplePools.sol\":886:26651  contract SimplePools {... */\n      dup7\n      dup1\n      dup1\n      dup1\n      dup6\n      0x01\n      dup1\n      0xa0\n      shl\n      sub\n      dup1\n      swap7\n      sload\n      and\n        /* \"SimplePools.sol\":13438:13473  pool.poolOwner.transfer(taxDivided) */\n      dup3\n      dup3\n      iszero\n      tag_559\n      jumpi\n        /* \"SimplePools.sol\":13220:13904  if (pool.isAsset1NativeBlockchainCurrency) {... */\n    tag_560:\n        /* \"SimplePools.sol\":13438:13473  pool.poolOwner.transfer(taxDivided) */\n      call\n      iszero\n      tag_561\n      jumpi\n        /* \"SimplePools.sol\":886:26651  contract SimplePools {... */\n      dup7\n      dup1\n      dup1\n      swap4\n        /* \"SimplePools.sol\":13515:13550  msg.value - sellAmount - taxDivided */\n      tag_563\n        /* \"SimplePools.sol\":886:26651  contract SimplePools {... */\n      dup3\n      swap5\n        /* \"SimplePools.sol\":13160:13161  2 */\n      0x02\n        /* \"SimplePools.sol\":886:26651  contract SimplePools {... */\n      sload\n      and\n        /* \"SimplePools.sol\":13290:13299  msg.value */\n      swap2\n        /* \"SimplePools.sol\":13515:13537  msg.value - sellAmount */\n      tag_491\n        /* \"SimplePools.sol\":13290:13299  msg.value */\n      dup14\n      callvalue\n        /* \"SimplePools.sol\":13515:13537  msg.value - sellAmount */\n      tag_16\n      jump\t// in\n        /* \"SimplePools.sol\":13515:13550  msg.value - sellAmount - taxDivided */\n    tag_563:\n        /* \"SimplePools.sol\":13492:13551  contractOwner.transfer(msg.value - sellAmount - taxDivided) */\n      swap1\n      dup3\n      dup3\n      iszero\n      tag_565\n      jumpi\n        /* \"SimplePools.sol\":13220:13904  if (pool.isAsset1NativeBlockchainCurrency) {... */\n    tag_566:\n        /* \"SimplePools.sol\":13492:13551  contractOwner.transfer(msg.value - sellAmount - taxDivided) */\n      call\n      iszero\n      tag_567\n      jumpi\n        /* \"SimplePools.sol\":13220:13904  if (pool.isAsset1NativeBlockchainCurrency) {... */\n      swap1\n      dup9\n      swap3\n      swap2\n    tag_569:\n        /* \"SimplePools.sol\":13918:13949  pool.asset1Amount += sellAmount */\n      tag_570\n      0x00\n      dup1\n      mload\n      0x20\n      data_63d75db57ae45c3799740c3cd8dcee96a498324843d79ae390adc81d74b52f13\n      dup4\n      codecopy\n      dup2\n      mload\n      swap2\n      mstore\n        /* \"SimplePools.sol\":13918:13935  pool.asset1Amount */\n      dup11\n      add\n        /* \"SimplePools.sol\":886:26651  contract SimplePools {... */\n      swap8\n      dup9\n      sload\n        /* \"SimplePools.sol\":13918:13949  pool.asset1Amount += sellAmount */\n      tag_11\n      jump\t// in\n    tag_570:\n        /* \"SimplePools.sol\":886:26651  contract SimplePools {... */\n      dup8\n      sstore\n      sload\n      0xe8\n      shr\n      and\n      iszero\n      tag_571\n      jumpi\n        /* \"SimplePools.sol\":14072:14127  payable(personExecutingTheExchange).transfer(amountOut) */\n      dup4\n      dup1\n      dup1\n      swap4\n      dup2\n      swap4\n      dup3\n      swap1\n      dup3\n      iszero\n      tag_573\n      jumpi\n        /* \"SimplePools.sol\":14010:14251  if (pool.isAsset2NativeBlockchainCurrency) {... */\n    tag_574:\n      sub(shl(0xa0, 0x01), 0x01)\n        /* \"SimplePools.sol\":886:26651  contract SimplePools {... */\n      and\n      swap1\n        /* \"SimplePools.sol\":14072:14127  payable(personExecutingTheExchange).transfer(amountOut) */\n      call\n      iszero\n      tag_97\n      jumpi\n        /* \"SimplePools.sol\":14010:14251  if (pool.isAsset2NativeBlockchainCurrency) {... */\n      pop\n      pop\n      0x00\n      dup1\n      mload\n      0x20\n      data_aaab8540682e3a537d17674663ea013e92c83fdd69958f314b4521edb3b76f1a\n      dup4\n      codecopy\n      dup2\n      mload\n      swap2\n      mstore\n      swap2\n        /* \"SimplePools.sol\":14356:14407  pool.asset2Amount + pool.asset2InitiallyAskedAmount */\n      tag_504\n        /* \"SimplePools.sol\":14333:14408  (pool.asset1Amount) * (pool.asset2Amount + pool.asset2InitiallyAskedAmount) */\n      tag_505\n        /* \"SimplePools.sol\":14010:14251  if (pool.isAsset2NativeBlockchainCurrency) {... */\n      swap3\n    tag_579:\n        /* \"SimplePools.sol\":14265:14295  pool.asset2Amount -= amountOut */\n      tag_580\n        /* \"SimplePools.sol\":886:26651  contract SimplePools {... */\n      dup8\n      dup5\n      sload\n        /* \"SimplePools.sol\":14265:14295  pool.asset2Amount -= amountOut */\n      tag_16\n      jump\t// in\n    tag_580:\n        /* \"SimplePools.sol\":886:26651  contract SimplePools {... */\n      dup1\n      swap4\n      sstore\n      sload\n        /* \"SimplePools.sol\":14376:14407  pool.asset2InitiallyAskedAmount */\n      swap2\n      0x00\n      dup1\n      mload\n      0x20\n      data_9c418048a637d1641c6d732dd38174732bbf7b47a1cf6d5f65895384518b07d9\n      dup4\n      codecopy\n      dup2\n      mload\n      swap2\n      mstore\n      dup7\n      add\n        /* \"SimplePools.sol\":886:26651  contract SimplePools {... */\n      sload\n        /* \"SimplePools.sol\":14356:14407  pool.asset2Amount + pool.asset2InitiallyAskedAmount */\n      swap1\n      tag_11\n      jump\t// in\n        /* \"SimplePools.sol\":14072:14127  payable(personExecutingTheExchange).transfer(amountOut) */\n    tag_573:\n      0x08fc\n      swap2\n      pop\n      jump(tag_574)\n        /* \"SimplePools.sol\":14010:14251  if (pool.isAsset2NativeBlockchainCurrency) {... */\n    tag_571:\n        /* \"SimplePools.sol\":14175:14186  pool.asset2 */\n      0x290decd9548b62a8d60345a988386fc84ba6bc95484008f6362f93160ef3e564\n      dup8\n      add\n        /* \"SimplePools.sol\":886:26651  contract SimplePools {... */\n      sload\n      dup4\n      mload\n      shl(0xe0, 0xa9059cbb)\n        /* \"SimplePools.sol\":14168:14235  IERC20(pool.asset2).transfer(personExecutingTheExchange, amountOut) */\n      dup2\n      mstore\n      sub(shl(0xa0, 0x01), 0x01)\n        /* \"SimplePools.sol\":886:26651  contract SimplePools {... */\n      swap3\n      dup4\n      and\n        /* \"SimplePools.sol\":14168:14235  IERC20(pool.asset2).transfer(personExecutingTheExchange, amountOut) */\n      0x04\n      dup3\n      add\n        /* \"SimplePools.sol\":886:26651  contract SimplePools {... */\n      mstore\n      0x24\n      dup2\n      add\n      swap4\n      swap1\n      swap4\n      mstore\n      swap2\n      swap4\n      swap2\n        /* \"SimplePools.sol\":14168:14235  IERC20(pool.asset2).transfer(personExecutingTheExchange, amountOut) */\n      0x20\n      swap2\n        /* \"SimplePools.sol\":886:26651  contract SimplePools {... */\n      dup6\n      swap2\n      0x44\n      swap2\n      dup4\n      swap2\n      dup7\n      swap2\n      and\n        /* \"SimplePools.sol\":14168:14235  IERC20(pool.asset2).transfer(personExecutingTheExchange, amountOut) */\n      gas\n      call\n      swap2\n      dup3\n      iszero\n      tag_97\n      jumpi\n      pop\n      pop\n        /* \"SimplePools.sol\":14333:14408  (pool.asset1Amount) * (pool.asset2Amount + pool.asset2InitiallyAskedAmount) */\n      tag_505\n        /* \"SimplePools.sol\":14168:14235  IERC20(pool.asset2).transfer(personExecutingTheExchange, amountOut) */\n      swap3\n      0x00\n      dup1\n      mload\n      0x20\n      data_aaab8540682e3a537d17674663ea013e92c83fdd69958f314b4521edb3b76f1a\n      dup4\n      codecopy\n      dup2\n      mload\n      swap2\n      mstore\n      swap5\n      swap3\n        /* \"SimplePools.sol\":14356:14407  pool.asset2Amount + pool.asset2InitiallyAskedAmount */\n      tag_504\n        /* \"SimplePools.sol\":14168:14235  IERC20(pool.asset2).transfer(personExecutingTheExchange, amountOut) */\n      swap3\n      tag_584\n      jumpi\n        /* \"SimplePools.sol\":14010:14251  if (pool.isAsset2NativeBlockchainCurrency) {... */\n    tag_585:\n      pop\n      jump(tag_579)\n        /* \"SimplePools.sol\":14168:14235  IERC20(pool.asset2).transfer(personExecutingTheExchange, amountOut) */\n    tag_584:\n      tag_586\n      swap1\n      0x20\n      returndatasize\n      dup2\n      gt\n      tag_285\n      jumpi\n      tag_287\n      dup2\n      dup4\n      tag_6\n      jump\t// in\n    tag_586:\n      pop\n      codesize\n      jump(tag_585)\n        /* \"SimplePools.sol\":13492:13551  contractOwner.transfer(msg.value - sellAmount - taxDivided) */\n    tag_567:\n        /* \"SimplePools.sol\":886:26651  contract SimplePools {... */\n      pop\n      pop\n      pop\n      mload\n      swap1\n      returndatasize\n      swap1\n      dup3\n      returndatacopy\n      returndatasize\n      swap1\n      revert\n        /* \"SimplePools.sol\":13492:13551  contractOwner.transfer(msg.value - sellAmount - taxDivided) */\n    tag_565:\n      pop\n      0x08fc\n      jump(tag_566)\n        /* \"SimplePools.sol\":13438:13473  pool.poolOwner.transfer(taxDivided) */\n    tag_561:\n        /* \"SimplePools.sol\":886:26651  contract SimplePools {... */\n      dup6\n      mload\n      returndatasize\n      dup9\n      dup3\n      returndatacopy\n      returndatasize\n      swap1\n      revert\n        /* \"SimplePools.sol\":13438:13473  pool.poolOwner.transfer(taxDivided) */\n    tag_559:\n      pop\n      0x08fc\n      jump(tag_560)\n        /* \"SimplePools.sol\":13385:13419  payable(this).transfer(sellAmount) */\n    tag_555:\n      0x08fc\n      swap2\n      pop\n      jump(tag_556)\n        /* \"SimplePools.sol\":13220:13904  if (pool.isAsset1NativeBlockchainCurrency) {... */\n    tag_551:\n        /* \"SimplePools.sol\":13592:13663  require(msg.value >= contractTransactionTax, \"lower transaction value\") */\n      tag_590\n        /* \"SimplePools.sol\":13600:13609  msg.value */\n      swap1\n      callvalue\n        /* \"SimplePools.sol\":13600:13635  msg.value >= contractTransactionTax */\n      lt\n      iszero\n        /* \"SimplePools.sol\":13592:13663  require(msg.value >= contractTransactionTax, \"lower transaction value\") */\n      tag_19\n      jump\t// in\n    tag_590:\n        /* \"SimplePools.sol\":886:26651  contract SimplePools {... */\n      dup7\n      mload\n      shl(0xe0, 0x23b872dd)\n        /* \"SimplePools.sol\":13682:13769  IERC20(pool.asset1).transferFrom(personExecutingTheExchange, address(this), sellAmount) */\n      dup2\n      mstore\n      sub(shl(0xa0, 0x01), 0x01)\n        /* \"SimplePools.sol\":886:26651  contract SimplePools {... */\n      dup8\n      dup2\n      and\n        /* \"SimplePools.sol\":13682:13769  IERC20(pool.asset1).transferFrom(personExecutingTheExchange, address(this), sellAmount) */\n      0x04\n      dup4\n      add\n        /* \"SimplePools.sol\":886:26651  contract SimplePools {... */\n      mstore\n        /* \"SimplePools.sol\":13751:13755  this */\n      address\n        /* \"SimplePools.sol\":886:26651  contract SimplePools {... */\n      0x24\n      dup4\n      add\n      mstore\n      0x44\n      dup3\n      add\n      dup12\n      swap1\n      mstore\n      swap3\n        /* \"SimplePools.sol\":13682:13769  IERC20(pool.asset1).transferFrom(personExecutingTheExchange, address(this), sellAmount) */\n      0x20\n      swap1\n        /* \"SimplePools.sol\":886:26651  contract SimplePools {... */\n      dup3\n      swap1\n      0x64\n      swap1\n      dup3\n      swap1\n      dup14\n      swap1\n      0x48\n      shr\n      dup9\n      and\n        /* \"SimplePools.sol\":13682:13769  IERC20(pool.asset1).transferFrom(personExecutingTheExchange, address(this), sellAmount) */\n      gas\n      call\n      dup1\n      iszero\n      tag_592\n      jumpi\n      dup10\n      dup6\n      dup6\n      dup3\n      swap6\n      dup4\n      swap6\n      dup5\n      swap6\n      tag_594\n      jumpi\n        /* \"SimplePools.sol\":13220:13904  if (pool.isAsset1NativeBlockchainCurrency) {... */\n    tag_595:\n        /* \"SimplePools.sol\":886:26651  contract SimplePools {... */\n      pop\n      sload\n      and\n        /* \"SimplePools.sol\":13788:13823  pool.poolOwner.transfer(taxDivided) */\n      dup3\n      dup3\n      iszero\n      tag_596\n      jumpi\n        /* \"SimplePools.sol\":13220:13904  if (pool.isAsset1NativeBlockchainCurrency) {... */\n    tag_597:\n        /* \"SimplePools.sol\":13788:13823  pool.poolOwner.transfer(taxDivided) */\n      call\n      iszero\n      tag_561\n      jumpi\n        /* \"SimplePools.sol\":886:26651  contract SimplePools {... */\n      dup7\n      dup1\n      dup1\n      swap4\n        /* \"SimplePools.sol\":13865:13887  msg.value - taxDivided */\n      tag_600\n        /* \"SimplePools.sol\":886:26651  contract SimplePools {... */\n      dup3\n      swap5\n        /* \"SimplePools.sol\":13160:13161  2 */\n      0x02\n        /* \"SimplePools.sol\":886:26651  contract SimplePools {... */\n      sload\n      and\n        /* \"SimplePools.sol\":13600:13609  msg.value */\n      swap2\n      callvalue\n        /* \"SimplePools.sol\":13865:13887  msg.value - taxDivided */\n      tag_16\n      jump\t// in\n    tag_600:\n        /* \"SimplePools.sol\":13842:13888  contractOwner.transfer(msg.value - taxDivided) */\n      swap1\n      dup3\n      dup3\n      iszero\n      tag_601\n      jumpi\n        /* \"SimplePools.sol\":13220:13904  if (pool.isAsset1NativeBlockchainCurrency) {... */\n    tag_602:\n        /* \"SimplePools.sol\":13842:13888  contractOwner.transfer(msg.value - taxDivided) */\n      call\n      iszero\n      tag_567\n      jumpi\n        /* \"SimplePools.sol\":13220:13904  if (pool.isAsset1NativeBlockchainCurrency) {... */\n      swap1\n      dup9\n      swap3\n      swap2\n      jump(tag_569)\n        /* \"SimplePools.sol\":13842:13888  contractOwner.transfer(msg.value - taxDivided) */\n    tag_601:\n      pop\n      0x08fc\n      jump(tag_602)\n        /* \"SimplePools.sol\":13788:13823  pool.poolOwner.transfer(taxDivided) */\n    tag_596:\n      pop\n      0x08fc\n      jump(tag_597)\n        /* \"SimplePools.sol\":13682:13769  IERC20(pool.asset1).transferFrom(personExecutingTheExchange, address(this), sellAmount) */\n    tag_594:\n      tag_605\n      swap1\n      0x20\n      returndatasize\n      dup2\n      gt\n      tag_285\n      jumpi\n      tag_287\n      dup2\n      dup4\n      tag_6\n      jump\t// in\n    tag_605:\n      pop\n      codesize\n      jump(tag_595)\n    tag_592:\n        /* \"SimplePools.sol\":886:26651  contract SimplePools {... */\n      dup9\n      mload\n      returndatasize\n      dup12\n      dup3\n      returndatacopy\n      returndatasize\n      swap1\n      revert\n    tag_549:\n      mload(0x40)\n      shl(0xe5, 0x461bcd)\n      dup2\n      mstore\n      0x20\n      0x04\n      dup3\n      add\n      mstore\n      0x29\n      0x24\n      dup3\n      add\n      mstore\n      0x6d696e52656365697665206973206d6f7265207468616e2063616c6375616c74\n      0x44\n      dup3\n      add\n      mstore\n      shl(0xba, 0x195908185b5bdd5b9d)\n      0x64\n      dup3\n      add\n      mstore\n      0x84\n      swap1\n      revert\n        /* \"SimplePools.sol\":27039:27052  a < b ? a : b */\n    tag_546:\n      swap1\n      pop\n      dup1\n      swap10\n      jump(tag_548)\n        /* \"SimplePools.sol\":12381:12819  if (pool.isConstantPrice) {... */\n    tag_542:\n        /* \"SimplePools.sol\":12669:12803  pool.asset2InitiallyAskedAmount + pool.asset2Amount -... */\n      tag_609\n        /* \"SimplePools.sol\":12669:12720  pool.asset2InitiallyAskedAmount + pool.asset2Amount */\n      tag_610\n        /* \"SimplePools.sol\":12669:12700  pool.asset2InitiallyAskedAmount */\n      dup3\n      0x00\n      dup1\n      mload\n      0x20\n      data_9c418048a637d1641c6d732dd38174732bbf7b47a1cf6d5f65895384518b07d9\n      dup4\n      codecopy\n      dup2\n      mload\n      swap2\n      mstore\n      dup13\n      add\n        /* \"SimplePools.sol\":886:26651  contract SimplePools {... */\n      sload\n        /* \"SimplePools.sol\":12669:12720  pool.asset2InitiallyAskedAmount + pool.asset2Amount */\n      tag_11\n      jump\t// in\n    tag_610:\n        /* \"SimplePools.sol\":12748:12803  pool.constantProduct / (pool.asset1Amount + sellAmount) */\n      tag_537\n        /* \"SimplePools.sol\":12748:12768  pool.constantProduct */\n      dup12\n        /* \"SimplePools.sol\":12772:12802  pool.asset1Amount + sellAmount */\n      tag_538\n        /* \"SimplePools.sol\":12748:12768  pool.constantProduct */\n      dup12\n      0x00\n      dup1\n      mload\n      0x20\n      data_63d75db57ae45c3799740c3cd8dcee96a498324843d79ae390adc81d74b52f13\n      dup4\n      codecopy\n      dup2\n      mload\n      swap2\n      mstore\n      0x00\n      dup1\n      mload\n      0x20\n      data_aaab8540682e3a537d17674663ea013e92c83fdd69958f314b4521edb3b76f1a\n      dup4\n      codecopy\n      dup2\n      mload\n      swap2\n      mstore\n      dup5\n      add\n        /* \"SimplePools.sol\":886:26651  contract SimplePools {... */\n      sload\n        /* \"SimplePools.sol\":12772:12789  pool.asset1Amount */\n      swap4\n      add\n        /* \"SimplePools.sol\":886:26651  contract SimplePools {... */\n      sload\n        /* \"SimplePools.sol\":12772:12802  pool.asset1Amount + sellAmount */\n      tag_11\n      jump\t// in\n        /* \"SimplePools.sol\":12669:12803  pool.asset2InitiallyAskedAmount + pool.asset2Amount -... */\n    tag_609:\n        /* \"SimplePools.sol\":12381:12819  if (pool.isConstantPrice) {... */\n      swap1\n      jump(tag_545)\n        /* \"SimplePools.sol\":886:26651  contract SimplePools {... */\n    tag_540:\n      mload(0x40)\n      shl(0xe5, 0x461bcd)\n      dup2\n      mstore\n      0x20\n      0x04\n      dup3\n      add\n      mstore\n      0x29\n      0x24\n      dup3\n      add\n      mstore\n      0x7a65726f20616d6f756e74206f662061737365743220666f722062757920696e\n      0x44\n      dup3\n      add\n      mstore\n      shl(0xba, 0x081d1a19481c1bdbdb)\n      0x64\n      dup3\n      add\n      mstore\n      0x84\n      swap1\n      revert\n    tag_463:\n      mload(0x40)\n      shl(0xe5, 0x461bcd)\n      dup2\n      mstore\n      0x20\n      0x04\n      dup3\n      add\n      mstore\n      0x0d\n      0x24\n      dup3\n      add\n      mstore\n      shl(0x98, 0x506f6f6c20697320656d707479)\n      0x44\n      dup3\n      add\n      mstore\n      0x64\n      swap1\n      revert\n    tag_461:\n      shl(0xe0, 0x4e487b71)\n      dup3\n      mstore\n      mstore(0x04, 0x32)\n      0x24\n      dup3\n      revert\n    tag_459:\n      mload(0x40)\n      shl(0xe5, 0x461bcd)\n      dup2\n      mstore\n      0x20\n      0x04\n      dup3\n      add\n      mstore\n      0x0e\n      0x24\n      dup3\n      add\n      mstore\n      shl(0x92, 0x125b9d985b1a59081c1bdbdb1259)\n      0x44\n      dup3\n      add\n      mstore\n      0x64\n      swap1\n      revert\n    tag_22:\n      iszero\n      tag_613\n      jumpi\n      jump\t// out\n    tag_613:\n      mload(0x40)\n      shl(0xe5, 0x461bcd)\n      dup2\n      mstore\n      0x20\n      0x04\n      dup3\n      add\n      mstore\n      0x0f\n      0x24\n      dup3\n      add\n      mstore\n      shl(0x8a, 0x1a5b9d985b1a59081c1bdbdb081a59)\n      0x44\n      dup3\n      add\n      mstore\n      0x64\n      swap1\n      revert\n    tag_23:\n      iszero\n      tag_615\n      jumpi\n      jump\t// out\n    tag_615:\n      mload(0x40)\n      shl(0xe5, 0x461bcd)\n      dup2\n      mstore\n      0x20\n      0x04\n      dup3\n      add\n      mstore\n      0x0e\n      0x24\n      dup3\n      add\n      mstore\n      shl(0x92, 0x1c1bdbdb081a5cc81b1bd8dad959)\n      0x44\n      dup3\n      add\n      mstore\n      0x64\n      swap1\n      revert\n    tag_24:\n      iszero\n      tag_617\n      jumpi\n      jump\t// out\n    tag_617:\n      mload(0x40)\n      shl(0xe5, 0x461bcd)\n      dup2\n      mstore\n      0x20\n      0x04\n      dup3\n      add\n      mstore\n      0x13\n      0x24\n      dup3\n      add\n      mstore\n      shl(0x6a, 0x1b1bddd95c881d185e081cdc1958da599a5959)\n      0x44\n      dup3\n      add\n      mstore\n      0x64\n      swap1\n      revert\n    tag_25:\n      iszero\n      tag_619\n      jumpi\n      jump\t// out\n    tag_619:\n      mload(0x40)\n      shl(0xe5, 0x461bcd)\n      dup2\n      mstore\n      0x20\n      0x04\n      dup3\n      add\n      mstore\n      0x0e\n      0x24\n      dup3\n      add\n      mstore\n      shl(0x92, 0x1a5b9d985b1a59081c1bdbdb1259)\n      0x44\n      dup3\n      add\n      mstore\n      0x64\n      swap1\n      revert\n    tag_26:\n      iszero\n      tag_621\n      jumpi\n      jump\t// out\n    tag_621:\n      mload(0x40)\n      shl(0xe5, 0x461bcd)\n      dup2\n      mstore\n      0x20\n      0x04\n      dup3\n      add\n      mstore\n      0x0f\n      0x24\n      dup3\n      add\n      mstore\n      shl(0x88, 0x696e76616c696420696e6465786573)\n      0x44\n      dup3\n      add\n      mstore\n      0x64\n      swap1\n      revert\n    tag_27:\n      sub(shl(0x40, 0x01), 0x01)\n      swap2\n      dup3\n      and\n      swap1\n      dup3\n      and\n      sub\n      swap2\n      swap1\n      dup3\n      gt\n      tag_440\n      jumpi\n      jump\t// out\n    tag_28:\n      mload(0x40)\n      swap1\n      tag_625\n      dup3\n      tag_5\n      jump\t// in\n    tag_625:\n      dup2\n      0x01c0\n      0x00\n      swap2\n      dup3\n      dup2\n      mstore\n      dup3\n      0x20\n      dup3\n      add\n      mstore\n      dup3\n      0x40\n      dup3\n      add\n      mstore\n      dup3\n      0x60\n      dup3\n      add\n      mstore\n      dup3\n      0x80\n      dup3\n      add\n      mstore\n      dup3\n      0xa0\n      dup3\n      add\n      mstore\n      dup3\n      0xc0\n      dup3\n      add\n      mstore\n      dup3\n      0xe0\n      dup3\n      add\n      mstore\n      dup3\n      0x0100\n      dup3\n      add\n      mstore\n      dup3\n      0x0120\n      dup3\n      add\n      mstore\n      dup3\n      0x0140\n      dup3\n      add\n      mstore\n      dup3\n      0x0160\n      dup3\n      add\n      mstore\n      dup3\n      0x0180\n      dup3\n      add\n      mstore\n      dup3\n      0x01a0\n      dup3\n      add\n      mstore\n      add\n      mstore\n      jump\t// out\n    tag_29:\n      swap1\n      tag_626\n      dup3\n      tag_7\n      jump\t// in\n    tag_626:\n      tag_627\n      mload(0x40)\n      swap2\n      dup3\n      tag_6\n      jump\t// in\n    tag_627:\n      dup3\n      dup2\n      mstore\n      dup1\n      swap3\n      tag_628\n      not(0x1f)\n      swap2\n      tag_7\n      jump\t// in\n    tag_628:\n      add\n      swap1\n      0x00\n    tag_629:\n      dup3\n      dup2\n      lt\n      tag_630\n      jumpi\n      pop\n      pop\n      pop\n      jump\t// out\n    tag_630:\n      0x20\n      swap1\n      tag_632\n      tag_28\n      jump\t// in\n    tag_632:\n      dup3\n      dup3\n      dup6\n      add\n      add\n      mstore\n      add\n      jump(tag_629)\n    tag_30:\n      sub(shl(0x40, 0x01), 0x01)\n      dup1\n      swap2\n      and\n      swap1\n      dup2\n      eq\n      tag_440\n      jumpi\n      0x01\n      add\n      swap1\n      jump\t// out\n    tag_31:\n      dup1\n      mload\n      dup3\n      lt\n      iszero\n      tag_442\n      jumpi\n      0x20\n      swap2\n      0x05\n      shl\n      add\n      add\n      swap1\n      jump\t// out\n    tag_32:\n      swap1\n      mload(0x40)\n      tag_637\n      dup2\n      tag_5\n      jump\t// in\n    tag_637:\n      0x01c0\n      dup2\n      swap4\n      dup1\n      sload\n      sub(shl(0x40, 0x01), 0x01)\n      dup2\n      and\n      dup5\n      mstore\n      0x09\n      0xff\n      swap3\n      dup4\n      dup4\n      0x40\n      shr\n      and\n      iszero\n      iszero\n      0x20\n      dup8\n      add\n      mstore\n      dup4\n      0x01\n      dup1\n      0xa0\n      shl\n      sub\n      swap4\n      dup5\n      dup2\n      0x48\n      shr\n      and\n      0x40\n      dup10\n      add\n      mstore\n      0xe8\n      shr\n      and\n      iszero\n      iszero\n      0x60\n      dup8\n      add\n      mstore\n      dup3\n      0x01\n      dup3\n      add\n      sload\n      and\n      0x80\n      dup8\n      add\n      mstore\n      0x02\n      dup2\n      add\n      sload\n      0xa0\n      dup8\n      add\n      mstore\n      0x03\n      dup2\n      add\n      sload\n      0xc0\n      dup8\n      add\n      mstore\n      0x04\n      dup2\n      add\n      sload\n      0xe0\n      dup8\n      add\n      mstore\n      dup4\n      0x05\n      dup3\n      add\n      sload\n      and\n      0x0100\n      dup8\n      add\n      mstore\n      0x06\n      dup2\n      add\n      sload\n      0x0120\n      dup8\n      add\n      mstore\n      dup4\n      0x07\n      dup3\n      add\n      sload\n      and\n      iszero\n      iszero\n      0x0140\n      dup8\n      add\n      mstore\n      0x08\n      dup2\n      add\n      sload\n      0x0160\n      dup8\n      add\n      mstore\n      add\n      sload\n      swap1\n      dup2\n      and\n      0x0180\n      dup6\n      add\n      mstore\n      dup2\n      dup2\n      0xa0\n      shr\n      and\n      iszero\n      iszero\n      0x01a0\n      dup6\n      add\n      mstore\n      0xa8\n      shr\n      and\n      iszero\n      iszero\n      swap2\n      add\n      mstore\n      jump\t// out\n    tag_33:\n      iszero\n      tag_638\n      jumpi\n      jump\t// out\n    tag_638:\n      mload(0x40)\n      shl(0xe5, 0x461bcd)\n      dup2\n      mstore\n      0x20\n      0x04\n      dup3\n      add\n      mstore\n      0x0d\n      0x24\n      dup3\n      add\n      mstore\n      shl(0x9b, 0x0d2dcecc2d8d2c840d2dcc8caf)\n      0x44\n      dup3\n      add\n      mstore\n      0x64\n      swap1\n      revert\n    tag_34:\n      swap1\n      tag_640\n      dup3\n      tag_7\n      jump\t// in\n    tag_640:\n      tag_641\n      mload(0x40)\n      swap2\n      dup3\n      tag_6\n      jump\t// in\n    tag_641:\n      dup3\n      dup2\n      mstore\n      dup1\n      swap3\n      tag_642\n      not(0x1f)\n      swap2\n      tag_7\n      jump\t// in\n    tag_642:\n      add\n      swap1\n      0x20\n      calldatasize\n      swap2\n      add\n      calldatacopy\n      jump\t// out\n        /* \"SimplePools.sol\":27383:31388  function mulDiv(... */\n    tag_35:\n      not(0x00)\n        /* \"SimplePools.sol\":27996:28166  assembly {... */\n      dup3\n      dup3\n      mulmod\n      dup3\n      dup3\n      mul\n      swap2\n      dup3\n      dup1\n      dup4\n      lt\n      swap3\n      sub\n      swap2\n      dup1\n      dup4\n      sub\n        /* \"SimplePools.sol\":28250:28260  prod1 == 0 */\n      swap3\n      eq\n        /* \"SimplePools.sol\":28246:28323  if (prod1 == 0) {... */\n      tag_643\n      jumpi\n        /* \"SimplePools.sol\":28436:28455  denominator > prod1 */\n      dup2\n        /* \"SimplePools.sol\":10661:10664  100 */\n      0x64\n        /* \"SimplePools.sol\":28436:28455  denominator > prod1 */\n      gt\n        /* \"SimplePools.sol\":886:26651  contract SimplePools {... */\n      iszero\n      tag_419\n      jumpi\n      0x5c28f5c28f5c28f5c28f5c28f5c28f5c28f5c28f5c28f5c28f5c28f5c28f5c29\n        /* \"SimplePools.sol\":28751:29058  assembly {... */\n      swap4\n        /* \"SimplePools.sol\":10661:10664  100 */\n      0x64\n        /* \"SimplePools.sol\":28751:29058  assembly {... */\n      swap2\n      mulmod\n      swap1\n      dup3\n      dup3\n      gt\n      swap1\n      sub\n        /* \"SimplePools.sol\":886:26651  contract SimplePools {... */\n      0xfe\n      shl\n        /* \"SimplePools.sol\":28751:29058  assembly {... */\n      swap2\n      sub\n        /* \"SimplePools.sol\":29433:29813  assembly {... */\n      0x02\n      shr\n        /* \"SimplePools.sol\":29882:29903  prod0 |= prod1 * twos */\n      or\n        /* \"SimplePools.sol\":886:26651  contract SimplePools {... */\n      mul\n        /* \"SimplePools.sol\":27383:31388  function mulDiv(... */\n      swap1\n      jump\t// out\n        /* \"SimplePools.sol\":28246:28323  if (prod1 == 0) {... */\n    tag_643:\n        /* \"SimplePools.sol\":886:26651  contract SimplePools {... */\n      pop\n      pop\n        /* \"SimplePools.sol\":10661:10664  100 */\n      0x64\n        /* \"SimplePools.sol\":886:26651  contract SimplePools {... */\n      swap2\n      pop\n      div\n        /* \"SimplePools.sol\":28281:28307  return prod0 / denominator */\n      swap1\n      jump\t// out\n        /* \"SimplePools.sol\":27383:31388  function mulDiv(... */\n    tag_36:\n      swap2\n      not(0x00)\n        /* \"SimplePools.sol\":27996:28166  assembly {... */\n      dup3\n        /* \"SimplePools.sol\":27383:31388  function mulDiv(... */\n      dup5\n        /* \"SimplePools.sol\":27996:28166  assembly {... */\n      mulmod\n      swap3\n      dup3\n      dup2\n      mul\n      swap3\n      dup4\n      dup1\n      dup7\n      lt\n      swap6\n      sub\n      swap5\n      dup1\n      dup7\n      sub\n        /* \"SimplePools.sol\":28250:28260  prod1 == 0 */\n      swap6\n      eq\n        /* \"SimplePools.sol\":28246:28323  if (prod1 == 0) {... */\n      tag_647\n      jumpi\n        /* \"SimplePools.sol\":28436:28455  denominator > prod1 */\n      dup5\n      dup4\n      gt\n        /* \"SimplePools.sol\":886:26651  contract SimplePools {... */\n      iszero\n      tag_419\n      jumpi\n        /* \"SimplePools.sol\":28751:29058  assembly {... */\n      dup3\n      swap2\n      mulmod\n        /* \"SimplePools.sol\":29416:29417  1 */\n      0x01\n        /* \"SimplePools.sol\":29401:29413  ~denominator */\n      dup3\n      not\n        /* \"SimplePools.sol\":886:26651  contract SimplePools {... */\n      add\n        /* \"SimplePools.sol\":29386:29418  denominator & (~denominator + 1) */\n      dup3\n      and\n        /* \"SimplePools.sol\":29433:29813  assembly {... */\n      dup1\n      swap3\n      div\n        /* \"SimplePools.sol\":30264:30265  2 */\n      0x02\n        /* \"SimplePools.sol\":886:26651  contract SimplePools {... */\n      dup1\n      dup3\n        /* \"SimplePools.sol\":30245:30246  3 */\n      0x03\n        /* \"SimplePools.sol\":886:26651  contract SimplePools {... */\n      mul\n        /* \"SimplePools.sol\":30244:30265  (3 * denominator) ^ 2 */\n      xor\n        /* \"SimplePools.sol\":886:26651  contract SimplePools {... */\n      dup1\n      dup4\n      mul\n      dup3\n      sub\n      mul\n      dup1\n      dup4\n      mul\n      dup3\n      sub\n      mul\n      dup1\n      dup4\n      mul\n      dup3\n      sub\n      mul\n      dup1\n      dup4\n      mul\n      dup3\n      sub\n      mul\n      dup1\n      dup4\n      mul\n      dup3\n      sub\n      mul\n      dup1\n      swap3\n      mul\n      swap1\n      sub\n      mul\n        /* \"SimplePools.sol\":29433:29813  assembly {... */\n      swap4\n        /* \"SimplePools.sol\":29416:29417  1 */\n      0x01\n        /* \"SimplePools.sol\":29433:29813  assembly {... */\n      dup4\n      dup1\n        /* \"SimplePools.sol\":27996:28166  assembly {... */\n      0x00\n        /* \"SimplePools.sol\":29433:29813  assembly {... */\n      sub\n      div\n      add\n        /* \"SimplePools.sol\":28751:29058  assembly {... */\n      swap1\n      dup5\n      dup4\n      gt\n      swap1\n      sub\n        /* \"SimplePools.sol\":886:26651  contract SimplePools {... */\n      mul\n        /* \"SimplePools.sol\":28751:29058  assembly {... */\n      swap3\n      sub\n        /* \"SimplePools.sol\":29433:29813  assembly {... */\n      div\n        /* \"SimplePools.sol\":29882:29903  prod0 |= prod1 * twos */\n      or\n        /* \"SimplePools.sol\":886:26651  contract SimplePools {... */\n      mul\n        /* \"SimplePools.sol\":27383:31388  function mulDiv(... */\n      swap1\n      jump\t// out\n        /* \"SimplePools.sol\":28246:28323  if (prod1 == 0) {... */\n    tag_647:\n        /* \"SimplePools.sol\":28288:28307  prod0 / denominator */\n      pop\n      pop\n      swap1\n      tag_651\n      swap3\n      pop\n      tag_18\n      jump\t// in\n    tag_651:\n        /* \"SimplePools.sol\":28281:28307  return prod0 / denominator */\n      swap1\n      jump\t// out\n    stop\n    data_63d75db57ae45c3799740c3cd8dcee96a498324843d79ae390adc81d74b52f13 290decd9548b62a8d60345a988386fc84ba6bc95484008f6362f93160ef3e565\n    data_9c418048a637d1641c6d732dd38174732bbf7b47a1cf6d5f65895384518b07d9 290decd9548b62a8d60345a988386fc84ba6bc95484008f6362f93160ef3e567\n    data_aaab8540682e3a537d17674663ea013e92c83fdd69958f314b4521edb3b76f1a 290decd9548b62a8d60345a988386fc84ba6bc95484008f6362f93160ef3e569\n\n    auxdata: 0xa26469706673582212203c442a543119d2823687284290577bbe6779062d85a3d7810693e4883c9a0f4664736f6c63430008110033\n}\n",
				"bytecode": {
					"linkReferences": {},
					"object": "6080346200010a5766038d7ea4c680006003819055906001600160401b0360a0820181811183821017620000f4576040526509184e72a0008252602092655af3107a4000848401526040830152662386f26fc10000606083015267016345785d8a000060808301526004549160059283600455808410620000c8575b509060046000528360002060005b848110620000b357600280546001600160a01b0319163317905560405161268c9081620001108239f35b83518316828201559285019260010162000089565b6000600481528486822092830192015b828110620000e85750506200007b565b818155600101620000d8565b634e487b7160e01b600052604160045260246000fd5b600080fdfe6040608081526004908136101561001d575b5050361561001b57005b005b600091823560e01c80630376e49c146113395780630c95be251461108557806312065fe01461106a5780631e67d5421461103057806322668de114610f405780633997663c14610e4c578063455b5adc14610dd8578063578cb8f914610db957806357b0b64d14610a4e57806374d13a231461090b57806381d802ba1461082a578063919adab8146107e3578063acb8001f14610735578063b0b15560146105f4578063b4ac6860146105d7578063ce606ee0146105ae578063d5700cbb14610561578063f5a1f5b4146104bd578063f6fce7a91461034c578063f8c81b90146102835763fa5a67ed146101115750610011565b8160031936011261027f576101246113ac565b60243561013c85546001600160401b0384161061224c565b6101458261154b565b5060098101549361015c60ff8660a01c16156121cd565b6001600160a01b039433908616036102205782156101c4575085936101898594859460068695015561166c565b61019760035434101561220a565b60025416819034156101ba575b3491f1156101b0575080f35b51903d90823e3d90fd5b6108fc91506101a4565b608490602087519162461bcd60e51b8352820152603060248201527f696e76616c696420636f6e7374616e742070726f6475637420286f6e6c79207060448201526f6f736974697665206e756d626572732960801b6064820152fd5b608490602087519162461bcd60e51b8352820152603360248201527f6f6e6c792074686520706f6f6c206f776e65722063616e206368616e676520746044820152721a194818dbdb9cdd185b9d081c1c9bd91d58dd606a1b6064820152fd5b8280fd5b82843461034957816003193601126103495761029d6113ac565b90816102dc6102aa6113c7565b6102d66001600160401b0395826102d188809516978584168911908161033d575b50612289565b6122c7565b1661234f565b92815b83828216106102f9578551806102f58782611498565b0390f35b806103326103096103389361154b565b508461031e61031888866122c7565b926123cb565b91169061032b828a6123b7565b52876123b7565b5061239f565b6102df565b9050548811158b6102cb565b80fd5b508160031936011261027f576103606113ac565b60243560ff81168091036104b95761038385546001600160401b0384161061224c565b600961038e8361154b565b500154926103a260ff8560a01c16156121cd565b6001600160a01b039333908516036104445760648211158061043b575b156103ec57508480936101898483959460056103db869761154b565b50019060ff1982541617905561166c565b608490602086519162461bcd60e51b8352820152602360248201527f696e76616c6964206d61782070657263656e7420706572207472616e7361637460448201526234b7b760e91b6064820152fd5b508115156103bf565b60a490602086519162461bcd60e51b8352820152604360248201527f6f6e6c792074686520706f6f6c206f776e65722063616e206368616e6765206e60448201527f65774d617842757941737365743150657263656e745065725472616e7361637460648201526234b7b760e91b6084820152fd5b8480fd5b50903461027f57602036600319011261027f576104d86115dd565b600254926001600160a01b0392838516330361050a57505016906bffffffffffffffffffffffff60a01b161760025580f35b906020608492519162461bcd60e51b8352820152602b60248201527f6f6e6c79207468652063757272656e74206f776e65722063616e206368616e6760448201526a32903a34329037bbb732b960a91b6064820152fd5b505060a03660031901126105aa576105776115dd565b61057f6113c7565b926044359081151582036103495750926105a3916020946084359260643592611753565b9051908152f35b5080fd5b5050346105aa57816003193601126105aa5760025490516001600160a01b039091168152602090f35b5050346105aa57816003193601126105aa57602091549051908152f35b5090602036600319011261027f5761060a6113ac565b9161062084546001600160401b0385161061218f565b600961062b8461154b565b50019283549160ff8360a01c166106f9576001600160a01b039233908416036106aa57508480809361065d829461166c565b61066b60035434101561220a565b60025416819034156106a0575b3491f1156106955750805460ff60a01b1916600160a01b17905580f35b51913d9150823e3d90fd5b6108fc9150610678565b608490602085519162461bcd60e51b8352820152602360248201527f6f6e6c792074686520706f6f6c206f776e65722063616e206c6f636b206120706044820152621bdbdb60ea1b6064820152fd5b606490602085519162461bcd60e51b835282015260166024820152751c1bdbdb081a5cc8185b1c9958591e481b1bd8dad95960521b6044820152fd5b828434610349578160031936011261034957506107506113ac565b6107586113c7565b916001600160401b03926107888461078285828516948382168611806107d7575b6102d190612289565b166124d8565b92805b82868216106107a1578351806102f58782611599565b80866107af6107d293611616565b90549060031b1c166107cc886107c586856122c7565b16886123b7565b5261239f565b61078b565b50600154861115610779565b5050346105aa5760203660031901126105aa576101e09061082861081f61081961080b6113ac565b6108136122e0565b5061154b565b506123cb565b915180926113dd565bf35b508160031936011261027f5761083e6113ac565b6001600160a01b0391602435838116908190036109075761086a86546001600160401b0385161061224c565b60096108758461154b565b50019182549061088b60ff8360a01c16156121cd565b33868316036108b3576001600160a01b03198216831784558787818080808b6101898c61166c565b608490602088519162461bcd60e51b8352820152602860248201527f6f6e6c792074686520706f6f6c206f776e65722063616e206368616e6765206f6044820152670776e6572736869760c41b6064820152fd5b8580fd5b503461027f57602036600319011261027f5780359160ff8316908184036104b9576002546001600160a01b031633036109fa578254809210806109f2575b15610993575082101561098057507f8a35acfbc15ff81a39ae7d344fd709f28e8600b4aa8c65c6b64bfe7fe36bd19b015460035580f35b634e487b7160e01b835260329052602482fd5b5162461bcd60e51b8152602081840152603460248201527f696e76616c6964206e6577546178496e64657846726f6d56616c6964436f6e74604482015273726163745472616e73616374696f6e546178657360601b6064820152608490fd5b506001610949565b5162461bcd60e51b8152602081840152602960248201527f6f6e6c79207468652063757272656e74206f776e65722063616e206368616e676044820152680ca40e8d0ca40e8c2f60bb1b6064820152608490fd5b5091906101203660031901126105aa57610a666115dd565b9060243590811515908183036104b9576001600160a01b039260443584811690818103610db557606435801515809103610db157608435878116809103610dad5760a4359660c4359660e4359660ff8816809803610da9576101043596871515809803610da557600354610ae3908f8415610d9f57508c906115f3565b3410610d4a578c8f8f928d916001600160401b0385541695610b048761166c565b15610c955750505050808b8015610c8b575b8280929181923090f115610c78578c8080808d8f610b39906002541691346116c7565b90828215610c82575bf115610c78575b8c54600160401b811015610c6357918d9e959391838f9e9f9d9e60018d9a9896019055610b759061154b565b50805467ffffffffffffffff191682179055610b909061154b565b508054600282018d90556001820180546001600160a01b03191695909517909455600381019c909c5560ff60e81b60e89490941b93909316921b68ff0000000000000000166901000000000000000000600160e81b0360489490941b9390931668010000000000000000600160f01b0319909116179190911717875586015560058501805460ff1990811693909317905560078501805490921660ff91909116179055610c3d90826116d4565b60068301556008820155600901911669ffffffffffffffffffff60b01b82541617905580f35b5050634e487b7160e01b8c5260418d5260248cfd5b81513d8e823e3d90fd5b506108fc610b42565b6108fc9150610b16565b86516323b872dd60e01b81526001600160a01b039094169084019081523060208281019190915260408201939093529293919284928391829060600103925af18015610d3e578e808e81948294610d10575b506002541681903415610d06575b3491f1610b495781513d8e823e3d90fd5b6108fc9150610cf5565b610d309060203d8111610d37575b610d288183611513565b8101906116af565b5038610ce7565b503d610d1e565b8e8451903d90823e3d90fd5b60848f602085519162461bcd60e51b8352820152602960248201527f4c6f776572207468616e20746865207265717569726564207472616e73616374604482015268696f6e2076616c756560b81b6064820152fd5b906115f3565b8d80fd5b8c80fd5b8980fd5b8880fd5b8780fd5b5050346105aa57816003193601126105aa576020906001549051908152f35b8284346103495760203660031901126103495750610df46113ac565b600154916001600160401b0392610e20610e1b858516610e1584821061249c565b836116c7565b6124d8565b92805b8286821610610e39578351806102f58782611599565b80866107af610e4793611616565b610e23565b503461027f57602036600319011261027f5780359280548410156103495750610e776101e09361154b565b5080549060018060a01b03908160018201541660028201546003830154958301549560ff96876005860154169160068601549389600788015416958a600960088a01549901549a8d51809e6001600160401b03831682528383821c16151560208301528c8360481c1691015260e81c16151560608d015260808c015260a08b015260c08a015260e089015261010088015261012087015215156101408601526101608501528116610180840152818160a01c1615156101a084015260a81c1615156101c0820152f35b50823461034957602091826003193601126105aa578035926001600160401b039182851161102c573660238601121561102c5784013593610f8085611534565b94610f8d87519687611513565b80865260248387019160051b8301019136831161090757602401905b8282106110105750505050610fbe835161234f565b915b835182821690811015611003579061033282610fed61081986610fe6610ffe978b6123b7565b511661154b565b610ff782886123b7565b52856123b7565b610fc0565b8551806102f58682611498565b81358581168103611028578152908301908301610fa9565b8680fd5b8380fd5b5050346105aa5760203660031901126105aa5760209060ff600961105a6110556113ac565b61154b565b50015460a01c1690519015158152f35b5050346105aa57816003193601126105aa5751478152602090f35b5082906020908160031936011261027f5761109e6113ac565b936110b484546001600160401b0387161061218f565b6110bd8561154b565b5090600982019384546110d660ff8260a01c16156121cd565b60ff8160a81c16611306576001600160a01b039033908216036112b857611100879897969761166c565b61110e60035434101561220a565b858080808460025416819034156112ae575b3491f11561122a5783548281851c60ff161561123d575050858080806002880154818115611234575b3390f11561122a5785905b81600286015560ff855460e81c166000146111b55750808080935060038601548181156111ac575b3390f1156111a357505b600381018390550155805460ff60a81b1916600160a81b17905580f35b513d84823e3d90fd5b506108fc61117c565b60018501546003860154855163a9059cbb60e01b8152338982019081526020810192909252949593869386931691839190829060400103925af19081156112215750611203575b5050611186565b8161121992903d10610d3757610d288183611513565b5085806111fc565b513d87823e3d90fd5b82513d87823e3d90fd5b506108fc611149565b6002860154855163a9059cbb60e01b81523389820190815260208101929092529283918290036040019082908b9060481c87165af180156112a45790879291611287575b50611154565b61129d90843d8611610d3757610d288183611513565b5089611281565b84513d89823e3d90fd5b6108fc9150611120565b825162461bcd60e51b8152808601839052602260248201527f6f6e6c792074686520706f6f6c206f776e65722063616e20656d70747920706f6044820152611bdb60f21b6064820152608490fd5b825162461bcd60e51b8152808601839052600d60248201526c706f6f6c20697320656d70747960981b6044820152606490fd5b828434610349576020366003190112610349576113546113ac565b90546001600160401b039161137e61137984831661137385821061249c565b846116c7565b61234f565b92815b8382821610611397578551806102f58782611498565b806103326103096113a79361154b565b611381565b600435906001600160401b03821682036113c257565b600080fd5b602435906001600160401b03821682036113c257565b6001600160401b03815116825260208101511515602083015260018060a01b0380604083015116604084015260608201511515606084015280608083015116608084015260a082015160a084015260c082015160c084015260e082015160e084015261010060ff8184015116908401526101208083015190840152610140808301511515908401526101608083015190840152610180908183015116908301526101a0808201511515908301526101c0809101511515910152565b6020908160408183019282815285518094520193019160005b8281106114bf575050505090565b90919293826101e0826114d560019489516113dd565b019501939291016114b1565b6101e081019081106001600160401b038211176114fd57604052565b634e487b7160e01b600052604160045260246000fd5b90601f801991011681019081106001600160401b038211176114fd57604052565b6001600160401b0381116114fd5760051b60200190565b90600091825481101561158557600a90838052027f290decd9548b62a8d60345a988386fc84ba6bc95484008f6362f93160ef3e563019190565b634e487b7160e01b83526032600452602483fd5b6020908160408183019282815285518094520193019160005b8281106115c0575050505090565b83516001600160401b0316855293810193928101926001016115b2565b600435906001600160a01b03821682036113c257565b9190820180921161160057565b634e487b7160e01b600052601160045260246000fd5b9060015482101561165657600160005260188260021c7fb10e2d527612073b26eecdfd717e6a320cf44b4afac2b0732d9fcbe2b7fa0cf6019260031b1690565b634e487b7160e01b600052603260045260246000fd5b600154600160401b8110156114fd5780600161168b9201600155611616565b819291549060031b916001600160401b039283811b93849216901b16911916179055565b908160209103126113c2575180151581036113c25790565b9190820391821161160057565b8181029291811591840414171561160057565b81156116f1570490565b634e487b7160e01b600052601260045260246000fd5b1561170e57565b60405162461bcd60e51b815260206004820152601760248201527f6c6f776572207472616e73616374696f6e2076616c75650000000000000000006044820152606490fd5b9290926000908154806001600160401b03871610156121595785101561214557818052600a850294857f290decd9548b62a8d60345a988386fc84ba6bc95484008f6362f93160ef3e563017f290decd9548b62a8d60345a988386fc84ba6bc95484008f6362f93160ef3e56c87019560ff9283885460a81c16612110576117d99061166c565b15611c8c577f290decd9548b62a8d60345a988386fc84ba6bc95484008f6362f93160ef3e56a870154821615611c07576118497f290decd9548b62a8d60345a988386fc84ba6bc95484008f6362f93160ef3e56b8801546000805160206126178339815191528901549087612570565b955b6000805160206125f783398151915288019661188e8854857f290decd9548b62a8d60345a988386fc84ba6bc95484008f6362f93160ef3e5688c0154169061250a565b80821015611bfe575080995b11611ba757600354908160011c9184845460e81c16600014611aac57506118ce6118c6600354896115f3565b341015611707565b8580888015611aa2575b8280929181923090f115611a8e57858080808560018060a01b0380965416828215611a99575bf115611a8e57858080936119218294600254169161191c8c346116c7565b6116c7565b90828215611a85575bf115611a7a5790879392915b6119647f290decd9548b62a8d60345a988386fc84ba6bc95484008f6362f93160ef3e56689019687546115f3565b865554908160401c166000146119f65750818080948193829082156119ec575b6001600160a01b031690f1156119e05750600080516020612637833981519152916119d46119da925b6119b88784546116c7565b80935554600080516020612617833981519152860154906115f3565b906116d4565b91015590565b604051903d90823e3d90fd5b6108fc9150611984565b60405163a9059cbb60e01b81526001600160a01b039283166004820152602481019490945260209184916044918391869160489190911c165af19081156119e057506119da9260008051602061263783398151915294926119d492611a5c575b506119ad565b611a739060203d8111610d3757610d288183611513565b5038611a56565b6040513d85823e3d90fd5b506108fc61192a565b6040513d87823e3d90fd5b506108fc6118fe565b6108fc91506118d8565b90611ada7f290decd9548b62a8d60345a988386fc84ba6bc95484008f6362f93160ef3e56492341015611707565b908901546040516323b872dd60e01b81526001600160a01b038781166004830152306024830152604482018a90529291602090829060649082908c9088165af18015611b9c57888585829583958495611b7e575b505416828215611b75575bf115611a8e5785808093611b5382946002541691346116c7565b90828215611b6c575bf115611a7a579087939291611936565b506108fc611b5c565b506108fc611b39565b611b959060203d8111610d3757610d288183611513565b5038611b2e565b6040513d8a823e3d90fd5b60405162461bcd60e51b815260206004820152602960248201527f6d696e52656365697665206973206c657373207468616e2063616c6375616c74604482015268195908185b5bdd5b9d60ba1b6064820152608490fd5b9050809961189a565b611c866000805160206125f7833981519152880154611c806000805160206126378339815191528a0154611c7a89611c758d7f290decd9548b62a8d60345a988386fc84ba6bc95484008f6362f93160ef3e566600080516020612617833981519152820154910154906115f3565b6115f3565b906116e7565b906116c7565b9561184b565b9491907f290decd9548b62a8d60345a988386fc84ba6bc95484008f6362f93160ef3e566870195865480156120b9577f290decd9548b62a8d60345a988386fc84ba6bc95484008f6362f93160ef3e56a89015483161561206457611d266000805160206126178339815191528a01547f290decd9548b62a8d60345a988386fc84ba6bc95484008f6362f93160ef3e56b8b01549089612570565b905b8082101561205b575080995b11612004576003548154604095600183901c9282881c861615611f3057509050611d636118c66003548a6115f3565b8680898015611f26575b8280929181923090f115611f1357868080808560018060a01b0380965416828215611f1d575bf115611f135786808093611db18294600254169161191c8d346116c7565b90828215611f0a575bf115611efd57908892915b611de16000805160206125f78339815191528a019788546115f3565b87555460e81c1615611e585783808093819382908215611e4e575b6001600160a01b031690f1156101b0575050600080516020612637833981519152916119d46119da925b611e318784546116c7565b8093555491600080516020612617833981519152860154906115f3565b6108fc9150611dfc565b7f290decd9548b62a8d60345a988386fc84ba6bc95484008f6362f93160ef3e564870154835163a9059cbb60e01b81526001600160a01b0392831660048201526024810193909352919391602091859160449183918691165af19182156101b05750506119da9260008051602061263783398151915294926119d492611edf575b50611e26565b611ef69060203d8111610d3757610d288183611513565b5038611ed9565b50505051903d90823e3d90fd5b506108fc611dba565b85513d88823e3d90fd5b506108fc611d93565b6108fc9150611d6d565b611f3c90341015611707565b86516323b872dd60e01b81526001600160a01b038781166004830152306024830152604482018b905292602090829060649082908d9060481c88165af18015611ffa57898585829583958495611fdc575b505416828215611fd3575bf115611f135786808093611fb282946002541691346116c7565b90828215611fca575bf115611efd5790889291611dc5565b506108fc611fbb565b506108fc611f98565b611ff39060203d8111610d3757610d288183611513565b5038611f8d565b88513d8b823e3d90fd5b60405162461bcd60e51b815260206004820152602960248201527f6d696e52656365697665206973206d6f7265207468616e2063616c6375616c74604482015268195908185b5bdd5b9d60ba1b6064820152608490fd5b90508099611d34565b6120b3612082826000805160206126178339815191528c01546115f3565b611c808b611c7a8b6000805160206125f78339815191526000805160206126378339815191528401549301546115f3565b90611d28565b60405162461bcd60e51b815260206004820152602960248201527f7a65726f20616d6f756e74206f662061737365743220666f722062757920696e604482015268081d1a19481c1bdbdb60ba1b6064820152608490fd5b60405162461bcd60e51b815260206004820152600d60248201526c506f6f6c20697320656d70747960981b6044820152606490fd5b634e487b7160e01b82526032600452602482fd5b60405162461bcd60e51b815260206004820152600e60248201526d125b9d985b1a59081c1bdbdb125960921b6044820152606490fd5b1561219657565b60405162461bcd60e51b815260206004820152600f60248201526e1a5b9d985b1a59081c1bdbdb081a59608a1b6044820152606490fd5b156121d457565b60405162461bcd60e51b815260206004820152600e60248201526d1c1bdbdb081a5cc81b1bd8dad95960921b6044820152606490fd5b1561221157565b60405162461bcd60e51b81526020600482015260136024820152721b1bddd95c881d185e081cdc1958da599a5959606a1b6044820152606490fd5b1561225357565b60405162461bcd60e51b815260206004820152600e60248201526d1a5b9d985b1a59081c1bdbdb125960921b6044820152606490fd5b1561229057565b60405162461bcd60e51b815260206004820152600f60248201526e696e76616c696420696e646578657360881b6044820152606490fd5b6001600160401b03918216908216039190821161160057565b604051906122ed826114e1565b816101c06000918281528260208201528260408201528260608201528260808201528260a08201528260c08201528260e08201528261010082015282610120820152826101408201528261016082015282610180820152826101a08201520152565b9061235982611534565b6123666040519182611513565b8281528092612377601f1991611534565b019060005b82811061238857505050565b6020906123936122e0565b8282850101520161237c565b6001600160401b038091169081146116005760010190565b80518210156116565760209160051b010190565b906040516123d8816114e1565b6101c0819380546001600160401b0381168452600960ff92838360401c16151560208701528360018060a01b0393848160481c16604089015260e81c1615156060870152826001820154166080870152600281015460a0870152600381015460c0870152600481015460e087015283600582015416610100870152600681015461012087015283600782015416151561014087015260088101546101608701520154908116610180850152818160a01c1615156101a085015260a81c161515910152565b156124a357565b60405162461bcd60e51b815260206004820152600d60248201526c0d2dcecc2d8d2c840d2dcc8caf609b1b6044820152606490fd5b906124e282611534565b6124ef6040519182611513565b8281528092612500601f1991611534565b0190602036910137565b600019828209828202918280831092039180830392146125665781606411156113c2577f5c28f5c28f5c28f5c28f5c28f5c28f5c28f5c28f5c28f5c28f5c28f5c28f5c29936064910990828211900360fe1b910360021c170290565b5050606491500490565b9160001982840992828102928380861095039480860395146125e657848311156113c2578291096001821901821680920460028082600302188083028203028083028203028083028203028083028203028083028203028092029003029360018380600003040190848311900302920304170290565b5050906125f392506116e7565b9056fe290decd9548b62a8d60345a988386fc84ba6bc95484008f6362f93160ef3e565290decd9548b62a8d60345a988386fc84ba6bc95484008f6362f93160ef3e567290decd9548b62a8d60345a988386fc84ba6bc95484008f6362f93160ef3e569a26469706673582212203c442a543119d2823687284290577bbe6779062d85a3d7810693e4883c9a0f4664736f6c63430008110033",
					"opcodes": "PUSH1 0x80 CALLVALUE PUSH3 0x10A JUMPI PUSH7 0x38D7EA4C68000 PUSH1 0x3 DUP2 SWAP1 SSTORE SWAP1 PUSH1 0x1 PUSH1 0x1 PUSH1 0x40 SHL SUB PUSH1 0xA0 DUP3 ADD DUP2 DUP2 GT DUP4 DUP3 LT OR PUSH3 0xF4 JUMPI PUSH1 0x40 MSTORE PUSH6 0x9184E72A000 DUP3 MSTORE PUSH1 0x20 SWAP3 PUSH6 0x5AF3107A4000 DUP5 DUP5 ADD MSTORE PUSH1 0x40 DUP4 ADD MSTORE PUSH7 0x2386F26FC10000 PUSH1 0x60 DUP4 ADD MSTORE PUSH8 0x16345785D8A0000 PUSH1 0x80 DUP4 ADD MSTORE PUSH1 0x4 SLOAD SWAP2 PUSH1 0x5 SWAP3 DUP4 PUSH1 0x4 SSTORE DUP1 DUP5 LT PUSH3 0xC8 JUMPI JUMPDEST POP SWAP1 PUSH1 0x4 PUSH1 0x0 MSTORE DUP4 PUSH1 0x0 KECCAK256 PUSH1 0x0 JUMPDEST DUP5 DUP2 LT PUSH3 0xB3 JUMPI PUSH1 0x2 DUP1 SLOAD PUSH1 0x1 PUSH1 0x1 PUSH1 0xA0 SHL SUB NOT AND CALLER OR SWAP1 SSTORE PUSH1 0x40 MLOAD PUSH2 0x268C SWAP1 DUP2 PUSH3 0x110 DUP3 CODECOPY RETURN JUMPDEST DUP4 MLOAD DUP4 AND DUP3 DUP3 ADD SSTORE SWAP3 DUP6 ADD SWAP3 PUSH1 0x1 ADD PUSH3 0x89 JUMP JUMPDEST PUSH1 0x0 PUSH1 0x4 DUP2 MSTORE DUP5 DUP7 DUP3 KECCAK256 SWAP3 DUP4 ADD SWAP3 ADD JUMPDEST DUP3 DUP2 LT PUSH3 0xE8 JUMPI POP POP PUSH3 0x7B JUMP JUMPDEST DUP2 DUP2 SSTORE PUSH1 0x1 ADD PUSH3 0xD8 JUMP JUMPDEST PUSH4 0x4E487B71 PUSH1 0xE0 SHL PUSH1 0x0 MSTORE PUSH1 0x41 PUSH1 0x4 MSTORE PUSH1 0x24 PUSH1 0x0 REVERT JUMPDEST PUSH1 0x0 DUP1 REVERT INVALID PUSH1 0x40 PUSH1 0x80 DUP2 MSTORE PUSH1 0x4 SWAP1 DUP2 CALLDATASIZE LT ISZERO PUSH2 0x1D JUMPI JUMPDEST POP POP CALLDATASIZE ISZERO PUSH2 0x1B JUMPI STOP JUMPDEST STOP JUMPDEST PUSH1 0x0 SWAP2 DUP3 CALLDATALOAD PUSH1 0xE0 SHR DUP1 PUSH4 0x376E49C EQ PUSH2 0x1339 JUMPI DUP1 PUSH4 0xC95BE25 EQ PUSH2 0x1085 JUMPI DUP1 PUSH4 0x12065FE0 EQ PUSH2 0x106A JUMPI DUP1 PUSH4 0x1E67D542 EQ PUSH2 0x1030 JUMPI DUP1 PUSH4 0x22668DE1 EQ PUSH2 0xF40 JUMPI DUP1 PUSH4 0x3997663C EQ PUSH2 0xE4C JUMPI DUP1 PUSH4 0x455B5ADC EQ PUSH2 0xDD8 JUMPI DUP1 PUSH4 0x578CB8F9 EQ PUSH2 0xDB9 JUMPI DUP1 PUSH4 0x57B0B64D EQ PUSH2 0xA4E JUMPI DUP1 PUSH4 0x74D13A23 EQ PUSH2 0x90B JUMPI DUP1 PUSH4 0x81D802BA EQ PUSH2 0x82A JUMPI DUP1 PUSH4 0x919ADAB8 EQ PUSH2 0x7E3 JUMPI DUP1 PUSH4 0xACB8001F EQ PUSH2 0x735 JUMPI DUP1 PUSH4 0xB0B15560 EQ PUSH2 0x5F4 JUMPI DUP1 PUSH4 0xB4AC6860 EQ PUSH2 0x5D7 JUMPI DUP1 PUSH4 0xCE606EE0 EQ PUSH2 0x5AE JUMPI DUP1 PUSH4 0xD5700CBB EQ PUSH2 0x561 JUMPI DUP1 PUSH4 0xF5A1F5B4 EQ PUSH2 0x4BD JUMPI DUP1 PUSH4 0xF6FCE7A9 EQ PUSH2 0x34C JUMPI DUP1 PUSH4 0xF8C81B90 EQ PUSH2 0x283 JUMPI PUSH4 0xFA5A67ED EQ PUSH2 0x111 JUMPI POP PUSH2 0x11 JUMP JUMPDEST DUP2 PUSH1 0x3 NOT CALLDATASIZE ADD SLT PUSH2 0x27F JUMPI PUSH2 0x124 PUSH2 0x13AC JUMP JUMPDEST PUSH1 0x24 CALLDATALOAD PUSH2 0x13C DUP6 SLOAD PUSH1 0x1 PUSH1 0x1 PUSH1 0x40 SHL SUB DUP5 AND LT PUSH2 0x224C JUMP JUMPDEST PUSH2 0x145 DUP3 PUSH2 0x154B JUMP JUMPDEST POP PUSH1 0x9 DUP2 ADD SLOAD SWAP4 PUSH2 0x15C PUSH1 0xFF DUP7 PUSH1 0xA0 SHR AND ISZERO PUSH2 0x21CD JUMP JUMPDEST PUSH1 0x1 PUSH1 0x1 PUSH1 0xA0 SHL SUB SWAP5 CALLER SWAP1 DUP7 AND SUB PUSH2 0x220 JUMPI DUP3 ISZERO PUSH2 0x1C4 JUMPI POP DUP6 SWAP4 PUSH2 0x189 DUP6 SWAP5 DUP6 SWAP5 PUSH1 0x6 DUP7 SWAP6 ADD SSTORE PUSH2 0x166C JUMP JUMPDEST PUSH2 0x197 PUSH1 0x3 SLOAD CALLVALUE LT ISZERO PUSH2 0x220A JUMP JUMPDEST PUSH1 0x2 SLOAD AND DUP2 SWAP1 CALLVALUE ISZERO PUSH2 0x1BA JUMPI JUMPDEST CALLVALUE SWAP2 CALL ISZERO PUSH2 0x1B0 JUMPI POP DUP1 RETURN JUMPDEST MLOAD SWAP1 RETURNDATASIZE SWAP1 DUP3 RETURNDATACOPY RETURNDATASIZE SWAP1 REVERT JUMPDEST PUSH2 0x8FC SWAP2 POP PUSH2 0x1A4 JUMP JUMPDEST PUSH1 0x84 SWAP1 PUSH1 0x20 DUP8 MLOAD SWAP2 PUSH3 0x461BCD PUSH1 0xE5 SHL DUP4 MSTORE DUP3 ADD MSTORE PUSH1 0x30 PUSH1 0x24 DUP3 ADD MSTORE PUSH32 0x696E76616C696420636F6E7374616E742070726F6475637420286F6E6C792070 PUSH1 0x44 DUP3 ADD MSTORE PUSH16 0x6F736974697665206E756D6265727329 PUSH1 0x80 SHL PUSH1 0x64 DUP3 ADD MSTORE REVERT JUMPDEST PUSH1 0x84 SWAP1 PUSH1 0x20 DUP8 MLOAD SWAP2 PUSH3 0x461BCD PUSH1 0xE5 SHL DUP4 MSTORE DUP3 ADD MSTORE PUSH1 0x33 PUSH1 0x24 DUP3 ADD MSTORE PUSH32 0x6F6E6C792074686520706F6F6C206F776E65722063616E206368616E67652074 PUSH1 0x44 DUP3 ADD MSTORE PUSH19 0x1A194818DBDB9CDD185B9D081C1C9BD91D58DD PUSH1 0x6A SHL PUSH1 0x64 DUP3 ADD MSTORE REVERT JUMPDEST DUP3 DUP1 REVERT JUMPDEST DUP3 DUP5 CALLVALUE PUSH2 0x349 JUMPI DUP2 PUSH1 0x3 NOT CALLDATASIZE ADD SLT PUSH2 0x349 JUMPI PUSH2 0x29D PUSH2 0x13AC JUMP JUMPDEST SWAP1 DUP2 PUSH2 0x2DC PUSH2 0x2AA PUSH2 0x13C7 JUMP JUMPDEST PUSH2 0x2D6 PUSH1 0x1 PUSH1 0x1 PUSH1 0x40 SHL SUB SWAP6 DUP3 PUSH2 0x2D1 DUP9 DUP1 SWAP6 AND SWAP8 DUP6 DUP5 AND DUP10 GT SWAP1 DUP2 PUSH2 0x33D JUMPI JUMPDEST POP PUSH2 0x2289 JUMP JUMPDEST PUSH2 0x22C7 JUMP JUMPDEST AND PUSH2 0x234F JUMP JUMPDEST SWAP3 DUP2 JUMPDEST DUP4 DUP3 DUP3 AND LT PUSH2 0x2F9 JUMPI DUP6 MLOAD DUP1 PUSH2 0x2F5 DUP8 DUP3 PUSH2 0x1498 JUMP JUMPDEST SUB SWAP1 RETURN JUMPDEST DUP1 PUSH2 0x332 PUSH2 0x309 PUSH2 0x338 SWAP4 PUSH2 0x154B JUMP JUMPDEST POP DUP5 PUSH2 0x31E PUSH2 0x318 DUP9 DUP7 PUSH2 0x22C7 JUMP JUMPDEST SWAP3 PUSH2 0x23CB JUMP JUMPDEST SWAP2 AND SWAP1 PUSH2 0x32B DUP3 DUP11 PUSH2 0x23B7 JUMP JUMPDEST MSTORE DUP8 PUSH2 0x23B7 JUMP JUMPDEST POP PUSH2 0x239F JUMP JUMPDEST PUSH2 0x2DF JUMP JUMPDEST SWAP1 POP SLOAD DUP9 GT ISZERO DUP12 PUSH2 0x2CB JUMP JUMPDEST DUP1 REVERT JUMPDEST POP DUP2 PUSH1 0x3 NOT CALLDATASIZE ADD SLT PUSH2 0x27F JUMPI PUSH2 0x360 PUSH2 0x13AC JUMP JUMPDEST PUSH1 0x24 CALLDATALOAD PUSH1 0xFF DUP2 AND DUP1 SWAP2 SUB PUSH2 0x4B9 JUMPI PUSH2 0x383 DUP6 SLOAD PUSH1 0x1 PUSH1 0x1 PUSH1 0x40 SHL SUB DUP5 AND LT PUSH2 0x224C JUMP JUMPDEST PUSH1 0x9 PUSH2 0x38E DUP4 PUSH2 0x154B JUMP JUMPDEST POP ADD SLOAD SWAP3 PUSH2 0x3A2 PUSH1 0xFF DUP6 PUSH1 0xA0 SHR AND ISZERO PUSH2 0x21CD JUMP JUMPDEST PUSH1 0x1 PUSH1 0x1 PUSH1 0xA0 SHL SUB SWAP4 CALLER SWAP1 DUP6 AND SUB PUSH2 0x444 JUMPI PUSH1 0x64 DUP3 GT ISZERO DUP1 PUSH2 0x43B JUMPI JUMPDEST ISZERO PUSH2 0x3EC JUMPI POP DUP5 DUP1 SWAP4 PUSH2 0x189 DUP5 DUP4 SWAP6 SWAP5 PUSH1 0x5 PUSH2 0x3DB DUP7 SWAP8 PUSH2 0x154B JUMP JUMPDEST POP ADD SWAP1 PUSH1 0xFF NOT DUP3 SLOAD AND OR SWAP1 SSTORE PUSH2 0x166C JUMP JUMPDEST PUSH1 0x84 SWAP1 PUSH1 0x20 DUP7 MLOAD SWAP2 PUSH3 0x461BCD PUSH1 0xE5 SHL DUP4 MSTORE DUP3 ADD MSTORE PUSH1 0x23 PUSH1 0x24 DUP3 ADD MSTORE PUSH32 0x696E76616C6964206D61782070657263656E7420706572207472616E73616374 PUSH1 0x44 DUP3 ADD MSTORE PUSH3 0x34B7B7 PUSH1 0xE9 SHL PUSH1 0x64 DUP3 ADD MSTORE REVERT JUMPDEST POP DUP2 ISZERO ISZERO PUSH2 0x3BF JUMP JUMPDEST PUSH1 0xA4 SWAP1 PUSH1 0x20 DUP7 MLOAD SWAP2 PUSH3 0x461BCD PUSH1 0xE5 SHL DUP4 MSTORE DUP3 ADD MSTORE PUSH1 0x43 PUSH1 0x24 DUP3 ADD MSTORE PUSH32 0x6F6E6C792074686520706F6F6C206F776E65722063616E206368616E6765206E PUSH1 0x44 DUP3 ADD MSTORE PUSH32 0x65774D617842757941737365743150657263656E745065725472616E73616374 PUSH1 0x64 DUP3 ADD MSTORE PUSH3 0x34B7B7 PUSH1 0xE9 SHL PUSH1 0x84 DUP3 ADD MSTORE REVERT JUMPDEST DUP5 DUP1 REVERT JUMPDEST POP SWAP1 CALLVALUE PUSH2 0x27F JUMPI PUSH1 0x20 CALLDATASIZE PUSH1 0x3 NOT ADD SLT PUSH2 0x27F JUMPI PUSH2 0x4D8 PUSH2 0x15DD JUMP JUMPDEST PUSH1 0x2 SLOAD SWAP3 PUSH1 0x1 PUSH1 0x1 PUSH1 0xA0 SHL SUB SWAP3 DUP4 DUP6 AND CALLER SUB PUSH2 0x50A JUMPI POP POP AND SWAP1 PUSH12 0xFFFFFFFFFFFFFFFFFFFFFFFF PUSH1 0xA0 SHL AND OR PUSH1 0x2 SSTORE DUP1 RETURN JUMPDEST SWAP1 PUSH1 0x20 PUSH1 0x84 SWAP3 MLOAD SWAP2 PUSH3 0x461BCD PUSH1 0xE5 SHL DUP4 MSTORE DUP3 ADD MSTORE PUSH1 0x2B PUSH1 0x24 DUP3 ADD MSTORE PUSH32 0x6F6E6C79207468652063757272656E74206F776E65722063616E206368616E67 PUSH1 0x44 DUP3 ADD MSTORE PUSH11 0x32903A34329037BBB732B9 PUSH1 0xA9 SHL PUSH1 0x64 DUP3 ADD MSTORE REVERT JUMPDEST POP POP PUSH1 0xA0 CALLDATASIZE PUSH1 0x3 NOT ADD SLT PUSH2 0x5AA JUMPI PUSH2 0x577 PUSH2 0x15DD JUMP JUMPDEST PUSH2 0x57F PUSH2 0x13C7 JUMP JUMPDEST SWAP3 PUSH1 0x44 CALLDATALOAD SWAP1 DUP2 ISZERO ISZERO DUP3 SUB PUSH2 0x349 JUMPI POP SWAP3 PUSH2 0x5A3 SWAP2 PUSH1 0x20 SWAP5 PUSH1 0x84 CALLDATALOAD SWAP3 PUSH1 0x64 CALLDATALOAD SWAP3 PUSH2 0x1753 JUMP JUMPDEST SWAP1 MLOAD SWAP1 DUP2 MSTORE RETURN JUMPDEST POP DUP1 REVERT JUMPDEST POP POP CALLVALUE PUSH2 0x5AA JUMPI DUP2 PUSH1 0x3 NOT CALLDATASIZE ADD SLT PUSH2 0x5AA JUMPI PUSH1 0x2 SLOAD SWAP1 MLOAD PUSH1 0x1 PUSH1 0x1 PUSH1 0xA0 SHL SUB SWAP1 SWAP2 AND DUP2 MSTORE PUSH1 0x20 SWAP1 RETURN JUMPDEST POP POP CALLVALUE PUSH2 0x5AA JUMPI DUP2 PUSH1 0x3 NOT CALLDATASIZE ADD SLT PUSH2 0x5AA JUMPI PUSH1 0x20 SWAP2 SLOAD SWAP1 MLOAD SWAP1 DUP2 MSTORE RETURN JUMPDEST POP SWAP1 PUSH1 0x20 CALLDATASIZE PUSH1 0x3 NOT ADD SLT PUSH2 0x27F JUMPI PUSH2 0x60A PUSH2 0x13AC JUMP JUMPDEST SWAP2 PUSH2 0x620 DUP5 SLOAD PUSH1 0x1 PUSH1 0x1 PUSH1 0x40 SHL SUB DUP6 AND LT PUSH2 0x218F JUMP JUMPDEST PUSH1 0x9 PUSH2 0x62B DUP5 PUSH2 0x154B JUMP JUMPDEST POP ADD SWAP3 DUP4 SLOAD SWAP2 PUSH1 0xFF DUP4 PUSH1 0xA0 SHR AND PUSH2 0x6F9 JUMPI PUSH1 0x1 PUSH1 0x1 PUSH1 0xA0 SHL SUB SWAP3 CALLER SWAP1 DUP5 AND SUB PUSH2 0x6AA JUMPI POP DUP5 DUP1 DUP1 SWAP4 PUSH2 0x65D DUP3 SWAP5 PUSH2 0x166C JUMP JUMPDEST PUSH2 0x66B PUSH1 0x3 SLOAD CALLVALUE LT ISZERO PUSH2 0x220A JUMP JUMPDEST PUSH1 0x2 SLOAD AND DUP2 SWAP1 CALLVALUE ISZERO PUSH2 0x6A0 JUMPI JUMPDEST CALLVALUE SWAP2 CALL ISZERO PUSH2 0x695 JUMPI POP DUP1 SLOAD PUSH1 0xFF PUSH1 0xA0 SHL NOT AND PUSH1 0x1 PUSH1 0xA0 SHL OR SWAP1 SSTORE DUP1 RETURN JUMPDEST MLOAD SWAP2 RETURNDATASIZE SWAP2 POP DUP3 RETURNDATACOPY RETURNDATASIZE SWAP1 REVERT JUMPDEST PUSH2 0x8FC SWAP2 POP PUSH2 0x678 JUMP JUMPDEST PUSH1 0x84 SWAP1 PUSH1 0x20 DUP6 MLOAD SWAP2 PUSH3 0x461BCD PUSH1 0xE5 SHL DUP4 MSTORE DUP3 ADD MSTORE PUSH1 0x23 PUSH1 0x24 DUP3 ADD MSTORE PUSH32 0x6F6E6C792074686520706F6F6C206F776E65722063616E206C6F636B20612070 PUSH1 0x44 DUP3 ADD MSTORE PUSH3 0x1BDBDB PUSH1 0xEA SHL PUSH1 0x64 DUP3 ADD MSTORE REVERT JUMPDEST PUSH1 0x64 SWAP1 PUSH1 0x20 DUP6 MLOAD SWAP2 PUSH3 0x461BCD PUSH1 0xE5 SHL DUP4 MSTORE DUP3 ADD MSTORE PUSH1 0x16 PUSH1 0x24 DUP3 ADD MSTORE PUSH22 0x1C1BDBDB081A5CC8185B1C9958591E481B1BD8DAD959 PUSH1 0x52 SHL PUSH1 0x44 DUP3 ADD MSTORE REVERT JUMPDEST DUP3 DUP5 CALLVALUE PUSH2 0x349 JUMPI DUP2 PUSH1 0x3 NOT CALLDATASIZE ADD SLT PUSH2 0x349 JUMPI POP PUSH2 0x750 PUSH2 0x13AC JUMP JUMPDEST PUSH2 0x758 PUSH2 0x13C7 JUMP JUMPDEST SWAP2 PUSH1 0x1 PUSH1 0x1 PUSH1 0x40 SHL SUB SWAP3 PUSH2 0x788 DUP5 PUSH2 0x782 DUP6 DUP3 DUP6 AND SWAP5 DUP4 DUP3 AND DUP7 GT DUP1 PUSH2 0x7D7 JUMPI JUMPDEST PUSH2 0x2D1 SWAP1 PUSH2 0x2289 JUMP JUMPDEST AND PUSH2 0x24D8 JUMP JUMPDEST SWAP3 DUP1 JUMPDEST DUP3 DUP7 DUP3 AND LT PUSH2 0x7A1 JUMPI DUP4 MLOAD DUP1 PUSH2 0x2F5 DUP8 DUP3 PUSH2 0x1599 JUMP JUMPDEST DUP1 DUP7 PUSH2 0x7AF PUSH2 0x7D2 SWAP4 PUSH2 0x1616 JUMP JUMPDEST SWAP1 SLOAD SWAP1 PUSH1 0x3 SHL SHR AND PUSH2 0x7CC DUP9 PUSH2 0x7C5 DUP7 DUP6 PUSH2 0x22C7 JUMP JUMPDEST AND DUP9 PUSH2 0x23B7 JUMP JUMPDEST MSTORE PUSH2 0x239F JUMP JUMPDEST PUSH2 0x78B JUMP JUMPDEST POP PUSH1 0x1 SLOAD DUP7 GT ISZERO PUSH2 0x779 JUMP JUMPDEST POP POP CALLVALUE PUSH2 0x5AA JUMPI PUSH1 0x20 CALLDATASIZE PUSH1 0x3 NOT ADD SLT PUSH2 0x5AA JUMPI PUSH2 0x1E0 SWAP1 PUSH2 0x828 PUSH2 0x81F PUSH2 0x819 PUSH2 0x80B PUSH2 0x13AC JUMP JUMPDEST PUSH2 0x813 PUSH2 0x22E0 JUMP JUMPDEST POP PUSH2 0x154B JUMP JUMPDEST POP PUSH2 0x23CB JUMP JUMPDEST SWAP2 MLOAD DUP1 SWAP3 PUSH2 0x13DD JUMP JUMPDEST RETURN JUMPDEST POP DUP2 PUSH1 0x3 NOT CALLDATASIZE ADD SLT PUSH2 0x27F JUMPI PUSH2 0x83E PUSH2 0x13AC JUMP JUMPDEST PUSH1 0x1 PUSH1 0x1 PUSH1 0xA0 SHL SUB SWAP2 PUSH1 0x24 CALLDATALOAD DUP4 DUP2 AND SWAP1 DUP2 SWAP1 SUB PUSH2 0x907 JUMPI PUSH2 0x86A DUP7 SLOAD PUSH1 0x1 PUSH1 0x1 PUSH1 0x40 SHL SUB DUP6 AND LT PUSH2 0x224C JUMP JUMPDEST PUSH1 0x9 PUSH2 0x875 DUP5 PUSH2 0x154B JUMP JUMPDEST POP ADD SWAP2 DUP3 SLOAD SWAP1 PUSH2 0x88B PUSH1 0xFF DUP4 PUSH1 0xA0 SHR AND ISZERO PUSH2 0x21CD JUMP JUMPDEST CALLER DUP7 DUP4 AND SUB PUSH2 0x8B3 JUMPI PUSH1 0x1 PUSH1 0x1 PUSH1 0xA0 SHL SUB NOT DUP3 AND DUP4 OR DUP5 SSTORE DUP8 DUP8 DUP2 DUP1 DUP1 DUP1 DUP12 PUSH2 0x189 DUP13 PUSH2 0x166C JUMP JUMPDEST PUSH1 0x84 SWAP1 PUSH1 0x20 DUP9 MLOAD SWAP2 PUSH3 0x461BCD PUSH1 0xE5 SHL DUP4 MSTORE DUP3 ADD MSTORE PUSH1 0x28 PUSH1 0x24 DUP3 ADD MSTORE PUSH32 0x6F6E6C792074686520706F6F6C206F776E65722063616E206368616E6765206F PUSH1 0x44 DUP3 ADD MSTORE PUSH8 0x776E65727368697 PUSH1 0xC4 SHL PUSH1 0x64 DUP3 ADD MSTORE REVERT JUMPDEST DUP6 DUP1 REVERT JUMPDEST POP CALLVALUE PUSH2 0x27F JUMPI PUSH1 0x20 CALLDATASIZE PUSH1 0x3 NOT ADD SLT PUSH2 0x27F JUMPI DUP1 CALLDATALOAD SWAP2 PUSH1 0xFF DUP4 AND SWAP1 DUP2 DUP5 SUB PUSH2 0x4B9 JUMPI PUSH1 0x2 SLOAD PUSH1 0x1 PUSH1 0x1 PUSH1 0xA0 SHL SUB AND CALLER SUB PUSH2 0x9FA JUMPI DUP3 SLOAD DUP1 SWAP3 LT DUP1 PUSH2 0x9F2 JUMPI JUMPDEST ISZERO PUSH2 0x993 JUMPI POP DUP3 LT ISZERO PUSH2 0x980 JUMPI POP PUSH32 0x8A35ACFBC15FF81A39AE7D344FD709F28E8600B4AA8C65C6B64BFE7FE36BD19B ADD SLOAD PUSH1 0x3 SSTORE DUP1 RETURN JUMPDEST PUSH4 0x4E487B71 PUSH1 0xE0 SHL DUP4 MSTORE PUSH1 0x32 SWAP1 MSTORE PUSH1 0x24 DUP3 REVERT JUMPDEST MLOAD PUSH3 0x461BCD PUSH1 0xE5 SHL DUP2 MSTORE PUSH1 0x20 DUP2 DUP5 ADD MSTORE PUSH1 0x34 PUSH1 0x24 DUP3 ADD MSTORE PUSH32 0x696E76616C6964206E6577546178496E64657846726F6D56616C6964436F6E74 PUSH1 0x44 DUP3 ADD MSTORE PUSH20 0x726163745472616E73616374696F6E5461786573 PUSH1 0x60 SHL PUSH1 0x64 DUP3 ADD MSTORE PUSH1 0x84 SWAP1 REVERT JUMPDEST POP PUSH1 0x1 PUSH2 0x949 JUMP JUMPDEST MLOAD PUSH3 0x461BCD PUSH1 0xE5 SHL DUP2 MSTORE PUSH1 0x20 DUP2 DUP5 ADD MSTORE PUSH1 0x29 PUSH1 0x24 DUP3 ADD MSTORE PUSH32 0x6F6E6C79207468652063757272656E74206F776E65722063616E206368616E67 PUSH1 0x44 DUP3 ADD MSTORE PUSH9 0xCA40E8D0CA40E8C2F PUSH1 0xBB SHL PUSH1 0x64 DUP3 ADD MSTORE PUSH1 0x84 SWAP1 REVERT JUMPDEST POP SWAP2 SWAP1 PUSH2 0x120 CALLDATASIZE PUSH1 0x3 NOT ADD SLT PUSH2 0x5AA JUMPI PUSH2 0xA66 PUSH2 0x15DD JUMP JUMPDEST SWAP1 PUSH1 0x24 CALLDATALOAD SWAP1 DUP2 ISZERO ISZERO SWAP1 DUP2 DUP4 SUB PUSH2 0x4B9 JUMPI PUSH1 0x1 PUSH1 0x1 PUSH1 0xA0 SHL SUB SWAP3 PUSH1 0x44 CALLDATALOAD DUP5 DUP2 AND SWAP1 DUP2 DUP2 SUB PUSH2 0xDB5 JUMPI PUSH1 0x64 CALLDATALOAD DUP1 ISZERO ISZERO DUP1 SWAP2 SUB PUSH2 0xDB1 JUMPI PUSH1 0x84 CALLDATALOAD DUP8 DUP2 AND DUP1 SWAP2 SUB PUSH2 0xDAD JUMPI PUSH1 0xA4 CALLDATALOAD SWAP7 PUSH1 0xC4 CALLDATALOAD SWAP7 PUSH1 0xE4 CALLDATALOAD SWAP7 PUSH1 0xFF DUP9 AND DUP1 SWAP9 SUB PUSH2 0xDA9 JUMPI PUSH2 0x104 CALLDATALOAD SWAP7 DUP8 ISZERO ISZERO DUP1 SWAP9 SUB PUSH2 0xDA5 JUMPI PUSH1 0x3 SLOAD PUSH2 0xAE3 SWAP1 DUP16 DUP5 ISZERO PUSH2 0xD9F JUMPI POP DUP13 SWAP1 PUSH2 0x15F3 JUMP JUMPDEST CALLVALUE LT PUSH2 0xD4A JUMPI DUP13 DUP16 DUP16 SWAP3 DUP14 SWAP2 PUSH1 0x1 PUSH1 0x1 PUSH1 0x40 SHL SUB DUP6 SLOAD AND SWAP6 PUSH2 0xB04 DUP8 PUSH2 0x166C JUMP JUMPDEST ISZERO PUSH2 0xC95 JUMPI POP POP POP POP DUP1 DUP12 DUP1 ISZERO PUSH2 0xC8B JUMPI JUMPDEST DUP3 DUP1 SWAP3 SWAP2 DUP2 SWAP3 ADDRESS SWAP1 CALL ISZERO PUSH2 0xC78 JUMPI DUP13 DUP1 DUP1 DUP1 DUP14 DUP16 PUSH2 0xB39 SWAP1 PUSH1 0x2 SLOAD AND SWAP2 CALLVALUE PUSH2 0x16C7 JUMP JUMPDEST SWAP1 DUP3 DUP3 ISZERO PUSH2 0xC82 JUMPI JUMPDEST CALL ISZERO PUSH2 0xC78 JUMPI JUMPDEST DUP13 SLOAD PUSH1 0x1 PUSH1 0x40 SHL DUP2 LT ISZERO PUSH2 0xC63 JUMPI SWAP2 DUP14 SWAP15 SWAP6 SWAP4 SWAP2 DUP4 DUP16 SWAP15 SWAP16 SWAP14 SWAP15 PUSH1 0x1 DUP14 SWAP11 SWAP9 SWAP7 ADD SWAP1 SSTORE PUSH2 0xB75 SWAP1 PUSH2 0x154B JUMP JUMPDEST POP DUP1 SLOAD PUSH8 0xFFFFFFFFFFFFFFFF NOT AND DUP3 OR SWAP1 SSTORE PUSH2 0xB90 SWAP1 PUSH2 0x154B JUMP JUMPDEST POP DUP1 SLOAD PUSH1 0x2 DUP3 ADD DUP14 SWAP1 SSTORE PUSH1 0x1 DUP3 ADD DUP1 SLOAD PUSH1 0x1 PUSH1 0x1 PUSH1 0xA0 SHL SUB NOT AND SWAP6 SWAP1 SWAP6 OR SWAP1 SWAP5 SSTORE PUSH1 0x3 DUP2 ADD SWAP13 SWAP1 SWAP13 SSTORE PUSH1 0xFF PUSH1 0xE8 SHL PUSH1 0xE8 SWAP5 SWAP1 SWAP5 SHL SWAP4 SWAP1 SWAP4 AND SWAP3 SHL PUSH9 0xFF0000000000000000 AND PUSH10 0x1000000000000000000 PUSH1 0x1 PUSH1 0xE8 SHL SUB PUSH1 0x48 SWAP5 SWAP1 SWAP5 SHL SWAP4 SWAP1 SWAP4 AND PUSH9 0x10000000000000000 PUSH1 0x1 PUSH1 0xF0 SHL SUB NOT SWAP1 SWAP2 AND OR SWAP2 SWAP1 SWAP2 OR OR DUP8 SSTORE DUP7 ADD SSTORE PUSH1 0x5 DUP6 ADD DUP1 SLOAD PUSH1 0xFF NOT SWAP1 DUP2 AND SWAP4 SWAP1 SWAP4 OR SWAP1 SSTORE PUSH1 0x7 DUP6 ADD DUP1 SLOAD SWAP1 SWAP3 AND PUSH1 0xFF SWAP2 SWAP1 SWAP2 AND OR SWAP1 SSTORE PUSH2 0xC3D SWAP1 DUP3 PUSH2 0x16D4 JUMP JUMPDEST PUSH1 0x6 DUP4 ADD SSTORE PUSH1 0x8 DUP3 ADD SSTORE PUSH1 0x9 ADD SWAP2 AND PUSH10 0xFFFFFFFFFFFFFFFFFFFF PUSH1 0xB0 SHL DUP3 SLOAD AND OR SWAP1 SSTORE DUP1 RETURN JUMPDEST POP POP PUSH4 0x4E487B71 PUSH1 0xE0 SHL DUP13 MSTORE PUSH1 0x41 DUP14 MSTORE PUSH1 0x24 DUP13 REVERT JUMPDEST DUP2 MLOAD RETURNDATASIZE DUP15 DUP3 RETURNDATACOPY RETURNDATASIZE SWAP1 REVERT JUMPDEST POP PUSH2 0x8FC PUSH2 0xB42 JUMP JUMPDEST PUSH2 0x8FC SWAP2 POP PUSH2 0xB16 JUMP JUMPDEST DUP7 MLOAD PUSH4 0x23B872DD PUSH1 0xE0 SHL DUP2 MSTORE PUSH1 0x1 PUSH1 0x1 PUSH1 0xA0 SHL SUB SWAP1 SWAP5 AND SWAP1 DUP5 ADD SWAP1 DUP2 MSTORE ADDRESS PUSH1 0x20 DUP3 DUP2 ADD SWAP2 SWAP1 SWAP2 MSTORE PUSH1 0x40 DUP3 ADD SWAP4 SWAP1 SWAP4 MSTORE SWAP3 SWAP4 SWAP2 SWAP3 DUP5 SWAP3 DUP4 SWAP2 DUP3 SWAP1 PUSH1 0x60 ADD SUB SWAP3 GAS CALL DUP1 ISZERO PUSH2 0xD3E JUMPI DUP15 DUP1 DUP15 DUP2 SWAP5 DUP3 SWAP5 PUSH2 0xD10 JUMPI JUMPDEST POP PUSH1 0x2 SLOAD AND DUP2 SWAP1 CALLVALUE ISZERO PUSH2 0xD06 JUMPI JUMPDEST CALLVALUE SWAP2 CALL PUSH2 0xB49 JUMPI DUP2 MLOAD RETURNDATASIZE DUP15 DUP3 RETURNDATACOPY RETURNDATASIZE SWAP1 REVERT JUMPDEST PUSH2 0x8FC SWAP2 POP PUSH2 0xCF5 JUMP JUMPDEST PUSH2 0xD30 SWAP1 PUSH1 0x20 RETURNDATASIZE DUP2 GT PUSH2 0xD37 JUMPI JUMPDEST PUSH2 0xD28 DUP2 DUP4 PUSH2 0x1513 JUMP JUMPDEST DUP2 ADD SWAP1 PUSH2 0x16AF JUMP JUMPDEST POP CODESIZE PUSH2 0xCE7 JUMP JUMPDEST POP RETURNDATASIZE PUSH2 0xD1E JUMP JUMPDEST DUP15 DUP5 MLOAD SWAP1 RETURNDATASIZE SWAP1 DUP3 RETURNDATACOPY RETURNDATASIZE SWAP1 REVERT JUMPDEST PUSH1 0x84 DUP16 PUSH1 0x20 DUP6 MLOAD SWAP2 PUSH3 0x461BCD PUSH1 0xE5 SHL DUP4 MSTORE DUP3 ADD MSTORE PUSH1 0x29 PUSH1 0x24 DUP3 ADD MSTORE PUSH32 0x4C6F776572207468616E20746865207265717569726564207472616E73616374 PUSH1 0x44 DUP3 ADD MSTORE PUSH9 0x696F6E2076616C7565 PUSH1 0xB8 SHL PUSH1 0x64 DUP3 ADD MSTORE REVERT JUMPDEST SWAP1 PUSH2 0x15F3 JUMP JUMPDEST DUP14 DUP1 REVERT JUMPDEST DUP13 DUP1 REVERT JUMPDEST DUP10 DUP1 REVERT JUMPDEST DUP9 DUP1 REVERT JUMPDEST DUP8 DUP1 REVERT JUMPDEST POP POP CALLVALUE PUSH2 0x5AA JUMPI DUP2 PUSH1 0x3 NOT CALLDATASIZE ADD SLT PUSH2 0x5AA JUMPI PUSH1 0x20 SWAP1 PUSH1 0x1 SLOAD SWAP1 MLOAD SWAP1 DUP2 MSTORE RETURN JUMPDEST DUP3 DUP5 CALLVALUE PUSH2 0x349 JUMPI PUSH1 0x20 CALLDATASIZE PUSH1 0x3 NOT ADD SLT PUSH2 0x349 JUMPI POP PUSH2 0xDF4 PUSH2 0x13AC JUMP JUMPDEST PUSH1 0x1 SLOAD SWAP2 PUSH1 0x1 PUSH1 0x1 PUSH1 0x40 SHL SUB SWAP3 PUSH2 0xE20 PUSH2 0xE1B DUP6 DUP6 AND PUSH2 0xE15 DUP5 DUP3 LT PUSH2 0x249C JUMP JUMPDEST DUP4 PUSH2 0x16C7 JUMP JUMPDEST PUSH2 0x24D8 JUMP JUMPDEST SWAP3 DUP1 JUMPDEST DUP3 DUP7 DUP3 AND LT PUSH2 0xE39 JUMPI DUP4 MLOAD DUP1 PUSH2 0x2F5 DUP8 DUP3 PUSH2 0x1599 JUMP JUMPDEST DUP1 DUP7 PUSH2 0x7AF PUSH2 0xE47 SWAP4 PUSH2 0x1616 JUMP JUMPDEST PUSH2 0xE23 JUMP JUMPDEST POP CALLVALUE PUSH2 0x27F JUMPI PUSH1 0x20 CALLDATASIZE PUSH1 0x3 NOT ADD SLT PUSH2 0x27F JUMPI DUP1 CALLDATALOAD SWAP3 DUP1 SLOAD DUP5 LT ISZERO PUSH2 0x349 JUMPI POP PUSH2 0xE77 PUSH2 0x1E0 SWAP4 PUSH2 0x154B JUMP JUMPDEST POP DUP1 SLOAD SWAP1 PUSH1 0x1 DUP1 PUSH1 0xA0 SHL SUB SWAP1 DUP2 PUSH1 0x1 DUP3 ADD SLOAD AND PUSH1 0x2 DUP3 ADD SLOAD PUSH1 0x3 DUP4 ADD SLOAD SWAP6 DUP4 ADD SLOAD SWAP6 PUSH1 0xFF SWAP7 DUP8 PUSH1 0x5 DUP7 ADD SLOAD AND SWAP2 PUSH1 0x6 DUP7 ADD SLOAD SWAP4 DUP10 PUSH1 0x7 DUP9 ADD SLOAD AND SWAP6 DUP11 PUSH1 0x9 PUSH1 0x8 DUP11 ADD SLOAD SWAP10 ADD SLOAD SWAP11 DUP14 MLOAD DUP1 SWAP15 PUSH1 0x1 PUSH1 0x1 PUSH1 0x40 SHL SUB DUP4 AND DUP3 MSTORE DUP4 DUP4 DUP3 SHR AND ISZERO ISZERO PUSH1 0x20 DUP4 ADD MSTORE DUP13 DUP4 PUSH1 0x48 SHR AND SWAP2 ADD MSTORE PUSH1 0xE8 SHR AND ISZERO ISZERO PUSH1 0x60 DUP14 ADD MSTORE PUSH1 0x80 DUP13 ADD MSTORE PUSH1 0xA0 DUP12 ADD MSTORE PUSH1 0xC0 DUP11 ADD MSTORE PUSH1 0xE0 DUP10 ADD MSTORE PUSH2 0x100 DUP9 ADD MSTORE PUSH2 0x120 DUP8 ADD MSTORE ISZERO ISZERO PUSH2 0x140 DUP7 ADD MSTORE PUSH2 0x160 DUP6 ADD MSTORE DUP2 AND PUSH2 0x180 DUP5 ADD MSTORE DUP2 DUP2 PUSH1 0xA0 SHR AND ISZERO ISZERO PUSH2 0x1A0 DUP5 ADD MSTORE PUSH1 0xA8 SHR AND ISZERO ISZERO PUSH2 0x1C0 DUP3 ADD MSTORE RETURN JUMPDEST POP DUP3 CALLVALUE PUSH2 0x349 JUMPI PUSH1 0x20 SWAP2 DUP3 PUSH1 0x3 NOT CALLDATASIZE ADD SLT PUSH2 0x5AA JUMPI DUP1 CALLDATALOAD SWAP3 PUSH1 0x1 PUSH1 0x1 PUSH1 0x40 SHL SUB SWAP2 DUP3 DUP6 GT PUSH2 0x102C JUMPI CALLDATASIZE PUSH1 0x23 DUP7 ADD SLT ISZERO PUSH2 0x102C JUMPI DUP5 ADD CALLDATALOAD SWAP4 PUSH2 0xF80 DUP6 PUSH2 0x1534 JUMP JUMPDEST SWAP5 PUSH2 0xF8D DUP8 MLOAD SWAP7 DUP8 PUSH2 0x1513 JUMP JUMPDEST DUP1 DUP7 MSTORE PUSH1 0x24 DUP4 DUP8 ADD SWAP2 PUSH1 0x5 SHL DUP4 ADD ADD SWAP2 CALLDATASIZE DUP4 GT PUSH2 0x907 JUMPI PUSH1 0x24 ADD SWAP1 JUMPDEST DUP3 DUP3 LT PUSH2 0x1010 JUMPI POP POP POP POP PUSH2 0xFBE DUP4 MLOAD PUSH2 0x234F JUMP JUMPDEST SWAP2 JUMPDEST DUP4 MLOAD DUP3 DUP3 AND SWAP1 DUP2 LT ISZERO PUSH2 0x1003 JUMPI SWAP1 PUSH2 0x332 DUP3 PUSH2 0xFED PUSH2 0x819 DUP7 PUSH2 0xFE6 PUSH2 0xFFE SWAP8 DUP12 PUSH2 0x23B7 JUMP JUMPDEST MLOAD AND PUSH2 0x154B JUMP JUMPDEST PUSH2 0xFF7 DUP3 DUP9 PUSH2 0x23B7 JUMP JUMPDEST MSTORE DUP6 PUSH2 0x23B7 JUMP JUMPDEST PUSH2 0xFC0 JUMP JUMPDEST DUP6 MLOAD DUP1 PUSH2 0x2F5 DUP7 DUP3 PUSH2 0x1498 JUMP JUMPDEST DUP2 CALLDATALOAD DUP6 DUP2 AND DUP2 SUB PUSH2 0x1028 JUMPI DUP2 MSTORE SWAP1 DUP4 ADD SWAP1 DUP4 ADD PUSH2 0xFA9 JUMP JUMPDEST DUP7 DUP1 REVERT JUMPDEST DUP4 DUP1 REVERT JUMPDEST POP POP CALLVALUE PUSH2 0x5AA JUMPI PUSH1 0x20 CALLDATASIZE PUSH1 0x3 NOT ADD SLT PUSH2 0x5AA JUMPI PUSH1 0x20 SWAP1 PUSH1 0xFF PUSH1 0x9 PUSH2 0x105A PUSH2 0x1055 PUSH2 0x13AC JUMP JUMPDEST PUSH2 0x154B JUMP JUMPDEST POP ADD SLOAD PUSH1 0xA0 SHR AND SWAP1 MLOAD SWAP1 ISZERO ISZERO DUP2 MSTORE RETURN JUMPDEST POP POP CALLVALUE PUSH2 0x5AA JUMPI DUP2 PUSH1 0x3 NOT CALLDATASIZE ADD SLT PUSH2 0x5AA JUMPI MLOAD SELFBALANCE DUP2 MSTORE PUSH1 0x20 SWAP1 RETURN JUMPDEST POP DUP3 SWAP1 PUSH1 0x20 SWAP1 DUP2 PUSH1 0x3 NOT CALLDATASIZE ADD SLT PUSH2 0x27F JUMPI PUSH2 0x109E PUSH2 0x13AC JUMP JUMPDEST SWAP4 PUSH2 0x10B4 DUP5 SLOAD PUSH1 0x1 PUSH1 0x1 PUSH1 0x40 SHL SUB DUP8 AND LT PUSH2 0x218F JUMP JUMPDEST PUSH2 0x10BD DUP6 PUSH2 0x154B JUMP JUMPDEST POP SWAP1 PUSH1 0x9 DUP3 ADD SWAP4 DUP5 SLOAD PUSH2 0x10D6 PUSH1 0xFF DUP3 PUSH1 0xA0 SHR AND ISZERO PUSH2 0x21CD JUMP JUMPDEST PUSH1 0xFF DUP2 PUSH1 0xA8 SHR AND PUSH2 0x1306 JUMPI PUSH1 0x1 PUSH1 0x1 PUSH1 0xA0 SHL SUB SWAP1 CALLER SWAP1 DUP3 AND SUB PUSH2 0x12B8 JUMPI PUSH2 0x1100 DUP8 SWAP9 SWAP8 SWAP7 SWAP8 PUSH2 0x166C JUMP JUMPDEST PUSH2 0x110E PUSH1 0x3 SLOAD CALLVALUE LT ISZERO PUSH2 0x220A JUMP JUMPDEST DUP6 DUP1 DUP1 DUP1 DUP5 PUSH1 0x2 SLOAD AND DUP2 SWAP1 CALLVALUE ISZERO PUSH2 0x12AE JUMPI JUMPDEST CALLVALUE SWAP2 CALL ISZERO PUSH2 0x122A JUMPI DUP4 SLOAD DUP3 DUP2 DUP6 SHR PUSH1 0xFF AND ISZERO PUSH2 0x123D JUMPI POP POP DUP6 DUP1 DUP1 DUP1 PUSH1 0x2 DUP9 ADD SLOAD DUP2 DUP2 ISZERO PUSH2 0x1234 JUMPI JUMPDEST CALLER SWAP1 CALL ISZERO PUSH2 0x122A JUMPI DUP6 SWAP1 JUMPDEST DUP2 PUSH1 0x2 DUP7 ADD SSTORE PUSH1 0xFF DUP6 SLOAD PUSH1 0xE8 SHR AND PUSH1 0x0 EQ PUSH2 0x11B5 JUMPI POP DUP1 DUP1 DUP1 SWAP4 POP PUSH1 0x3 DUP7 ADD SLOAD DUP2 DUP2 ISZERO PUSH2 0x11AC JUMPI JUMPDEST CALLER SWAP1 CALL ISZERO PUSH2 0x11A3 JUMPI POP JUMPDEST PUSH1 0x3 DUP2 ADD DUP4 SWAP1 SSTORE ADD SSTORE DUP1 SLOAD PUSH1 0xFF PUSH1 0xA8 SHL NOT AND PUSH1 0x1 PUSH1 0xA8 SHL OR SWAP1 SSTORE DUP1 RETURN JUMPDEST MLOAD RETURNDATASIZE DUP5 DUP3 RETURNDATACOPY RETURNDATASIZE SWAP1 REVERT JUMPDEST POP PUSH2 0x8FC PUSH2 0x117C JUMP JUMPDEST PUSH1 0x1 DUP6 ADD SLOAD PUSH1 0x3 DUP7 ADD SLOAD DUP6 MLOAD PUSH4 0xA9059CBB PUSH1 0xE0 SHL DUP2 MSTORE CALLER DUP10 DUP3 ADD SWAP1 DUP2 MSTORE PUSH1 0x20 DUP2 ADD SWAP3 SWAP1 SWAP3 MSTORE SWAP5 SWAP6 SWAP4 DUP7 SWAP4 DUP7 SWAP4 AND SWAP2 DUP4 SWAP2 SWAP1 DUP3 SWAP1 PUSH1 0x40 ADD SUB SWAP3 GAS CALL SWAP1 DUP2 ISZERO PUSH2 0x1221 JUMPI POP PUSH2 0x1203 JUMPI JUMPDEST POP POP PUSH2 0x1186 JUMP JUMPDEST DUP2 PUSH2 0x1219 SWAP3 SWAP1 RETURNDATASIZE LT PUSH2 0xD37 JUMPI PUSH2 0xD28 DUP2 DUP4 PUSH2 0x1513 JUMP JUMPDEST POP DUP6 DUP1 PUSH2 0x11FC JUMP JUMPDEST MLOAD RETURNDATASIZE DUP8 DUP3 RETURNDATACOPY RETURNDATASIZE SWAP1 REVERT JUMPDEST DUP3 MLOAD RETURNDATASIZE DUP8 DUP3 RETURNDATACOPY RETURNDATASIZE SWAP1 REVERT JUMPDEST POP PUSH2 0x8FC PUSH2 0x1149 JUMP JUMPDEST PUSH1 0x2 DUP7 ADD SLOAD DUP6 MLOAD PUSH4 0xA9059CBB PUSH1 0xE0 SHL DUP2 MSTORE CALLER DUP10 DUP3 ADD SWAP1 DUP2 MSTORE PUSH1 0x20 DUP2 ADD SWAP3 SWAP1 SWAP3 MSTORE SWAP3 DUP4 SWAP2 DUP3 SWAP1 SUB PUSH1 0x40 ADD SWAP1 DUP3 SWAP1 DUP12 SWAP1 PUSH1 0x48 SHR DUP8 AND GAS CALL DUP1 ISZERO PUSH2 0x12A4 JUMPI SWAP1 DUP8 SWAP3 SWAP2 PUSH2 0x1287 JUMPI JUMPDEST POP PUSH2 0x1154 JUMP JUMPDEST PUSH2 0x129D SWAP1 DUP5 RETURNDATASIZE DUP7 GT PUSH2 0xD37 JUMPI PUSH2 0xD28 DUP2 DUP4 PUSH2 0x1513 JUMP JUMPDEST POP DUP10 PUSH2 0x1281 JUMP JUMPDEST DUP5 MLOAD RETURNDATASIZE DUP10 DUP3 RETURNDATACOPY RETURNDATASIZE SWAP1 REVERT JUMPDEST PUSH2 0x8FC SWAP2 POP PUSH2 0x1120 JUMP JUMPDEST DUP3 MLOAD PUSH3 0x461BCD PUSH1 0xE5 SHL DUP2 MSTORE DUP1 DUP7 ADD DUP4 SWAP1 MSTORE PUSH1 0x22 PUSH1 0x24 DUP3 ADD MSTORE PUSH32 0x6F6E6C792074686520706F6F6C206F776E65722063616E20656D70747920706F PUSH1 0x44 DUP3 ADD MSTORE PUSH2 0x1BDB PUSH1 0xF2 SHL PUSH1 0x64 DUP3 ADD MSTORE PUSH1 0x84 SWAP1 REVERT JUMPDEST DUP3 MLOAD PUSH3 0x461BCD PUSH1 0xE5 SHL DUP2 MSTORE DUP1 DUP7 ADD DUP4 SWAP1 MSTORE PUSH1 0xD PUSH1 0x24 DUP3 ADD MSTORE PUSH13 0x706F6F6C20697320656D707479 PUSH1 0x98 SHL PUSH1 0x44 DUP3 ADD MSTORE PUSH1 0x64 SWAP1 REVERT JUMPDEST DUP3 DUP5 CALLVALUE PUSH2 0x349 JUMPI PUSH1 0x20 CALLDATASIZE PUSH1 0x3 NOT ADD SLT PUSH2 0x349 JUMPI PUSH2 0x1354 PUSH2 0x13AC JUMP JUMPDEST SWAP1 SLOAD PUSH1 0x1 PUSH1 0x1 PUSH1 0x40 SHL SUB SWAP2 PUSH2 0x137E PUSH2 0x1379 DUP5 DUP4 AND PUSH2 0x1373 DUP6 DUP3 LT PUSH2 0x249C JUMP JUMPDEST DUP5 PUSH2 0x16C7 JUMP JUMPDEST PUSH2 0x234F JUMP JUMPDEST SWAP3 DUP2 JUMPDEST DUP4 DUP3 DUP3 AND LT PUSH2 0x1397 JUMPI DUP6 MLOAD DUP1 PUSH2 0x2F5 DUP8 DUP3 PUSH2 0x1498 JUMP JUMPDEST DUP1 PUSH2 0x332 PUSH2 0x309 PUSH2 0x13A7 SWAP4 PUSH2 0x154B JUMP JUMPDEST PUSH2 0x1381 JUMP JUMPDEST PUSH1 0x4 CALLDATALOAD SWAP1 PUSH1 0x1 PUSH1 0x1 PUSH1 0x40 SHL SUB DUP3 AND DUP3 SUB PUSH2 0x13C2 JUMPI JUMP JUMPDEST PUSH1 0x0 DUP1 REVERT JUMPDEST PUSH1 0x24 CALLDATALOAD SWAP1 PUSH1 0x1 PUSH1 0x1 PUSH1 0x40 SHL SUB DUP3 AND DUP3 SUB PUSH2 0x13C2 JUMPI JUMP JUMPDEST PUSH1 0x1 PUSH1 0x1 PUSH1 0x40 SHL SUB DUP2 MLOAD AND DUP3 MSTORE PUSH1 0x20 DUP2 ADD MLOAD ISZERO ISZERO PUSH1 0x20 DUP4 ADD MSTORE PUSH1 0x1 DUP1 PUSH1 0xA0 SHL SUB DUP1 PUSH1 0x40 DUP4 ADD MLOAD AND PUSH1 0x40 DUP5 ADD MSTORE PUSH1 0x60 DUP3 ADD MLOAD ISZERO ISZERO PUSH1 0x60 DUP5 ADD MSTORE DUP1 PUSH1 0x80 DUP4 ADD MLOAD AND PUSH1 0x80 DUP5 ADD MSTORE PUSH1 0xA0 DUP3 ADD MLOAD PUSH1 0xA0 DUP5 ADD MSTORE PUSH1 0xC0 DUP3 ADD MLOAD PUSH1 0xC0 DUP5 ADD MSTORE PUSH1 0xE0 DUP3 ADD MLOAD PUSH1 0xE0 DUP5 ADD MSTORE PUSH2 0x100 PUSH1 0xFF DUP2 DUP5 ADD MLOAD AND SWAP1 DUP5 ADD MSTORE PUSH2 0x120 DUP1 DUP4 ADD MLOAD SWAP1 DUP5 ADD MSTORE PUSH2 0x140 DUP1 DUP4 ADD MLOAD ISZERO ISZERO SWAP1 DUP5 ADD MSTORE PUSH2 0x160 DUP1 DUP4 ADD MLOAD SWAP1 DUP5 ADD MSTORE PUSH2 0x180 SWAP1 DUP2 DUP4 ADD MLOAD AND SWAP1 DUP4 ADD MSTORE PUSH2 0x1A0 DUP1 DUP3 ADD MLOAD ISZERO ISZERO SWAP1 DUP4 ADD MSTORE PUSH2 0x1C0 DUP1 SWAP2 ADD MLOAD ISZERO ISZERO SWAP2 ADD MSTORE JUMP JUMPDEST PUSH1 0x20 SWAP1 DUP2 PUSH1 0x40 DUP2 DUP4 ADD SWAP3 DUP3 DUP2 MSTORE DUP6 MLOAD DUP1 SWAP5 MSTORE ADD SWAP4 ADD SWAP2 PUSH1 0x0 JUMPDEST DUP3 DUP2 LT PUSH2 0x14BF JUMPI POP POP POP POP SWAP1 JUMP JUMPDEST SWAP1 SWAP2 SWAP3 SWAP4 DUP3 PUSH2 0x1E0 DUP3 PUSH2 0x14D5 PUSH1 0x1 SWAP5 DUP10 MLOAD PUSH2 0x13DD JUMP JUMPDEST ADD SWAP6 ADD SWAP4 SWAP3 SWAP2 ADD PUSH2 0x14B1 JUMP JUMPDEST PUSH2 0x1E0 DUP2 ADD SWAP1 DUP2 LT PUSH1 0x1 PUSH1 0x1 PUSH1 0x40 SHL SUB DUP3 GT OR PUSH2 0x14FD JUMPI PUSH1 0x40 MSTORE JUMP JUMPDEST PUSH4 0x4E487B71 PUSH1 0xE0 SHL PUSH1 0x0 MSTORE PUSH1 0x41 PUSH1 0x4 MSTORE PUSH1 0x24 PUSH1 0x0 REVERT JUMPDEST SWAP1 PUSH1 0x1F DUP1 NOT SWAP2 ADD AND DUP2 ADD SWAP1 DUP2 LT PUSH1 0x1 PUSH1 0x1 PUSH1 0x40 SHL SUB DUP3 GT OR PUSH2 0x14FD JUMPI PUSH1 0x40 MSTORE JUMP JUMPDEST PUSH1 0x1 PUSH1 0x1 PUSH1 0x40 SHL SUB DUP2 GT PUSH2 0x14FD JUMPI PUSH1 0x5 SHL PUSH1 0x20 ADD SWAP1 JUMP JUMPDEST SWAP1 PUSH1 0x0 SWAP2 DUP3 SLOAD DUP2 LT ISZERO PUSH2 0x1585 JUMPI PUSH1 0xA SWAP1 DUP4 DUP1 MSTORE MUL PUSH32 0x290DECD9548B62A8D60345A988386FC84BA6BC95484008F6362F93160EF3E563 ADD SWAP2 SWAP1 JUMP JUMPDEST PUSH4 0x4E487B71 PUSH1 0xE0 SHL DUP4 MSTORE PUSH1 0x32 PUSH1 0x4 MSTORE PUSH1 0x24 DUP4 REVERT JUMPDEST PUSH1 0x20 SWAP1 DUP2 PUSH1 0x40 DUP2 DUP4 ADD SWAP3 DUP3 DUP2 MSTORE DUP6 MLOAD DUP1 SWAP5 MSTORE ADD SWAP4 ADD SWAP2 PUSH1 0x0 JUMPDEST DUP3 DUP2 LT PUSH2 0x15C0 JUMPI POP POP POP POP SWAP1 JUMP JUMPDEST DUP4 MLOAD PUSH1 0x1 PUSH1 0x1 PUSH1 0x40 SHL SUB AND DUP6 MSTORE SWAP4 DUP2 ADD SWAP4 SWAP3 DUP2 ADD SWAP3 PUSH1 0x1 ADD PUSH2 0x15B2 JUMP JUMPDEST PUSH1 0x4 CALLDATALOAD SWAP1 PUSH1 0x1 PUSH1 0x1 PUSH1 0xA0 SHL SUB DUP3 AND DUP3 SUB PUSH2 0x13C2 JUMPI JUMP JUMPDEST SWAP2 SWAP1 DUP3 ADD DUP1 SWAP3 GT PUSH2 0x1600 JUMPI JUMP JUMPDEST PUSH4 0x4E487B71 PUSH1 0xE0 SHL PUSH1 0x0 MSTORE PUSH1 0x11 PUSH1 0x4 MSTORE PUSH1 0x24 PUSH1 0x0 REVERT JUMPDEST SWAP1 PUSH1 0x1 SLOAD DUP3 LT ISZERO PUSH2 0x1656 JUMPI PUSH1 0x1 PUSH1 0x0 MSTORE PUSH1 0x18 DUP3 PUSH1 0x2 SHR PUSH32 0xB10E2D527612073B26EECDFD717E6A320CF44B4AFAC2B0732D9FCBE2B7FA0CF6 ADD SWAP3 PUSH1 0x3 SHL AND SWAP1 JUMP JUMPDEST PUSH4 0x4E487B71 PUSH1 0xE0 SHL PUSH1 0x0 MSTORE PUSH1 0x32 PUSH1 0x4 MSTORE PUSH1 0x24 PUSH1 0x0 REVERT JUMPDEST PUSH1 0x1 SLOAD PUSH1 0x1 PUSH1 0x40 SHL DUP2 LT ISZERO PUSH2 0x14FD JUMPI DUP1 PUSH1 0x1 PUSH2 0x168B SWAP3 ADD PUSH1 0x1 SSTORE PUSH2 0x1616 JUMP JUMPDEST DUP2 SWAP3 SWAP2 SLOAD SWAP1 PUSH1 0x3 SHL SWAP2 PUSH1 0x1 PUSH1 0x1 PUSH1 0x40 SHL SUB SWAP3 DUP4 DUP2 SHL SWAP4 DUP5 SWAP3 AND SWAP1 SHL AND SWAP2 NOT AND OR SWAP1 SSTORE JUMP JUMPDEST SWAP1 DUP2 PUSH1 0x20 SWAP2 SUB SLT PUSH2 0x13C2 JUMPI MLOAD DUP1 ISZERO ISZERO DUP2 SUB PUSH2 0x13C2 JUMPI SWAP1 JUMP JUMPDEST SWAP2 SWAP1 DUP3 SUB SWAP2 DUP3 GT PUSH2 0x1600 JUMPI JUMP JUMPDEST DUP2 DUP2 MUL SWAP3 SWAP2 DUP2 ISZERO SWAP2 DUP5 DIV EQ OR ISZERO PUSH2 0x1600 JUMPI JUMP JUMPDEST DUP2 ISZERO PUSH2 0x16F1 JUMPI DIV SWAP1 JUMP JUMPDEST PUSH4 0x4E487B71 PUSH1 0xE0 SHL PUSH1 0x0 MSTORE PUSH1 0x12 PUSH1 0x4 MSTORE PUSH1 0x24 PUSH1 0x0 REVERT JUMPDEST ISZERO PUSH2 0x170E JUMPI JUMP JUMPDEST PUSH1 0x40 MLOAD PUSH3 0x461BCD PUSH1 0xE5 SHL DUP2 MSTORE PUSH1 0x20 PUSH1 0x4 DUP3 ADD MSTORE PUSH1 0x17 PUSH1 0x24 DUP3 ADD MSTORE PUSH32 0x6C6F776572207472616E73616374696F6E2076616C7565000000000000000000 PUSH1 0x44 DUP3 ADD MSTORE PUSH1 0x64 SWAP1 REVERT JUMPDEST SWAP3 SWAP1 SWAP3 PUSH1 0x0 SWAP1 DUP2 SLOAD DUP1 PUSH1 0x1 PUSH1 0x1 PUSH1 0x40 SHL SUB DUP8 AND LT ISZERO PUSH2 0x2159 JUMPI DUP6 LT ISZERO PUSH2 0x2145 JUMPI DUP2 DUP1 MSTORE PUSH1 0xA DUP6 MUL SWAP5 DUP6 PUSH32 0x290DECD9548B62A8D60345A988386FC84BA6BC95484008F6362F93160EF3E563 ADD PUSH32 0x290DECD9548B62A8D60345A988386FC84BA6BC95484008F6362F93160EF3E56C DUP8 ADD SWAP6 PUSH1 0xFF SWAP3 DUP4 DUP9 SLOAD PUSH1 0xA8 SHR AND PUSH2 0x2110 JUMPI PUSH2 0x17D9 SWAP1 PUSH2 0x166C JUMP JUMPDEST ISZERO PUSH2 0x1C8C JUMPI PUSH32 0x290DECD9548B62A8D60345A988386FC84BA6BC95484008F6362F93160EF3E56A DUP8 ADD SLOAD DUP3 AND ISZERO PUSH2 0x1C07 JUMPI PUSH2 0x1849 PUSH32 0x290DECD9548B62A8D60345A988386FC84BA6BC95484008F6362F93160EF3E56B DUP9 ADD SLOAD PUSH1 0x0 DUP1 MLOAD PUSH1 0x20 PUSH2 0x2617 DUP4 CODECOPY DUP2 MLOAD SWAP2 MSTORE DUP10 ADD SLOAD SWAP1 DUP8 PUSH2 0x2570 JUMP JUMPDEST SWAP6 JUMPDEST PUSH1 0x0 DUP1 MLOAD PUSH1 0x20 PUSH2 0x25F7 DUP4 CODECOPY DUP2 MLOAD SWAP2 MSTORE DUP9 ADD SWAP7 PUSH2 0x188E DUP9 SLOAD DUP6 PUSH32 0x290DECD9548B62A8D60345A988386FC84BA6BC95484008F6362F93160EF3E568 DUP13 ADD SLOAD AND SWAP1 PUSH2 0x250A JUMP JUMPDEST DUP1 DUP3 LT ISZERO PUSH2 0x1BFE JUMPI POP DUP1 SWAP10 JUMPDEST GT PUSH2 0x1BA7 JUMPI PUSH1 0x3 SLOAD SWAP1 DUP2 PUSH1 0x1 SHR SWAP2 DUP5 DUP5 SLOAD PUSH1 0xE8 SHR AND PUSH1 0x0 EQ PUSH2 0x1AAC JUMPI POP PUSH2 0x18CE PUSH2 0x18C6 PUSH1 0x3 SLOAD DUP10 PUSH2 0x15F3 JUMP JUMPDEST CALLVALUE LT ISZERO PUSH2 0x1707 JUMP JUMPDEST DUP6 DUP1 DUP9 DUP1 ISZERO PUSH2 0x1AA2 JUMPI JUMPDEST DUP3 DUP1 SWAP3 SWAP2 DUP2 SWAP3 ADDRESS SWAP1 CALL ISZERO PUSH2 0x1A8E JUMPI DUP6 DUP1 DUP1 DUP1 DUP6 PUSH1 0x1 DUP1 PUSH1 0xA0 SHL SUB DUP1 SWAP7 SLOAD AND DUP3 DUP3 ISZERO PUSH2 0x1A99 JUMPI JUMPDEST CALL ISZERO PUSH2 0x1A8E JUMPI DUP6 DUP1 DUP1 SWAP4 PUSH2 0x1921 DUP3 SWAP5 PUSH1 0x2 SLOAD AND SWAP2 PUSH2 0x191C DUP13 CALLVALUE PUSH2 0x16C7 JUMP JUMPDEST PUSH2 0x16C7 JUMP JUMPDEST SWAP1 DUP3 DUP3 ISZERO PUSH2 0x1A85 JUMPI JUMPDEST CALL ISZERO PUSH2 0x1A7A JUMPI SWAP1 DUP8 SWAP4 SWAP3 SWAP2 JUMPDEST PUSH2 0x1964 PUSH32 0x290DECD9548B62A8D60345A988386FC84BA6BC95484008F6362F93160EF3E566 DUP10 ADD SWAP7 DUP8 SLOAD PUSH2 0x15F3 JUMP JUMPDEST DUP7 SSTORE SLOAD SWAP1 DUP2 PUSH1 0x40 SHR AND PUSH1 0x0 EQ PUSH2 0x19F6 JUMPI POP DUP2 DUP1 DUP1 SWAP5 DUP2 SWAP4 DUP3 SWAP1 DUP3 ISZERO PUSH2 0x19EC JUMPI JUMPDEST PUSH1 0x1 PUSH1 0x1 PUSH1 0xA0 SHL SUB AND SWAP1 CALL ISZERO PUSH2 0x19E0 JUMPI POP PUSH1 0x0 DUP1 MLOAD PUSH1 0x20 PUSH2 0x2637 DUP4 CODECOPY DUP2 MLOAD SWAP2 MSTORE SWAP2 PUSH2 0x19D4 PUSH2 0x19DA SWAP3 JUMPDEST PUSH2 0x19B8 DUP8 DUP5 SLOAD PUSH2 0x16C7 JUMP JUMPDEST DUP1 SWAP4 SSTORE SLOAD PUSH1 0x0 DUP1 MLOAD PUSH1 0x20 PUSH2 0x2617 DUP4 CODECOPY DUP2 MLOAD SWAP2 MSTORE DUP7 ADD SLOAD SWAP1 PUSH2 0x15F3 JUMP JUMPDEST SWAP1 PUSH2 0x16D4 JUMP JUMPDEST SWAP2 ADD SSTORE SWAP1 JUMP JUMPDEST PUSH1 0x40 MLOAD SWAP1 RETURNDATASIZE SWAP1 DUP3 RETURNDATACOPY RETURNDATASIZE SWAP1 REVERT JUMPDEST PUSH2 0x8FC SWAP2 POP PUSH2 0x1984 JUMP JUMPDEST PUSH1 0x40 MLOAD PUSH4 0xA9059CBB PUSH1 0xE0 SHL DUP2 MSTORE PUSH1 0x1 PUSH1 0x1 PUSH1 0xA0 SHL SUB SWAP3 DUP4 AND PUSH1 0x4 DUP3 ADD MSTORE PUSH1 0x24 DUP2 ADD SWAP5 SWAP1 SWAP5 MSTORE PUSH1 0x20 SWAP2 DUP5 SWAP2 PUSH1 0x44 SWAP2 DUP4 SWAP2 DUP7 SWAP2 PUSH1 0x48 SWAP2 SWAP1 SWAP2 SHR AND GAS CALL SWAP1 DUP2 ISZERO PUSH2 0x19E0 JUMPI POP PUSH2 0x19DA SWAP3 PUSH1 0x0 DUP1 MLOAD PUSH1 0x20 PUSH2 0x2637 DUP4 CODECOPY DUP2 MLOAD SWAP2 MSTORE SWAP5 SWAP3 PUSH2 0x19D4 SWAP3 PUSH2 0x1A5C JUMPI JUMPDEST POP PUSH2 0x19AD JUMP JUMPDEST PUSH2 0x1A73 SWAP1 PUSH1 0x20 RETURNDATASIZE DUP2 GT PUSH2 0xD37 JUMPI PUSH2 0xD28 DUP2 DUP4 PUSH2 0x1513 JUMP JUMPDEST POP CODESIZE PUSH2 0x1A56 JUMP JUMPDEST PUSH1 0x40 MLOAD RETURNDATASIZE DUP6 DUP3 RETURNDATACOPY RETURNDATASIZE SWAP1 REVERT JUMPDEST POP PUSH2 0x8FC PUSH2 0x192A JUMP JUMPDEST PUSH1 0x40 MLOAD RETURNDATASIZE DUP8 DUP3 RETURNDATACOPY RETURNDATASIZE SWAP1 REVERT JUMPDEST POP PUSH2 0x8FC PUSH2 0x18FE JUMP JUMPDEST PUSH2 0x8FC SWAP2 POP PUSH2 0x18D8 JUMP JUMPDEST SWAP1 PUSH2 0x1ADA PUSH32 0x290DECD9548B62A8D60345A988386FC84BA6BC95484008F6362F93160EF3E564 SWAP3 CALLVALUE LT ISZERO PUSH2 0x1707 JUMP JUMPDEST SWAP1 DUP10 ADD SLOAD PUSH1 0x40 MLOAD PUSH4 0x23B872DD PUSH1 0xE0 SHL DUP2 MSTORE PUSH1 0x1 PUSH1 0x1 PUSH1 0xA0 SHL SUB DUP8 DUP2 AND PUSH1 0x4 DUP4 ADD MSTORE ADDRESS PUSH1 0x24 DUP4 ADD MSTORE PUSH1 0x44 DUP3 ADD DUP11 SWAP1 MSTORE SWAP3 SWAP2 PUSH1 0x20 SWAP1 DUP3 SWAP1 PUSH1 0x64 SWAP1 DUP3 SWAP1 DUP13 SWAP1 DUP9 AND GAS CALL DUP1 ISZERO PUSH2 0x1B9C JUMPI DUP9 DUP6 DUP6 DUP3 SWAP6 DUP4 SWAP6 DUP5 SWAP6 PUSH2 0x1B7E JUMPI JUMPDEST POP SLOAD AND DUP3 DUP3 ISZERO PUSH2 0x1B75 JUMPI JUMPDEST CALL ISZERO PUSH2 0x1A8E JUMPI DUP6 DUP1 DUP1 SWAP4 PUSH2 0x1B53 DUP3 SWAP5 PUSH1 0x2 SLOAD AND SWAP2 CALLVALUE PUSH2 0x16C7 JUMP JUMPDEST SWAP1 DUP3 DUP3 ISZERO PUSH2 0x1B6C JUMPI JUMPDEST CALL ISZERO PUSH2 0x1A7A JUMPI SWAP1 DUP8 SWAP4 SWAP3 SWAP2 PUSH2 0x1936 JUMP JUMPDEST POP PUSH2 0x8FC PUSH2 0x1B5C JUMP JUMPDEST POP PUSH2 0x8FC PUSH2 0x1B39 JUMP JUMPDEST PUSH2 0x1B95 SWAP1 PUSH1 0x20 RETURNDATASIZE DUP2 GT PUSH2 0xD37 JUMPI PUSH2 0xD28 DUP2 DUP4 PUSH2 0x1513 JUMP JUMPDEST POP CODESIZE PUSH2 0x1B2E JUMP JUMPDEST PUSH1 0x40 MLOAD RETURNDATASIZE DUP11 DUP3 RETURNDATACOPY RETURNDATASIZE SWAP1 REVERT JUMPDEST PUSH1 0x40 MLOAD PUSH3 0x461BCD PUSH1 0xE5 SHL DUP2 MSTORE PUSH1 0x20 PUSH1 0x4 DUP3 ADD MSTORE PUSH1 0x29 PUSH1 0x24 DUP3 ADD MSTORE PUSH32 0x6D696E52656365697665206973206C657373207468616E2063616C6375616C74 PUSH1 0x44 DUP3 ADD MSTORE PUSH9 0x195908185B5BDD5B9D PUSH1 0xBA SHL PUSH1 0x64 DUP3 ADD MSTORE PUSH1 0x84 SWAP1 REVERT JUMPDEST SWAP1 POP DUP1 SWAP10 PUSH2 0x189A JUMP JUMPDEST PUSH2 0x1C86 PUSH1 0x0 DUP1 MLOAD PUSH1 0x20 PUSH2 0x25F7 DUP4 CODECOPY DUP2 MLOAD SWAP2 MSTORE DUP9 ADD SLOAD PUSH2 0x1C80 PUSH1 0x0 DUP1 MLOAD PUSH1 0x20 PUSH2 0x2637 DUP4 CODECOPY DUP2 MLOAD SWAP2 MSTORE DUP11 ADD SLOAD PUSH2 0x1C7A DUP10 PUSH2 0x1C75 DUP14 PUSH32 0x290DECD9548B62A8D60345A988386FC84BA6BC95484008F6362F93160EF3E566 PUSH1 0x0 DUP1 MLOAD PUSH1 0x20 PUSH2 0x2617 DUP4 CODECOPY DUP2 MLOAD SWAP2 MSTORE DUP3 ADD SLOAD SWAP2 ADD SLOAD SWAP1 PUSH2 0x15F3 JUMP JUMPDEST PUSH2 0x15F3 JUMP JUMPDEST SWAP1 PUSH2 0x16E7 JUMP JUMPDEST SWAP1 PUSH2 0x16C7 JUMP JUMPDEST SWAP6 PUSH2 0x184B JUMP JUMPDEST SWAP5 SWAP2 SWAP1 PUSH32 0x290DECD9548B62A8D60345A988386FC84BA6BC95484008F6362F93160EF3E566 DUP8 ADD SWAP6 DUP7 SLOAD DUP1 ISZERO PUSH2 0x20B9 JUMPI PUSH32 0x290DECD9548B62A8D60345A988386FC84BA6BC95484008F6362F93160EF3E56A DUP10 ADD SLOAD DUP4 AND ISZERO PUSH2 0x2064 JUMPI PUSH2 0x1D26 PUSH1 0x0 DUP1 MLOAD PUSH1 0x20 PUSH2 0x2617 DUP4 CODECOPY DUP2 MLOAD SWAP2 MSTORE DUP11 ADD SLOAD PUSH32 0x290DECD9548B62A8D60345A988386FC84BA6BC95484008F6362F93160EF3E56B DUP12 ADD SLOAD SWAP1 DUP10 PUSH2 0x2570 JUMP JUMPDEST SWAP1 JUMPDEST DUP1 DUP3 LT ISZERO PUSH2 0x205B JUMPI POP DUP1 SWAP10 JUMPDEST GT PUSH2 0x2004 JUMPI PUSH1 0x3 SLOAD DUP2 SLOAD PUSH1 0x40 SWAP6 PUSH1 0x1 DUP4 SWAP1 SHR SWAP3 DUP3 DUP9 SHR DUP7 AND ISZERO PUSH2 0x1F30 JUMPI POP SWAP1 POP PUSH2 0x1D63 PUSH2 0x18C6 PUSH1 0x3 SLOAD DUP11 PUSH2 0x15F3 JUMP JUMPDEST DUP7 DUP1 DUP10 DUP1 ISZERO PUSH2 0x1F26 JUMPI JUMPDEST DUP3 DUP1 SWAP3 SWAP2 DUP2 SWAP3 ADDRESS SWAP1 CALL ISZERO PUSH2 0x1F13 JUMPI DUP7 DUP1 DUP1 DUP1 DUP6 PUSH1 0x1 DUP1 PUSH1 0xA0 SHL SUB DUP1 SWAP7 SLOAD AND DUP3 DUP3 ISZERO PUSH2 0x1F1D JUMPI JUMPDEST CALL ISZERO PUSH2 0x1F13 JUMPI DUP7 DUP1 DUP1 SWAP4 PUSH2 0x1DB1 DUP3 SWAP5 PUSH1 0x2 SLOAD AND SWAP2 PUSH2 0x191C DUP14 CALLVALUE PUSH2 0x16C7 JUMP JUMPDEST SWAP1 DUP3 DUP3 ISZERO PUSH2 0x1F0A JUMPI JUMPDEST CALL ISZERO PUSH2 0x1EFD JUMPI SWAP1 DUP9 SWAP3 SWAP2 JUMPDEST PUSH2 0x1DE1 PUSH1 0x0 DUP1 MLOAD PUSH1 0x20 PUSH2 0x25F7 DUP4 CODECOPY DUP2 MLOAD SWAP2 MSTORE DUP11 ADD SWAP8 DUP9 SLOAD PUSH2 0x15F3 JUMP JUMPDEST DUP8 SSTORE SLOAD PUSH1 0xE8 SHR AND ISZERO PUSH2 0x1E58 JUMPI DUP4 DUP1 DUP1 SWAP4 DUP2 SWAP4 DUP3 SWAP1 DUP3 ISZERO PUSH2 0x1E4E JUMPI JUMPDEST PUSH1 0x1 PUSH1 0x1 PUSH1 0xA0 SHL SUB AND SWAP1 CALL ISZERO PUSH2 0x1B0 JUMPI POP POP PUSH1 0x0 DUP1 MLOAD PUSH1 0x20 PUSH2 0x2637 DUP4 CODECOPY DUP2 MLOAD SWAP2 MSTORE SWAP2 PUSH2 0x19D4 PUSH2 0x19DA SWAP3 JUMPDEST PUSH2 0x1E31 DUP8 DUP5 SLOAD PUSH2 0x16C7 JUMP JUMPDEST DUP1 SWAP4 SSTORE SLOAD SWAP2 PUSH1 0x0 DUP1 MLOAD PUSH1 0x20 PUSH2 0x2617 DUP4 CODECOPY DUP2 MLOAD SWAP2 MSTORE DUP7 ADD SLOAD SWAP1 PUSH2 0x15F3 JUMP JUMPDEST PUSH2 0x8FC SWAP2 POP PUSH2 0x1DFC JUMP JUMPDEST PUSH32 0x290DECD9548B62A8D60345A988386FC84BA6BC95484008F6362F93160EF3E564 DUP8 ADD SLOAD DUP4 MLOAD PUSH4 0xA9059CBB PUSH1 0xE0 SHL DUP2 MSTORE PUSH1 0x1 PUSH1 0x1 PUSH1 0xA0 SHL SUB SWAP3 DUP4 AND PUSH1 0x4 DUP3 ADD MSTORE PUSH1 0x24 DUP2 ADD SWAP4 SWAP1 SWAP4 MSTORE SWAP2 SWAP4 SWAP2 PUSH1 0x20 SWAP2 DUP6 SWAP2 PUSH1 0x44 SWAP2 DUP4 SWAP2 DUP7 SWAP2 AND GAS CALL SWAP2 DUP3 ISZERO PUSH2 0x1B0 JUMPI POP POP PUSH2 0x19DA SWAP3 PUSH1 0x0 DUP1 MLOAD PUSH1 0x20 PUSH2 0x2637 DUP4 CODECOPY DUP2 MLOAD SWAP2 MSTORE SWAP5 SWAP3 PUSH2 0x19D4 SWAP3 PUSH2 0x1EDF JUMPI JUMPDEST POP PUSH2 0x1E26 JUMP JUMPDEST PUSH2 0x1EF6 SWAP1 PUSH1 0x20 RETURNDATASIZE DUP2 GT PUSH2 0xD37 JUMPI PUSH2 0xD28 DUP2 DUP4 PUSH2 0x1513 JUMP JUMPDEST POP CODESIZE PUSH2 0x1ED9 JUMP JUMPDEST POP POP POP MLOAD SWAP1 RETURNDATASIZE SWAP1 DUP3 RETURNDATACOPY RETURNDATASIZE SWAP1 REVERT JUMPDEST POP PUSH2 0x8FC PUSH2 0x1DBA JUMP JUMPDEST DUP6 MLOAD RETURNDATASIZE DUP9 DUP3 RETURNDATACOPY RETURNDATASIZE SWAP1 REVERT JUMPDEST POP PUSH2 0x8FC PUSH2 0x1D93 JUMP JUMPDEST PUSH2 0x8FC SWAP2 POP PUSH2 0x1D6D JUMP JUMPDEST PUSH2 0x1F3C SWAP1 CALLVALUE LT ISZERO PUSH2 0x1707 JUMP JUMPDEST DUP7 MLOAD PUSH4 0x23B872DD PUSH1 0xE0 SHL DUP2 MSTORE PUSH1 0x1 PUSH1 0x1 PUSH1 0xA0 SHL SUB DUP8 DUP2 AND PUSH1 0x4 DUP4 ADD MSTORE ADDRESS PUSH1 0x24 DUP4 ADD MSTORE PUSH1 0x44 DUP3 ADD DUP12 SWAP1 MSTORE SWAP3 PUSH1 0x20 SWAP1 DUP3 SWAP1 PUSH1 0x64 SWAP1 DUP3 SWAP1 DUP14 SWAP1 PUSH1 0x48 SHR DUP9 AND GAS CALL DUP1 ISZERO PUSH2 0x1FFA JUMPI DUP10 DUP6 DUP6 DUP3 SWAP6 DUP4 SWAP6 DUP5 SWAP6 PUSH2 0x1FDC JUMPI JUMPDEST POP SLOAD AND DUP3 DUP3 ISZERO PUSH2 0x1FD3 JUMPI JUMPDEST CALL ISZERO PUSH2 0x1F13 JUMPI DUP7 DUP1 DUP1 SWAP4 PUSH2 0x1FB2 DUP3 SWAP5 PUSH1 0x2 SLOAD AND SWAP2 CALLVALUE PUSH2 0x16C7 JUMP JUMPDEST SWAP1 DUP3 DUP3 ISZERO PUSH2 0x1FCA JUMPI JUMPDEST CALL ISZERO PUSH2 0x1EFD JUMPI SWAP1 DUP9 SWAP3 SWAP2 PUSH2 0x1DC5 JUMP JUMPDEST POP PUSH2 0x8FC PUSH2 0x1FBB JUMP JUMPDEST POP PUSH2 0x8FC PUSH2 0x1F98 JUMP JUMPDEST PUSH2 0x1FF3 SWAP1 PUSH1 0x20 RETURNDATASIZE DUP2 GT PUSH2 0xD37 JUMPI PUSH2 0xD28 DUP2 DUP4 PUSH2 0x1513 JUMP JUMPDEST POP CODESIZE PUSH2 0x1F8D JUMP JUMPDEST DUP9 MLOAD RETURNDATASIZE DUP12 DUP3 RETURNDATACOPY RETURNDATASIZE SWAP1 REVERT JUMPDEST PUSH1 0x40 MLOAD PUSH3 0x461BCD PUSH1 0xE5 SHL DUP2 MSTORE PUSH1 0x20 PUSH1 0x4 DUP3 ADD MSTORE PUSH1 0x29 PUSH1 0x24 DUP3 ADD MSTORE PUSH32 0x6D696E52656365697665206973206D6F7265207468616E2063616C6375616C74 PUSH1 0x44 DUP3 ADD MSTORE PUSH9 0x195908185B5BDD5B9D PUSH1 0xBA SHL PUSH1 0x64 DUP3 ADD MSTORE PUSH1 0x84 SWAP1 REVERT JUMPDEST SWAP1 POP DUP1 SWAP10 PUSH2 0x1D34 JUMP JUMPDEST PUSH2 0x20B3 PUSH2 0x2082 DUP3 PUSH1 0x0 DUP1 MLOAD PUSH1 0x20 PUSH2 0x2617 DUP4 CODECOPY DUP2 MLOAD SWAP2 MSTORE DUP13 ADD SLOAD PUSH2 0x15F3 JUMP JUMPDEST PUSH2 0x1C80 DUP12 PUSH2 0x1C7A DUP12 PUSH1 0x0 DUP1 MLOAD PUSH1 0x20 PUSH2 0x25F7 DUP4 CODECOPY DUP2 MLOAD SWAP2 MSTORE PUSH1 0x0 DUP1 MLOAD PUSH1 0x20 PUSH2 0x2637 DUP4 CODECOPY DUP2 MLOAD SWAP2 MSTORE DUP5 ADD SLOAD SWAP4 ADD SLOAD PUSH2 0x15F3 JUMP JUMPDEST SWAP1 PUSH2 0x1D28 JUMP JUMPDEST PUSH1 0x40 MLOAD PUSH3 0x461BCD PUSH1 0xE5 SHL DUP2 MSTORE PUSH1 0x20 PUSH1 0x4 DUP3 ADD MSTORE PUSH1 0x29 PUSH1 0x24 DUP3 ADD MSTORE PUSH32 0x7A65726F20616D6F756E74206F662061737365743220666F722062757920696E PUSH1 0x44 DUP3 ADD MSTORE PUSH9 0x81D1A19481C1BDBDB PUSH1 0xBA SHL PUSH1 0x64 DUP3 ADD MSTORE PUSH1 0x84 SWAP1 REVERT JUMPDEST PUSH1 0x40 MLOAD PUSH3 0x461BCD PUSH1 0xE5 SHL DUP2 MSTORE PUSH1 0x20 PUSH1 0x4 DUP3 ADD MSTORE PUSH1 0xD PUSH1 0x24 DUP3 ADD MSTORE PUSH13 0x506F6F6C20697320656D707479 PUSH1 0x98 SHL PUSH1 0x44 DUP3 ADD MSTORE PUSH1 0x64 SWAP1 REVERT JUMPDEST PUSH4 0x4E487B71 PUSH1 0xE0 SHL DUP3 MSTORE PUSH1 0x32 PUSH1 0x4 MSTORE PUSH1 0x24 DUP3 REVERT JUMPDEST PUSH1 0x40 MLOAD PUSH3 0x461BCD PUSH1 0xE5 SHL DUP2 MSTORE PUSH1 0x20 PUSH1 0x4 DUP3 ADD MSTORE PUSH1 0xE PUSH1 0x24 DUP3 ADD MSTORE PUSH14 0x125B9D985B1A59081C1BDBDB1259 PUSH1 0x92 SHL PUSH1 0x44 DUP3 ADD MSTORE PUSH1 0x64 SWAP1 REVERT JUMPDEST ISZERO PUSH2 0x2196 JUMPI JUMP JUMPDEST PUSH1 0x40 MLOAD PUSH3 0x461BCD PUSH1 0xE5 SHL DUP2 MSTORE PUSH1 0x20 PUSH1 0x4 DUP3 ADD MSTORE PUSH1 0xF PUSH1 0x24 DUP3 ADD MSTORE PUSH15 0x1A5B9D985B1A59081C1BDBDB081A59 PUSH1 0x8A SHL PUSH1 0x44 DUP3 ADD MSTORE PUSH1 0x64 SWAP1 REVERT JUMPDEST ISZERO PUSH2 0x21D4 JUMPI JUMP JUMPDEST PUSH1 0x40 MLOAD PUSH3 0x461BCD PUSH1 0xE5 SHL DUP2 MSTORE PUSH1 0x20 PUSH1 0x4 DUP3 ADD MSTORE PUSH1 0xE PUSH1 0x24 DUP3 ADD MSTORE PUSH14 0x1C1BDBDB081A5CC81B1BD8DAD959 PUSH1 0x92 SHL PUSH1 0x44 DUP3 ADD MSTORE PUSH1 0x64 SWAP1 REVERT JUMPDEST ISZERO PUSH2 0x2211 JUMPI JUMP JUMPDEST PUSH1 0x40 MLOAD PUSH3 0x461BCD PUSH1 0xE5 SHL DUP2 MSTORE PUSH1 0x20 PUSH1 0x4 DUP3 ADD MSTORE PUSH1 0x13 PUSH1 0x24 DUP3 ADD MSTORE PUSH19 0x1B1BDDD95C881D185E081CDC1958DA599A5959 PUSH1 0x6A SHL PUSH1 0x44 DUP3 ADD MSTORE PUSH1 0x64 SWAP1 REVERT JUMPDEST ISZERO PUSH2 0x2253 JUMPI JUMP JUMPDEST PUSH1 0x40 MLOAD PUSH3 0x461BCD PUSH1 0xE5 SHL DUP2 MSTORE PUSH1 0x20 PUSH1 0x4 DUP3 ADD MSTORE PUSH1 0xE PUSH1 0x24 DUP3 ADD MSTORE PUSH14 0x1A5B9D985B1A59081C1BDBDB1259 PUSH1 0x92 SHL PUSH1 0x44 DUP3 ADD MSTORE PUSH1 0x64 SWAP1 REVERT JUMPDEST ISZERO PUSH2 0x2290 JUMPI JUMP JUMPDEST PUSH1 0x40 MLOAD PUSH3 0x461BCD PUSH1 0xE5 SHL DUP2 MSTORE PUSH1 0x20 PUSH1 0x4 DUP3 ADD MSTORE PUSH1 0xF PUSH1 0x24 DUP3 ADD MSTORE PUSH15 0x696E76616C696420696E6465786573 PUSH1 0x88 SHL PUSH1 0x44 DUP3 ADD MSTORE PUSH1 0x64 SWAP1 REVERT JUMPDEST PUSH1 0x1 PUSH1 0x1 PUSH1 0x40 SHL SUB SWAP2 DUP3 AND SWAP1 DUP3 AND SUB SWAP2 SWAP1 DUP3 GT PUSH2 0x1600 JUMPI JUMP JUMPDEST PUSH1 0x40 MLOAD SWAP1 PUSH2 0x22ED DUP3 PUSH2 0x14E1 JUMP JUMPDEST DUP2 PUSH2 0x1C0 PUSH1 0x0 SWAP2 DUP3 DUP2 MSTORE DUP3 PUSH1 0x20 DUP3 ADD MSTORE DUP3 PUSH1 0x40 DUP3 ADD MSTORE DUP3 PUSH1 0x60 DUP3 ADD MSTORE DUP3 PUSH1 0x80 DUP3 ADD MSTORE DUP3 PUSH1 0xA0 DUP3 ADD MSTORE DUP3 PUSH1 0xC0 DUP3 ADD MSTORE DUP3 PUSH1 0xE0 DUP3 ADD MSTORE DUP3 PUSH2 0x100 DUP3 ADD MSTORE DUP3 PUSH2 0x120 DUP3 ADD MSTORE DUP3 PUSH2 0x140 DUP3 ADD MSTORE DUP3 PUSH2 0x160 DUP3 ADD MSTORE DUP3 PUSH2 0x180 DUP3 ADD MSTORE DUP3 PUSH2 0x1A0 DUP3 ADD MSTORE ADD MSTORE JUMP JUMPDEST SWAP1 PUSH2 0x2359 DUP3 PUSH2 0x1534 JUMP JUMPDEST PUSH2 0x2366 PUSH1 0x40 MLOAD SWAP2 DUP3 PUSH2 0x1513 JUMP JUMPDEST DUP3 DUP2 MSTORE DUP1 SWAP3 PUSH2 0x2377 PUSH1 0x1F NOT SWAP2 PUSH2 0x1534 JUMP JUMPDEST ADD SWAP1 PUSH1 0x0 JUMPDEST DUP3 DUP2 LT PUSH2 0x2388 JUMPI POP POP POP JUMP JUMPDEST PUSH1 0x20 SWAP1 PUSH2 0x2393 PUSH2 0x22E0 JUMP JUMPDEST DUP3 DUP3 DUP6 ADD ADD MSTORE ADD PUSH2 0x237C JUMP JUMPDEST PUSH1 0x1 PUSH1 0x1 PUSH1 0x40 SHL SUB DUP1 SWAP2 AND SWAP1 DUP2 EQ PUSH2 0x1600 JUMPI PUSH1 0x1 ADD SWAP1 JUMP JUMPDEST DUP1 MLOAD DUP3 LT ISZERO PUSH2 0x1656 JUMPI PUSH1 0x20 SWAP2 PUSH1 0x5 SHL ADD ADD SWAP1 JUMP JUMPDEST SWAP1 PUSH1 0x40 MLOAD PUSH2 0x23D8 DUP2 PUSH2 0x14E1 JUMP JUMPDEST PUSH2 0x1C0 DUP2 SWAP4 DUP1 SLOAD PUSH1 0x1 PUSH1 0x1 PUSH1 0x40 SHL SUB DUP2 AND DUP5 MSTORE PUSH1 0x9 PUSH1 0xFF SWAP3 DUP4 DUP4 PUSH1 0x40 SHR AND ISZERO ISZERO PUSH1 0x20 DUP8 ADD MSTORE DUP4 PUSH1 0x1 DUP1 PUSH1 0xA0 SHL SUB SWAP4 DUP5 DUP2 PUSH1 0x48 SHR AND PUSH1 0x40 DUP10 ADD MSTORE PUSH1 0xE8 SHR AND ISZERO ISZERO PUSH1 0x60 DUP8 ADD MSTORE DUP3 PUSH1 0x1 DUP3 ADD SLOAD AND PUSH1 0x80 DUP8 ADD MSTORE PUSH1 0x2 DUP2 ADD SLOAD PUSH1 0xA0 DUP8 ADD MSTORE PUSH1 0x3 DUP2 ADD SLOAD PUSH1 0xC0 DUP8 ADD MSTORE PUSH1 0x4 DUP2 ADD SLOAD PUSH1 0xE0 DUP8 ADD MSTORE DUP4 PUSH1 0x5 DUP3 ADD SLOAD AND PUSH2 0x100 DUP8 ADD MSTORE PUSH1 0x6 DUP2 ADD SLOAD PUSH2 0x120 DUP8 ADD MSTORE DUP4 PUSH1 0x7 DUP3 ADD SLOAD AND ISZERO ISZERO PUSH2 0x140 DUP8 ADD MSTORE PUSH1 0x8 DUP2 ADD SLOAD PUSH2 0x160 DUP8 ADD MSTORE ADD SLOAD SWAP1 DUP2 AND PUSH2 0x180 DUP6 ADD MSTORE DUP2 DUP2 PUSH1 0xA0 SHR AND ISZERO ISZERO PUSH2 0x1A0 DUP6 ADD MSTORE PUSH1 0xA8 SHR AND ISZERO ISZERO SWAP2 ADD MSTORE JUMP JUMPDEST ISZERO PUSH2 0x24A3 JUMPI JUMP JUMPDEST PUSH1 0x40 MLOAD PUSH3 0x461BCD PUSH1 0xE5 SHL DUP2 MSTORE PUSH1 0x20 PUSH1 0x4 DUP3 ADD MSTORE PUSH1 0xD PUSH1 0x24 DUP3 ADD MSTORE PUSH13 0xD2DCECC2D8D2C840D2DCC8CAF PUSH1 0x9B SHL PUSH1 0x44 DUP3 ADD MSTORE PUSH1 0x64 SWAP1 REVERT JUMPDEST SWAP1 PUSH2 0x24E2 DUP3 PUSH2 0x1534 JUMP JUMPDEST PUSH2 0x24EF PUSH1 0x40 MLOAD SWAP2 DUP3 PUSH2 0x1513 JUMP JUMPDEST DUP3 DUP2 MSTORE DUP1 SWAP3 PUSH2 0x2500 PUSH1 0x1F NOT SWAP2 PUSH2 0x1534 JUMP JUMPDEST ADD SWAP1 PUSH1 0x20 CALLDATASIZE SWAP2 ADD CALLDATACOPY JUMP JUMPDEST PUSH1 0x0 NOT DUP3 DUP3 MULMOD DUP3 DUP3 MUL SWAP2 DUP3 DUP1 DUP4 LT SWAP3 SUB SWAP2 DUP1 DUP4 SUB SWAP3 EQ PUSH2 0x2566 JUMPI DUP2 PUSH1 0x64 GT ISZERO PUSH2 0x13C2 JUMPI PUSH32 0x5C28F5C28F5C28F5C28F5C28F5C28F5C28F5C28F5C28F5C28F5C28F5C28F5C29 SWAP4 PUSH1 0x64 SWAP2 MULMOD SWAP1 DUP3 DUP3 GT SWAP1 SUB PUSH1 0xFE SHL SWAP2 SUB PUSH1 0x2 SHR OR MUL SWAP1 JUMP JUMPDEST POP POP PUSH1 0x64 SWAP2 POP DIV SWAP1 JUMP JUMPDEST SWAP2 PUSH1 0x0 NOT DUP3 DUP5 MULMOD SWAP3 DUP3 DUP2 MUL SWAP3 DUP4 DUP1 DUP7 LT SWAP6 SUB SWAP5 DUP1 DUP7 SUB SWAP6 EQ PUSH2 0x25E6 JUMPI DUP5 DUP4 GT ISZERO PUSH2 0x13C2 JUMPI DUP3 SWAP2 MULMOD PUSH1 0x1 DUP3 NOT ADD DUP3 AND DUP1 SWAP3 DIV PUSH1 0x2 DUP1 DUP3 PUSH1 0x3 MUL XOR DUP1 DUP4 MUL DUP3 SUB MUL DUP1 DUP4 MUL DUP3 SUB MUL DUP1 DUP4 MUL DUP3 SUB MUL DUP1 DUP4 MUL DUP3 SUB MUL DUP1 DUP4 MUL DUP3 SUB MUL DUP1 SWAP3 MUL SWAP1 SUB MUL SWAP4 PUSH1 0x1 DUP4 DUP1 PUSH1 0x0 SUB DIV ADD SWAP1 DUP5 DUP4 GT SWAP1 SUB MUL SWAP3 SUB DIV OR MUL SWAP1 JUMP JUMPDEST POP POP SWAP1 PUSH2 0x25F3 SWAP3 POP PUSH2 0x16E7 JUMP JUMPDEST SWAP1 JUMP INVALID 0x29 0xD 0xEC 0xD9 SLOAD DUP12 PUSH3 0xA8D603 GASLIMIT 0xA9 DUP9 CODESIZE PUSH16 0xC84BA6BC95484008F6362F93160EF3E5 PUSH6 0x290DECD9548B PUSH3 0xA8D603 GASLIMIT 0xA9 DUP9 CODESIZE PUSH16 0xC84BA6BC95484008F6362F93160EF3E5 PUSH8 0x290DECD9548B62A8 0xD6 SUB GASLIMIT 0xA9 DUP9 CODESIZE PUSH16 0xC84BA6BC95484008F6362F93160EF3E5 PUSH10 0xA2646970667358221220 EXTCODECOPY DIFFICULTY 0x2A SLOAD BALANCE NOT 0xD2 DUP3 CALLDATASIZE DUP8 0x28 TIMESTAMP SWAP1 JUMPI PUSH28 0xBE6779062D85A3D7810693E4883C9A0F4664736F6C63430008110033 "
				},
				"gasEstimates": {
					"creation": {
						"codeDepositCost": "1973600",
						"executionCost": "infinite",
						"totalCost": "infinite"
					},
					"external": {
						"": "566",
						"_pools(uint256)": "26082",
						"changeContantProduct(uint64,uint256)": "infinite",
						"changeOwner(uint64,address)": "infinite",
						"changePoolMaxBuyAsset1PercentPerTransaction(uint64,uint8)": "infinite",
						"contractOwner()": "2623",
						"createPool(address,bool,address,bool,address,uint256,uint256,uint8,bool)": "infinite",
						"exchangeAsset(address,uint64,bool,uint256,uint256)": "infinite",
						"getAllAssetsFromPool(uint64)": "infinite",
						"getBalance()": "212",
						"getPool(uint64)": "infinite",
						"getPools(uint64,uint64)": "infinite",
						"getPools(uint64[])": "infinite",
						"getPoolsCount()": "2577",
						"getPoolsForTransactionsWithIndexesBetween(uint64,uint64)": "infinite",
						"getPoolsForTransactionsWithIndexesFrom(uint64)": "infinite",
						"getPoolsFrom(uint64)": "infinite",
						"getTransactionsCount()": "2426",
						"isPoolLocked(uint64)": "4624",
						"lockPool(uint64)": "infinite",
						"setNewGlobalTax(uint8)": "28920",
						"setNewOwner(address)": "24872"
					}
				},
				"methodIdentifiers": {
					"_pools(uint256)": "3997663c",
					"changeContantProduct(uint64,uint256)": "fa5a67ed",
					"changeOwner(uint64,address)": "81d802ba",
					"changePoolMaxBuyAsset1PercentPerTransaction(uint64,uint8)": "f6fce7a9",
					"contractOwner()": "ce606ee0",
					"createPool(address,bool,address,bool,address,uint256,uint256,uint8,bool)": "57b0b64d",
					"exchangeAsset(address,uint64,bool,uint256,uint256)": "d5700cbb",
					"getAllAssetsFromPool(uint64)": "0c95be25",
					"getBalance()": "12065fe0",
					"getPool(uint64)": "919adab8",
					"getPools(uint64,uint64)": "f8c81b90",
					"getPools(uint64[])": "22668de1",
					"getPoolsCount()": "b4ac6860",
					"getPoolsForTransactionsWithIndexesBetween(uint64,uint64)": "acb8001f",
					"getPoolsForTransactionsWithIndexesFrom(uint64)": "455b5adc",
					"getPoolsFrom(uint64)": "0376e49c",
					"getTransactionsCount()": "578cb8f9",
					"isPoolLocked(uint64)": "1e67d542",
					"lockPool(uint64)": "b0b15560",
					"setNewGlobalTax(uint8)": "74d13a23",
					"setNewOwner(address)": "f5a1f5b4"
				}
			},
			"storageLayout": {
				"storage": [
					{
						"astId": 53,
						"contract": "SimplePools.sol:SimplePools",
						"label": "_pools",
						"offset": 0,
						"slot": "0",
						"type": "t_array(t_struct(Pool)48_storage)dyn_storage"
					},
					{
						"astId": 57,
						"contract": "SimplePools.sol:SimplePools",
						"label": "_allTransactionsPoolIds",
						"offset": 0,
						"slot": "1",
						"type": "t_array(t_uint64)dyn_storage"
					},
					{
						"astId": 1480,
						"contract": "SimplePools.sol:SimplePools",
						"label": "contractOwner",
						"offset": 0,
						"slot": "2",
						"type": "t_address_payable"
					},
					{
						"astId": 1544,
						"contract": "SimplePools.sol:SimplePools",
						"label": "contractTransactionTax",
						"offset": 0,
						"slot": "3",
						"type": "t_uint256"
					},
					{
						"astId": 1564,
						"contract": "SimplePools.sol:SimplePools",
						"label": "validContractTransactionTaxes",
						"offset": 0,
						"slot": "4",
						"type": "t_array(t_uint256)dyn_storage"
					}
				],
				"types": {
					"t_address": {
						"encoding": "inplace",
						"label": "address",
						"numberOfBytes": "20"
					},
					"t_address_payable": {
						"encoding": "inplace",
						"label": "address payable",
						"numberOfBytes": "20"
					},
					"t_array(t_struct(Pool)48_storage)dyn_storage": {
						"base": "t_struct(Pool)48_storage",
						"encoding": "dynamic_array",
						"label": "struct SimplePools.Pool[]",
						"numberOfBytes": "32"
					},
					"t_array(t_uint256)dyn_storage": {
						"base": "t_uint256",
						"encoding": "dynamic_array",
						"label": "uint256[]",
						"numberOfBytes": "32"
					},
					"t_array(t_uint64)dyn_storage": {
						"base": "t_uint64",
						"encoding": "dynamic_array",
						"label": "uint64[]",
						"numberOfBytes": "32"
					},
					"t_bool": {
						"encoding": "inplace",
						"label": "bool",
						"numberOfBytes": "1"
					},
					"t_struct(Pool)48_storage": {
						"encoding": "inplace",
						"label": "struct SimplePools.Pool",
						"members": [
							{
								"astId": 5,
								"contract": "SimplePools.sol:SimplePools",
								"label": "poolId",
								"offset": 0,
								"slot": "0",
								"type": "t_uint64"
							},
							{
								"astId": 8,
								"contract": "SimplePools.sol:SimplePools",
								"label": "isAsset1NativeBlockchainCurrency",
								"offset": 8,
								"slot": "0",
								"type": "t_bool"
							},
							{
								"astId": 11,
								"contract": "SimplePools.sol:SimplePools",
								"label": "asset1",
								"offset": 9,
								"slot": "0",
								"type": "t_address"
							},
							{
								"astId": 14,
								"contract": "SimplePools.sol:SimplePools",
								"label": "isAsset2NativeBlockchainCurrency",
								"offset": 29,
								"slot": "0",
								"type": "t_bool"
							},
							{
								"astId": 17,
								"contract": "SimplePools.sol:SimplePools",
								"label": "asset2",
								"offset": 0,
								"slot": "1",
								"type": "t_address"
							},
							{
								"astId": 20,
								"contract": "SimplePools.sol:SimplePools",
								"label": "asset1Amount",
								"offset": 0,
								"slot": "2",
								"type": "t_uint256"
							},
							{
								"astId": 23,
								"contract": "SimplePools.sol:SimplePools",
								"label": "asset2Amount",
								"offset": 0,
								"slot": "3",
								"type": "t_uint256"
							},
							{
								"astId": 26,
								"contract": "SimplePools.sol:SimplePools",
								"label": "asset2InitiallyAskedAmount",
								"offset": 0,
								"slot": "4",
								"type": "t_uint256"
							},
							{
								"astId": 29,
								"contract": "SimplePools.sol:SimplePools",
								"label": "maxBuyAsset1PercentPerTransaction",
								"offset": 0,
								"slot": "5",
								"type": "t_uint8"
							},
							{
								"astId": 32,
								"contract": "SimplePools.sol:SimplePools",
								"label": "constantProduct",
								"offset": 0,
								"slot": "6",
								"type": "t_uint256"
							},
							{
								"astId": 35,
								"contract": "SimplePools.sol:SimplePools",
								"label": "isConstantPrice",
								"offset": 0,
								"slot": "7",
								"type": "t_bool"
							},
							{
								"astId": 38,
								"contract": "SimplePools.sol:SimplePools",
								"label": "initialAsset1Amount",
								"offset": 0,
								"slot": "8",
								"type": "t_uint256"
							},
							{
								"astId": 41,
								"contract": "SimplePools.sol:SimplePools",
								"label": "poolOwner",
								"offset": 0,
								"slot": "9",
								"type": "t_address_payable"
							},
							{
								"astId": 44,
								"contract": "SimplePools.sol:SimplePools",
								"label": "isLocked",
								"offset": 20,
								"slot": "9",
								"type": "t_bool"
							},
							{
								"astId": 47,
								"contract": "SimplePools.sol:SimplePools",
								"label": "isEmpty",
								"offset": 21,
								"slot": "9",
								"type": "t_bool"
							}
						],
						"numberOfBytes": "320"
					},
					"t_uint256": {
						"encoding": "inplace",
						"label": "uint256",
						"numberOfBytes": "32"
					},
					"t_uint64": {
						"encoding": "inplace",
						"label": "uint64",
						"numberOfBytes": "8"
					},
					"t_uint8": {
						"encoding": "inplace",
						"label": "uint8",
						"numberOfBytes": "1"
					}
				}
			},
			"userdoc": {
				"kind": "user",
				"methods": {
					"_pools(uint256)": {
						"notice": "List with all the pools in the smart contract."
					},
					"changeContantProduct(uint64,uint256)": {
						"notice": "Changes a pool constant product. Only callable by the pool owner. "
					},
					"changeOwner(uint64,address)": {
						"notice": "Changes the ownership of a pool. Only callable by the pool owner. If the owner gets compromised and is fast enough, they can transfer the ownership of the pool. "
					},
					"changePoolMaxBuyAsset1PercentPerTransaction(uint64,uint8)": {
						"notice": "Changes maxBuyAsset1PercentPerTransaction. Only callable by the pool owner. "
					},
					"constructor": {
						"notice": "Set the initial contract owner to the msg.sender."
					},
					"contractOwner()": {
						"notice": "The owner of the contract (the receiver of the taxes)."
					},
					"createPool(address,bool,address,bool,address,uint256,uint256,uint8,bool)": {
						"notice": "Creates a simple pool. For the documentation of each parameter check the Pool structure definition. "
					},
					"exchangeAsset(address,uint64,bool,uint256,uint256)": {
						"notice": "Exchanges asset for asset from a simple pool. "
					},
					"getAllAssetsFromPool(uint64)": {
						"notice": "Transfers all assets (asset1 and asset2) from a pool to the pool owner. Only callable by the pool owner."
					},
					"getBalance()": {
						"notice": "Gets the current native asset balance of contract."
					},
					"getPool(uint64)": {
						"notice": "Returns the state of a single pool. "
					},
					"getPools(uint64,uint64)": {
						"notice": "Gets the states of the pools in a given range [startPoolIndex, ..., endPoolIndex). Start index is included and end index is not included. "
					},
					"getPools(uint64[])": {
						"notice": "Returns the states of the pools with the requested indexes. "
					},
					"getPoolsForTransactionsWithIndexesBetween(uint64,uint64)": {
						"notice": "Returns the list of pool indexes of the pools participating in the list of requested transactions in range [startTransactionIndex, ..., endTransactionIndex). "
					},
					"getPoolsForTransactionsWithIndexesFrom(uint64)": {
						"notice": "Returns the list of pool indexes of the pools participating in the list of requested transactions in range [startTransactionIndex, ..., _allTransactionsPoolIds.length). "
					},
					"getPoolsFrom(uint64)": {
						"notice": "Gets the states of the pools from a given starting index till the end. "
					},
					"getTransactionsCount()": {
						"notice": "Returns the count of all transactions executed with the smart contract."
					},
					"isPoolLocked(uint64)": {
						"notice": "Returns whether a pool is locked. "
					},
					"lockPool(uint64)": {
						"notice": "Locks a pool. Only callable by the pool owner. Locked pools cannot be unlocked and the assets cannot be taken from the pool owner."
					},
					"setNewGlobalTax(uint8)": {
						"notice": "Sets a new contractTransactionNax. Only callable by the current contract owner. The list of valid transaction taxes which can be set is validContractTransactionTaxes."
					},
					"setNewOwner(address)": {
						"notice": "Sets a new contract owner. Only callable by the current contract owner."
					}
				},
				"notice": "Simple Pools https://simplepools.org/ DeFi made simple.",
				"version": 1
			}
		}
	}
}